{
	"contracts/Whitelist.sol": {
		"Whitelist": {
			"abi": [
				{
					"anonymous": false,
					"inputs": [
						{
							"indexed": true,
							"internalType": "address",
							"name": "account",
							"type": "address"
						}
					],
					"name": "AddressAddedToWhitelist",
					"type": "event"
				},
				{
					"anonymous": false,
					"inputs": [
						{
							"indexed": true,
							"internalType": "address",
							"name": "account",
							"type": "address"
						}
					],
					"name": "AddressRemovedFromWhitelist",
					"type": "event"
				},
				{
					"anonymous": false,
					"inputs": [
						{
							"indexed": true,
							"internalType": "address",
							"name": "previousOwner",
							"type": "address"
						},
						{
							"indexed": true,
							"internalType": "address",
							"name": "newOwner",
							"type": "address"
						}
					],
					"name": "OwnershipTransferred",
					"type": "event"
				},
				{
					"inputs": [
						{
							"internalType": "address",
							"name": "account1",
							"type": "address"
						},
						{
							"internalType": "address",
							"name": "account2",
							"type": "address"
						},
						{
							"internalType": "address",
							"name": "account3",
							"type": "address"
						},
						{
							"internalType": "address",
							"name": "account4",
							"type": "address"
						},
						{
							"internalType": "address",
							"name": "account5",
							"type": "address"
						},
						{
							"internalType": "address",
							"name": "account6",
							"type": "address"
						},
						{
							"internalType": "address",
							"name": "account7",
							"type": "address"
						},
						{
							"internalType": "address",
							"name": "account8",
							"type": "address"
						},
						{
							"internalType": "address",
							"name": "account9",
							"type": "address"
						},
						{
							"internalType": "address",
							"name": "account10",
							"type": "address"
						}
					],
					"name": "addAddressesToWhitelist",
					"outputs": [],
					"stateMutability": "nonpayable",
					"type": "function"
				},
				{
					"inputs": [
						{
							"internalType": "address",
							"name": "account",
							"type": "address"
						}
					],
					"name": "addToWhitelist",
					"outputs": [],
					"stateMutability": "nonpayable",
					"type": "function"
				},
				{
					"inputs": [
						{
							"internalType": "address",
							"name": "account",
							"type": "address"
						}
					],
					"name": "isWhitelisted",
					"outputs": [
						{
							"internalType": "bool",
							"name": "",
							"type": "bool"
						}
					],
					"stateMutability": "view",
					"type": "function"
				},
				{
					"inputs": [],
					"name": "owner",
					"outputs": [
						{
							"internalType": "address",
							"name": "",
							"type": "address"
						}
					],
					"stateMutability": "view",
					"type": "function"
				},
				{
					"inputs": [
						{
							"internalType": "address",
							"name": "account",
							"type": "address"
						}
					],
					"name": "removeFromWhitelist",
					"outputs": [],
					"stateMutability": "nonpayable",
					"type": "function"
				},
				{
					"inputs": [],
					"name": "renounceOwnership",
					"outputs": [],
					"stateMutability": "nonpayable",
					"type": "function"
				},
				{
					"inputs": [
						{
							"internalType": "address",
							"name": "newOwner",
							"type": "address"
						}
					],
					"name": "transferOwnership",
					"outputs": [],
					"stateMutability": "nonpayable",
					"type": "function"
				},
				{
					"inputs": [
						{
							"internalType": "address",
							"name": "",
							"type": "address"
						}
					],
					"name": "whitelist",
					"outputs": [
						{
							"internalType": "bool",
							"name": "",
							"type": "bool"
						}
					],
					"stateMutability": "view",
					"type": "function"
				}
			],
			"devdoc": {
				"kind": "dev",
				"methods": {
					"owner()": {
						"details": "Returns the address of the current owner."
					},
					"renounceOwnership()": {
						"details": "Leaves the contract without owner. It will not be possible to call `onlyOwner` functions. Can only be called by the current owner. NOTE: Renouncing ownership will leave the contract without an owner, thereby disabling any functionality that is only available to the owner."
					},
					"transferOwnership(address)": {
						"details": "Transfers ownership of the contract to a new account (`newOwner`). Can only be called by the current owner."
					}
				},
				"version": 1
			},
			"evm": {
				"assembly": "    /* \"contracts/Whitelist.sol\":116:1469  contract Whitelist is Ownable {... */\n  mstore(0x40, 0x80)\n  callvalue\n  dup1\n  iszero\n  tag_1\n  jumpi\n  0x00\n  dup1\n  revert\ntag_1:\n  pop\n    /* \"@openzeppelin/contracts/access/Ownable.sol\":936:968  _transferOwnership(_msgSender()) */\n  tag_4\n    /* \"@openzeppelin/contracts/access/Ownable.sol\":955:967  _msgSender() */\n  tag_5\n    /* \"@openzeppelin/contracts/access/Ownable.sol\":955:965  _msgSender */\n  shl(0x20, tag_6)\n    /* \"@openzeppelin/contracts/access/Ownable.sol\":955:967  _msgSender() */\n  0x20\n  shr\n  jump\t// in\ntag_5:\n    /* \"@openzeppelin/contracts/access/Ownable.sol\":936:954  _transferOwnership */\n  shl(0x20, tag_7)\n    /* \"@openzeppelin/contracts/access/Ownable.sol\":936:968  _transferOwnership(_msgSender()) */\n  0x20\n  shr\n  jump\t// in\ntag_4:\n    /* \"contracts/Whitelist.sol\":116:1469  contract Whitelist is Ownable {... */\n  jump(tag_8)\n    /* \"@openzeppelin/contracts/utils/Context.sol\":640:736  function _msgSender() internal view virtual returns (address) {... */\ntag_6:\n    /* \"@openzeppelin/contracts/utils/Context.sol\":693:700  address */\n  0x00\n    /* \"@openzeppelin/contracts/utils/Context.sol\":719:729  msg.sender */\n  caller\n    /* \"@openzeppelin/contracts/utils/Context.sol\":712:729  return msg.sender */\n  swap1\n  pop\n    /* \"@openzeppelin/contracts/utils/Context.sol\":640:736  function _msgSender() internal view virtual returns (address) {... */\n  swap1\n  jump\t// out\n    /* \"@openzeppelin/contracts/access/Ownable.sol\":2426:2613  function _transferOwnership(address newOwner) internal virtual {... */\ntag_7:\n    /* \"@openzeppelin/contracts/access/Ownable.sol\":2499:2515  address oldOwner */\n  0x00\n    /* \"@openzeppelin/contracts/access/Ownable.sol\":2518:2524  _owner */\n  dup1\n  0x00\n  swap1\n  sload\n  swap1\n  0x0100\n  exp\n  swap1\n  div\n  0xffffffffffffffffffffffffffffffffffffffff\n  and\n    /* \"@openzeppelin/contracts/access/Ownable.sol\":2499:2524  address oldOwner = _owner */\n  swap1\n  pop\n    /* \"@openzeppelin/contracts/access/Ownable.sol\":2543:2551  newOwner */\n  dup2\n    /* \"@openzeppelin/contracts/access/Ownable.sol\":2534:2540  _owner */\n  0x00\n  dup1\n    /* \"@openzeppelin/contracts/access/Ownable.sol\":2534:2551  _owner = newOwner */\n  0x0100\n  exp\n  dup2\n  sload\n  dup2\n  0xffffffffffffffffffffffffffffffffffffffff\n  mul\n  not\n  and\n  swap1\n  dup4\n  0xffffffffffffffffffffffffffffffffffffffff\n  and\n  mul\n  or\n  swap1\n  sstore\n  pop\n    /* \"@openzeppelin/contracts/access/Ownable.sol\":2597:2605  newOwner */\n  dup2\n    /* \"@openzeppelin/contracts/access/Ownable.sol\":2566:2606  OwnershipTransferred(oldOwner, newOwner) */\n  0xffffffffffffffffffffffffffffffffffffffff\n  and\n    /* \"@openzeppelin/contracts/access/Ownable.sol\":2587:2595  oldOwner */\n  dup2\n    /* \"@openzeppelin/contracts/access/Ownable.sol\":2566:2606  OwnershipTransferred(oldOwner, newOwner) */\n  0xffffffffffffffffffffffffffffffffffffffff\n  and\n  0x8be0079c531659141344cd1fd0a4f28419497f9722a3daafe3b4186f6b6457e0\n  mload(0x40)\n  mload(0x40)\n  dup1\n  swap2\n  sub\n  swap1\n  log3\n    /* \"@openzeppelin/contracts/access/Ownable.sol\":2489:2613  {... */\n  pop\n    /* \"@openzeppelin/contracts/access/Ownable.sol\":2426:2613  function _transferOwnership(address newOwner) internal virtual {... */\n  pop\n  jump\t// out\n    /* \"contracts/Whitelist.sol\":116:1469  contract Whitelist is Ownable {... */\ntag_8:\n  dataSize(sub_0)\n  dup1\n  dataOffset(sub_0)\n  0x00\n  codecopy\n  0x00\n  return\nstop\n\nsub_0: assembly {\n        /* \"contracts/Whitelist.sol\":116:1469  contract Whitelist is Ownable {... */\n      mstore(0x40, 0x80)\n      callvalue\n      dup1\n      iszero\n      tag_1\n      jumpi\n      0x00\n      dup1\n      revert\n    tag_1:\n      pop\n      jumpi(tag_2, lt(calldatasize, 0x04))\n      shr(0xe0, calldataload(0x00))\n      dup1\n      0x9b19251a\n      gt\n      tag_11\n      jumpi\n      dup1\n      0x9b19251a\n      eq\n      tag_7\n      jumpi\n      dup1\n      0xe43252d7\n      eq\n      tag_8\n      jumpi\n      dup1\n      0xf2fde38b\n      eq\n      tag_9\n      jumpi\n      dup1\n      0xf3e81af7\n      eq\n      tag_10\n      jumpi\n      jump(tag_2)\n    tag_11:\n      dup1\n      0x3af32abf\n      eq\n      tag_3\n      jumpi\n      dup1\n      0x715018a6\n      eq\n      tag_4\n      jumpi\n      dup1\n      0x8ab1d681\n      eq\n      tag_5\n      jumpi\n      dup1\n      0x8da5cb5b\n      eq\n      tag_6\n      jumpi\n    tag_2:\n      0x00\n      dup1\n      revert\n        /* \"contracts/Whitelist.sol\":1355:1466  function isWhitelisted(address account) public view returns (bool) {... */\n    tag_3:\n      tag_12\n      0x04\n      dup1\n      calldatasize\n      sub\n      dup2\n      add\n      swap1\n      tag_13\n      swap2\n      swap1\n      tag_14\n      jump\t// in\n    tag_13:\n      tag_15\n      jump\t// in\n    tag_12:\n      mload(0x40)\n      tag_16\n      swap2\n      swap1\n      tag_17\n      jump\t// in\n    tag_16:\n      mload(0x40)\n      dup1\n      swap2\n      sub\n      swap1\n      return\n        /* \"@openzeppelin/contracts/access/Ownable.sol\":1824:1925  function renounceOwnership() public virtual onlyOwner {... */\n    tag_4:\n      tag_18\n      tag_19\n      jump\t// in\n    tag_18:\n      stop\n        /* \"contracts/Whitelist.sol\":1186:1347  function removeFromWhitelist(address account) external onlyOwner {... */\n    tag_5:\n      tag_20\n      0x04\n      dup1\n      calldatasize\n      sub\n      dup2\n      add\n      swap1\n      tag_21\n      swap2\n      swap1\n      tag_14\n      jump\t// in\n    tag_21:\n      tag_22\n      jump\t// in\n    tag_20:\n      stop\n        /* \"@openzeppelin/contracts/access/Ownable.sol\":1201:1286  function owner() public view virtual returns (address) {... */\n    tag_6:\n      tag_23\n      tag_24\n      jump\t// in\n    tag_23:\n      mload(0x40)\n      tag_25\n      swap2\n      swap1\n      tag_26\n      jump\t// in\n    tag_25:\n      mload(0x40)\n      dup1\n      swap2\n      sub\n      swap1\n      return\n        /* \"contracts/Whitelist.sol\":153:194  mapping(address => bool) public whitelist */\n    tag_7:\n      tag_27\n      0x04\n      dup1\n      calldatasize\n      sub\n      dup2\n      add\n      swap1\n      tag_28\n      swap2\n      swap1\n      tag_14\n      jump\t// in\n    tag_28:\n      tag_29\n      jump\t// in\n    tag_27:\n      mload(0x40)\n      tag_30\n      swap2\n      swap1\n      tag_17\n      jump\t// in\n    tag_30:\n      mload(0x40)\n      dup1\n      swap2\n      sub\n      swap1\n      return\n        /* \"contracts/Whitelist.sol\":1028:1178  function addToWhitelist(address account) public onlyOwner {... */\n    tag_8:\n      tag_31\n      0x04\n      dup1\n      calldatasize\n      sub\n      dup2\n      add\n      swap1\n      tag_32\n      swap2\n      swap1\n      tag_14\n      jump\t// in\n    tag_32:\n      tag_33\n      jump\t// in\n    tag_31:\n      stop\n        /* \"@openzeppelin/contracts/access/Ownable.sol\":2074:2272  function transferOwnership(address newOwner) public virtual onlyOwner {... */\n    tag_9:\n      tag_34\n      0x04\n      dup1\n      calldatasize\n      sub\n      dup2\n      add\n      swap1\n      tag_35\n      swap2\n      swap1\n      tag_14\n      jump\t// in\n    tag_35:\n      tag_36\n      jump\t// in\n    tag_34:\n      stop\n        /* \"contracts/Whitelist.sol\":331:1020  function addAddressesToWhitelist(... */\n    tag_10:\n      tag_37\n      0x04\n      dup1\n      calldatasize\n      sub\n      dup2\n      add\n      swap1\n      tag_38\n      swap2\n      swap1\n      tag_39\n      jump\t// in\n    tag_38:\n      tag_40\n      jump\t// in\n    tag_37:\n      stop\n        /* \"contracts/Whitelist.sol\":1355:1466  function isWhitelisted(address account) public view returns (bool) {... */\n    tag_15:\n        /* \"contracts/Whitelist.sol\":1416:1420  bool */\n      0x00\n        /* \"contracts/Whitelist.sol\":1440:1449  whitelist */\n      0x01\n        /* \"contracts/Whitelist.sol\":1440:1458  whitelist[account] */\n      0x00\n        /* \"contracts/Whitelist.sol\":1450:1457  account */\n      dup4\n        /* \"contracts/Whitelist.sol\":1440:1458  whitelist[account] */\n      0xffffffffffffffffffffffffffffffffffffffff\n      and\n      0xffffffffffffffffffffffffffffffffffffffff\n      and\n      dup2\n      mstore\n      0x20\n      add\n      swap1\n      dup2\n      mstore\n      0x20\n      add\n      0x00\n      keccak256\n      0x00\n      swap1\n      sload\n      swap1\n      0x0100\n      exp\n      swap1\n      div\n      0xff\n      and\n        /* \"contracts/Whitelist.sol\":1433:1458  return whitelist[account] */\n      swap1\n      pop\n        /* \"contracts/Whitelist.sol\":1355:1466  function isWhitelisted(address account) public view returns (bool) {... */\n      swap2\n      swap1\n      pop\n      jump\t// out\n        /* \"@openzeppelin/contracts/access/Ownable.sol\":1824:1925  function renounceOwnership() public virtual onlyOwner {... */\n    tag_19:\n        /* \"@openzeppelin/contracts/access/Ownable.sol\":1094:1107  _checkOwner() */\n      tag_43\n        /* \"@openzeppelin/contracts/access/Ownable.sol\":1094:1105  _checkOwner */\n      tag_44\n        /* \"@openzeppelin/contracts/access/Ownable.sol\":1094:1107  _checkOwner() */\n      jump\t// in\n    tag_43:\n        /* \"@openzeppelin/contracts/access/Ownable.sol\":1888:1918  _transferOwnership(address(0)) */\n      tag_46\n        /* \"@openzeppelin/contracts/access/Ownable.sol\":1915:1916  0 */\n      0x00\n        /* \"@openzeppelin/contracts/access/Ownable.sol\":1888:1906  _transferOwnership */\n      tag_47\n        /* \"@openzeppelin/contracts/access/Ownable.sol\":1888:1918  _transferOwnership(address(0)) */\n      jump\t// in\n    tag_46:\n        /* \"@openzeppelin/contracts/access/Ownable.sol\":1824:1925  function renounceOwnership() public virtual onlyOwner {... */\n      jump\t// out\n        /* \"contracts/Whitelist.sol\":1186:1347  function removeFromWhitelist(address account) external onlyOwner {... */\n    tag_22:\n        /* \"@openzeppelin/contracts/access/Ownable.sol\":1094:1107  _checkOwner() */\n      tag_49\n        /* \"@openzeppelin/contracts/access/Ownable.sol\":1094:1105  _checkOwner */\n      tag_44\n        /* \"@openzeppelin/contracts/access/Ownable.sol\":1094:1107  _checkOwner() */\n      jump\t// in\n    tag_49:\n        /* \"contracts/Whitelist.sol\":1269:1278  whitelist */\n      0x01\n        /* \"contracts/Whitelist.sol\":1269:1287  whitelist[account] */\n      0x00\n        /* \"contracts/Whitelist.sol\":1279:1286  account */\n      dup3\n        /* \"contracts/Whitelist.sol\":1269:1287  whitelist[account] */\n      0xffffffffffffffffffffffffffffffffffffffff\n      and\n      0xffffffffffffffffffffffffffffffffffffffff\n      and\n      dup2\n      mstore\n      0x20\n      add\n      swap1\n      dup2\n      mstore\n      0x20\n      add\n      0x00\n      keccak256\n      0x00\n        /* \"contracts/Whitelist.sol\":1262:1287  delete whitelist[account] */\n      0x0100\n      exp\n      dup2\n      sload\n      swap1\n      0xff\n      mul\n      not\n      and\n      swap1\n      sstore\n        /* \"contracts/Whitelist.sol\":1331:1338  account */\n      dup1\n        /* \"contracts/Whitelist.sol\":1303:1339  AddressRemovedFromWhitelist(account) */\n      0xffffffffffffffffffffffffffffffffffffffff\n      and\n      0x535611fb62fa2a833988f283b779e417e996813e44046f521d76c17b5943b08c\n      mload(0x40)\n      mload(0x40)\n      dup1\n      swap2\n      sub\n      swap1\n      log2\n        /* \"contracts/Whitelist.sol\":1186:1347  function removeFromWhitelist(address account) external onlyOwner {... */\n      pop\n      jump\t// out\n        /* \"@openzeppelin/contracts/access/Ownable.sol\":1201:1286  function owner() public view virtual returns (address) {... */\n    tag_24:\n        /* \"@openzeppelin/contracts/access/Ownable.sol\":1247:1254  address */\n      0x00\n        /* \"@openzeppelin/contracts/access/Ownable.sol\":1273:1279  _owner */\n      dup1\n      0x00\n      swap1\n      sload\n      swap1\n      0x0100\n      exp\n      swap1\n      div\n      0xffffffffffffffffffffffffffffffffffffffff\n      and\n        /* \"@openzeppelin/contracts/access/Ownable.sol\":1266:1279  return _owner */\n      swap1\n      pop\n        /* \"@openzeppelin/contracts/access/Ownable.sol\":1201:1286  function owner() public view virtual returns (address) {... */\n      swap1\n      jump\t// out\n        /* \"contracts/Whitelist.sol\":153:194  mapping(address => bool) public whitelist */\n    tag_29:\n      mstore(0x20, 0x01)\n      dup1\n      0x00\n      mstore\n      keccak256(0x00, 0x40)\n      0x00\n      swap2\n      pop\n      sload\n      swap1\n      0x0100\n      exp\n      swap1\n      div\n      0xff\n      and\n      dup2\n      jump\t// out\n        /* \"contracts/Whitelist.sol\":1028:1178  function addToWhitelist(address account) public onlyOwner {... */\n    tag_33:\n        /* \"@openzeppelin/contracts/access/Ownable.sol\":1094:1107  _checkOwner() */\n      tag_53\n        /* \"@openzeppelin/contracts/access/Ownable.sol\":1094:1105  _checkOwner */\n      tag_44\n        /* \"@openzeppelin/contracts/access/Ownable.sol\":1094:1107  _checkOwner() */\n      jump\t// in\n    tag_53:\n        /* \"contracts/Whitelist.sol\":1118:1122  true */\n      0x01\n        /* \"contracts/Whitelist.sol\":1097:1106  whitelist */\n      dup1\n        /* \"contracts/Whitelist.sol\":1097:1115  whitelist[account] */\n      0x00\n        /* \"contracts/Whitelist.sol\":1107:1114  account */\n      dup4\n        /* \"contracts/Whitelist.sol\":1097:1115  whitelist[account] */\n      0xffffffffffffffffffffffffffffffffffffffff\n      and\n      0xffffffffffffffffffffffffffffffffffffffff\n      and\n      dup2\n      mstore\n      0x20\n      add\n      swap1\n      dup2\n      mstore\n      0x20\n      add\n      0x00\n      keccak256\n      0x00\n        /* \"contracts/Whitelist.sol\":1097:1122  whitelist[account] = true */\n      0x0100\n      exp\n      dup2\n      sload\n      dup2\n      0xff\n      mul\n      not\n      and\n      swap1\n      dup4\n      iszero\n      iszero\n      mul\n      or\n      swap1\n      sstore\n      pop\n        /* \"contracts/Whitelist.sol\":1162:1169  account */\n      dup1\n        /* \"contracts/Whitelist.sol\":1138:1170  AddressAddedToWhitelist(account) */\n      0xffffffffffffffffffffffffffffffffffffffff\n      and\n      0x534d18c8ff24ba5980906d732f3075704749427353734fbbf05d50485643b124\n      mload(0x40)\n      mload(0x40)\n      dup1\n      swap2\n      sub\n      swap1\n      log2\n        /* \"contracts/Whitelist.sol\":1028:1178  function addToWhitelist(address account) public onlyOwner {... */\n      pop\n      jump\t// out\n        /* \"@openzeppelin/contracts/access/Ownable.sol\":2074:2272  function transferOwnership(address newOwner) public virtual onlyOwner {... */\n    tag_36:\n        /* \"@openzeppelin/contracts/access/Ownable.sol\":1094:1107  _checkOwner() */\n      tag_56\n        /* \"@openzeppelin/contracts/access/Ownable.sol\":1094:1105  _checkOwner */\n      tag_44\n        /* \"@openzeppelin/contracts/access/Ownable.sol\":1094:1107  _checkOwner() */\n      jump\t// in\n    tag_56:\n        /* \"@openzeppelin/contracts/access/Ownable.sol\":2182:2183  0 */\n      0x00\n        /* \"@openzeppelin/contracts/access/Ownable.sol\":2162:2184  newOwner != address(0) */\n      0xffffffffffffffffffffffffffffffffffffffff\n      and\n        /* \"@openzeppelin/contracts/access/Ownable.sol\":2162:2170  newOwner */\n      dup2\n        /* \"@openzeppelin/contracts/access/Ownable.sol\":2162:2184  newOwner != address(0) */\n      0xffffffffffffffffffffffffffffffffffffffff\n      and\n      eq\n      iszero\n        /* \"@openzeppelin/contracts/access/Ownable.sol\":2154:2227  require(newOwner != address(0), \"Ownable: new owner is the zero address\") */\n      tag_58\n      jumpi\n      mload(0x40)\n      0x08c379a000000000000000000000000000000000000000000000000000000000\n      dup2\n      mstore\n      0x04\n      add\n      tag_59\n      swap1\n      tag_60\n      jump\t// in\n    tag_59:\n      mload(0x40)\n      dup1\n      swap2\n      sub\n      swap1\n      revert\n    tag_58:\n        /* \"@openzeppelin/contracts/access/Ownable.sol\":2237:2265  _transferOwnership(newOwner) */\n      tag_61\n        /* \"@openzeppelin/contracts/access/Ownable.sol\":2256:2264  newOwner */\n      dup2\n        /* \"@openzeppelin/contracts/access/Ownable.sol\":2237:2255  _transferOwnership */\n      tag_47\n        /* \"@openzeppelin/contracts/access/Ownable.sol\":2237:2265  _transferOwnership(newOwner) */\n      jump\t// in\n    tag_61:\n        /* \"@openzeppelin/contracts/access/Ownable.sol\":2074:2272  function transferOwnership(address newOwner) public virtual onlyOwner {... */\n      pop\n      jump\t// out\n        /* \"contracts/Whitelist.sol\":331:1020  function addAddressesToWhitelist(... */\n    tag_40:\n        /* \"@openzeppelin/contracts/access/Ownable.sol\":1094:1107  _checkOwner() */\n      tag_63\n        /* \"@openzeppelin/contracts/access/Ownable.sol\":1094:1105  _checkOwner */\n      tag_44\n        /* \"@openzeppelin/contracts/access/Ownable.sol\":1094:1107  _checkOwner() */\n      jump\t// in\n    tag_63:\n        /* \"contracts/Whitelist.sol\":672:696  addToWhitelist(account1) */\n      tag_65\n        /* \"contracts/Whitelist.sol\":687:695  account1 */\n      dup11\n        /* \"contracts/Whitelist.sol\":672:686  addToWhitelist */\n      tag_33\n        /* \"contracts/Whitelist.sol\":672:696  addToWhitelist(account1) */\n      jump\t// in\n    tag_65:\n        /* \"contracts/Whitelist.sol\":707:731  addToWhitelist(account2) */\n      tag_66\n        /* \"contracts/Whitelist.sol\":722:730  account2 */\n      dup10\n        /* \"contracts/Whitelist.sol\":707:721  addToWhitelist */\n      tag_33\n        /* \"contracts/Whitelist.sol\":707:731  addToWhitelist(account2) */\n      jump\t// in\n    tag_66:\n        /* \"contracts/Whitelist.sol\":742:766  addToWhitelist(account3) */\n      tag_67\n        /* \"contracts/Whitelist.sol\":757:765  account3 */\n      dup9\n        /* \"contracts/Whitelist.sol\":742:756  addToWhitelist */\n      tag_33\n        /* \"contracts/Whitelist.sol\":742:766  addToWhitelist(account3) */\n      jump\t// in\n    tag_67:\n        /* \"contracts/Whitelist.sol\":777:801  addToWhitelist(account4) */\n      tag_68\n        /* \"contracts/Whitelist.sol\":792:800  account4 */\n      dup8\n        /* \"contracts/Whitelist.sol\":777:791  addToWhitelist */\n      tag_33\n        /* \"contracts/Whitelist.sol\":777:801  addToWhitelist(account4) */\n      jump\t// in\n    tag_68:\n        /* \"contracts/Whitelist.sol\":812:836  addToWhitelist(account5) */\n      tag_69\n        /* \"contracts/Whitelist.sol\":827:835  account5 */\n      dup7\n        /* \"contracts/Whitelist.sol\":812:826  addToWhitelist */\n      tag_33\n        /* \"contracts/Whitelist.sol\":812:836  addToWhitelist(account5) */\n      jump\t// in\n    tag_69:\n        /* \"contracts/Whitelist.sol\":847:871  addToWhitelist(account6) */\n      tag_70\n        /* \"contracts/Whitelist.sol\":862:870  account6 */\n      dup6\n        /* \"contracts/Whitelist.sol\":847:861  addToWhitelist */\n      tag_33\n        /* \"contracts/Whitelist.sol\":847:871  addToWhitelist(account6) */\n      jump\t// in\n    tag_70:\n        /* \"contracts/Whitelist.sol\":882:906  addToWhitelist(account7) */\n      tag_71\n        /* \"contracts/Whitelist.sol\":897:905  account7 */\n      dup5\n        /* \"contracts/Whitelist.sol\":882:896  addToWhitelist */\n      tag_33\n        /* \"contracts/Whitelist.sol\":882:906  addToWhitelist(account7) */\n      jump\t// in\n    tag_71:\n        /* \"contracts/Whitelist.sol\":917:941  addToWhitelist(account8) */\n      tag_72\n        /* \"contracts/Whitelist.sol\":932:940  account8 */\n      dup4\n        /* \"contracts/Whitelist.sol\":917:931  addToWhitelist */\n      tag_33\n        /* \"contracts/Whitelist.sol\":917:941  addToWhitelist(account8) */\n      jump\t// in\n    tag_72:\n        /* \"contracts/Whitelist.sol\":952:976  addToWhitelist(account9) */\n      tag_73\n        /* \"contracts/Whitelist.sol\":967:975  account9 */\n      dup3\n        /* \"contracts/Whitelist.sol\":952:966  addToWhitelist */\n      tag_33\n        /* \"contracts/Whitelist.sol\":952:976  addToWhitelist(account9) */\n      jump\t// in\n    tag_73:\n        /* \"contracts/Whitelist.sol\":987:1012  addToWhitelist(account10) */\n      tag_74\n        /* \"contracts/Whitelist.sol\":1002:1011  account10 */\n      dup2\n        /* \"contracts/Whitelist.sol\":987:1001  addToWhitelist */\n      tag_33\n        /* \"contracts/Whitelist.sol\":987:1012  addToWhitelist(account10) */\n      jump\t// in\n    tag_74:\n        /* \"contracts/Whitelist.sol\":331:1020  function addAddressesToWhitelist(... */\n      pop\n      pop\n      pop\n      pop\n      pop\n      pop\n      pop\n      pop\n      pop\n      pop\n      jump\t// out\n        /* \"@openzeppelin/contracts/access/Ownable.sol\":1359:1489  function _checkOwner() internal view virtual {... */\n    tag_44:\n        /* \"@openzeppelin/contracts/access/Ownable.sol\":1433:1445  _msgSender() */\n      tag_76\n        /* \"@openzeppelin/contracts/access/Ownable.sol\":1433:1443  _msgSender */\n      tag_77\n        /* \"@openzeppelin/contracts/access/Ownable.sol\":1433:1445  _msgSender() */\n      jump\t// in\n    tag_76:\n        /* \"@openzeppelin/contracts/access/Ownable.sol\":1422:1445  owner() == _msgSender() */\n      0xffffffffffffffffffffffffffffffffffffffff\n      and\n        /* \"@openzeppelin/contracts/access/Ownable.sol\":1422:1429  owner() */\n      tag_78\n        /* \"@openzeppelin/contracts/access/Ownable.sol\":1422:1427  owner */\n      tag_24\n        /* \"@openzeppelin/contracts/access/Ownable.sol\":1422:1429  owner() */\n      jump\t// in\n    tag_78:\n        /* \"@openzeppelin/contracts/access/Ownable.sol\":1422:1445  owner() == _msgSender() */\n      0xffffffffffffffffffffffffffffffffffffffff\n      and\n      eq\n        /* \"@openzeppelin/contracts/access/Ownable.sol\":1414:1482  require(owner() == _msgSender(), \"Ownable: caller is not the owner\") */\n      tag_79\n      jumpi\n      mload(0x40)\n      0x08c379a000000000000000000000000000000000000000000000000000000000\n      dup2\n      mstore\n      0x04\n      add\n      tag_80\n      swap1\n      tag_81\n      jump\t// in\n    tag_80:\n      mload(0x40)\n      dup1\n      swap2\n      sub\n      swap1\n      revert\n    tag_79:\n        /* \"@openzeppelin/contracts/access/Ownable.sol\":1359:1489  function _checkOwner() internal view virtual {... */\n      jump\t// out\n        /* \"@openzeppelin/contracts/access/Ownable.sol\":2426:2613  function _transferOwnership(address newOwner) internal virtual {... */\n    tag_47:\n        /* \"@openzeppelin/contracts/access/Ownable.sol\":2499:2515  address oldOwner */\n      0x00\n        /* \"@openzeppelin/contracts/access/Ownable.sol\":2518:2524  _owner */\n      dup1\n      0x00\n      swap1\n      sload\n      swap1\n      0x0100\n      exp\n      swap1\n      div\n      0xffffffffffffffffffffffffffffffffffffffff\n      and\n        /* \"@openzeppelin/contracts/access/Ownable.sol\":2499:2524  address oldOwner = _owner */\n      swap1\n      pop\n        /* \"@openzeppelin/contracts/access/Ownable.sol\":2543:2551  newOwner */\n      dup2\n        /* \"@openzeppelin/contracts/access/Ownable.sol\":2534:2540  _owner */\n      0x00\n      dup1\n        /* \"@openzeppelin/contracts/access/Ownable.sol\":2534:2551  _owner = newOwner */\n      0x0100\n      exp\n      dup2\n      sload\n      dup2\n      0xffffffffffffffffffffffffffffffffffffffff\n      mul\n      not\n      and\n      swap1\n      dup4\n      0xffffffffffffffffffffffffffffffffffffffff\n      and\n      mul\n      or\n      swap1\n      sstore\n      pop\n        /* \"@openzeppelin/contracts/access/Ownable.sol\":2597:2605  newOwner */\n      dup2\n        /* \"@openzeppelin/contracts/access/Ownable.sol\":2566:2606  OwnershipTransferred(oldOwner, newOwner) */\n      0xffffffffffffffffffffffffffffffffffffffff\n      and\n        /* \"@openzeppelin/contracts/access/Ownable.sol\":2587:2595  oldOwner */\n      dup2\n        /* \"@openzeppelin/contracts/access/Ownable.sol\":2566:2606  OwnershipTransferred(oldOwner, newOwner) */\n      0xffffffffffffffffffffffffffffffffffffffff\n      and\n      0x8be0079c531659141344cd1fd0a4f28419497f9722a3daafe3b4186f6b6457e0\n      mload(0x40)\n      mload(0x40)\n      dup1\n      swap2\n      sub\n      swap1\n      log3\n        /* \"@openzeppelin/contracts/access/Ownable.sol\":2489:2613  {... */\n      pop\n        /* \"@openzeppelin/contracts/access/Ownable.sol\":2426:2613  function _transferOwnership(address newOwner) internal virtual {... */\n      pop\n      jump\t// out\n        /* \"@openzeppelin/contracts/utils/Context.sol\":640:736  function _msgSender() internal view virtual returns (address) {... */\n    tag_77:\n        /* \"@openzeppelin/contracts/utils/Context.sol\":693:700  address */\n      0x00\n        /* \"@openzeppelin/contracts/utils/Context.sol\":719:729  msg.sender */\n      caller\n        /* \"@openzeppelin/contracts/utils/Context.sol\":712:729  return msg.sender */\n      swap1\n      pop\n        /* \"@openzeppelin/contracts/utils/Context.sol\":640:736  function _msgSender() internal view virtual returns (address) {... */\n      swap1\n      jump\t// out\n        /* \"#utility.yul\":88:205   */\n    tag_85:\n        /* \"#utility.yul\":197:198   */\n      0x00\n        /* \"#utility.yul\":194:195   */\n      dup1\n        /* \"#utility.yul\":187:199   */\n      revert\n        /* \"#utility.yul\":334:460   */\n    tag_87:\n        /* \"#utility.yul\":371:378   */\n      0x00\n        /* \"#utility.yul\":411:453   */\n      0xffffffffffffffffffffffffffffffffffffffff\n        /* \"#utility.yul\":404:409   */\n      dup3\n        /* \"#utility.yul\":400:454   */\n      and\n        /* \"#utility.yul\":389:454   */\n      swap1\n      pop\n        /* \"#utility.yul\":334:460   */\n      swap2\n      swap1\n      pop\n      jump\t// out\n        /* \"#utility.yul\":466:562   */\n    tag_88:\n        /* \"#utility.yul\":503:510   */\n      0x00\n        /* \"#utility.yul\":532:556   */\n      tag_105\n        /* \"#utility.yul\":550:555   */\n      dup3\n        /* \"#utility.yul\":532:556   */\n      tag_87\n      jump\t// in\n    tag_105:\n        /* \"#utility.yul\":521:556   */\n      swap1\n      pop\n        /* \"#utility.yul\":466:562   */\n      swap2\n      swap1\n      pop\n      jump\t// out\n        /* \"#utility.yul\":568:690   */\n    tag_89:\n        /* \"#utility.yul\":641:665   */\n      tag_107\n        /* \"#utility.yul\":659:664   */\n      dup2\n        /* \"#utility.yul\":641:665   */\n      tag_88\n      jump\t// in\n    tag_107:\n        /* \"#utility.yul\":634:639   */\n      dup2\n        /* \"#utility.yul\":631:666   */\n      eq\n        /* \"#utility.yul\":621:684   */\n      tag_108\n      jumpi\n        /* \"#utility.yul\":680:681   */\n      0x00\n        /* \"#utility.yul\":677:678   */\n      dup1\n        /* \"#utility.yul\":670:682   */\n      revert\n        /* \"#utility.yul\":621:684   */\n    tag_108:\n        /* \"#utility.yul\":568:690   */\n      pop\n      jump\t// out\n        /* \"#utility.yul\":696:835   */\n    tag_90:\n        /* \"#utility.yul\":742:747   */\n      0x00\n        /* \"#utility.yul\":780:786   */\n      dup2\n        /* \"#utility.yul\":767:787   */\n      calldataload\n        /* \"#utility.yul\":758:787   */\n      swap1\n      pop\n        /* \"#utility.yul\":796:829   */\n      tag_110\n        /* \"#utility.yul\":823:828   */\n      dup2\n        /* \"#utility.yul\":796:829   */\n      tag_89\n      jump\t// in\n    tag_110:\n        /* \"#utility.yul\":696:835   */\n      swap3\n      swap2\n      pop\n      pop\n      jump\t// out\n        /* \"#utility.yul\":841:1170   */\n    tag_14:\n        /* \"#utility.yul\":900:906   */\n      0x00\n        /* \"#utility.yul\":949:951   */\n      0x20\n        /* \"#utility.yul\":937:946   */\n      dup3\n        /* \"#utility.yul\":928:935   */\n      dup5\n        /* \"#utility.yul\":924:947   */\n      sub\n        /* \"#utility.yul\":920:952   */\n      slt\n        /* \"#utility.yul\":917:1036   */\n      iszero\n      tag_112\n      jumpi\n        /* \"#utility.yul\":955:1034   */\n      tag_113\n      tag_85\n      jump\t// in\n    tag_113:\n        /* \"#utility.yul\":917:1036   */\n    tag_112:\n        /* \"#utility.yul\":1075:1076   */\n      0x00\n        /* \"#utility.yul\":1100:1153   */\n      tag_114\n        /* \"#utility.yul\":1145:1152   */\n      dup5\n        /* \"#utility.yul\":1136:1142   */\n      dup3\n        /* \"#utility.yul\":1125:1134   */\n      dup6\n        /* \"#utility.yul\":1121:1143   */\n      add\n        /* \"#utility.yul\":1100:1153   */\n      tag_90\n      jump\t// in\n    tag_114:\n        /* \"#utility.yul\":1090:1153   */\n      swap2\n      pop\n        /* \"#utility.yul\":1046:1163   */\n      pop\n        /* \"#utility.yul\":841:1170   */\n      swap3\n      swap2\n      pop\n      pop\n      jump\t// out\n        /* \"#utility.yul\":1176:1266   */\n    tag_91:\n        /* \"#utility.yul\":1210:1217   */\n      0x00\n        /* \"#utility.yul\":1253:1258   */\n      dup2\n        /* \"#utility.yul\":1246:1259   */\n      iszero\n        /* \"#utility.yul\":1239:1260   */\n      iszero\n        /* \"#utility.yul\":1228:1260   */\n      swap1\n      pop\n        /* \"#utility.yul\":1176:1266   */\n      swap2\n      swap1\n      pop\n      jump\t// out\n        /* \"#utility.yul\":1272:1381   */\n    tag_92:\n        /* \"#utility.yul\":1353:1374   */\n      tag_117\n        /* \"#utility.yul\":1368:1373   */\n      dup2\n        /* \"#utility.yul\":1353:1374   */\n      tag_91\n      jump\t// in\n    tag_117:\n        /* \"#utility.yul\":1348:1351   */\n      dup3\n        /* \"#utility.yul\":1341:1375   */\n      mstore\n        /* \"#utility.yul\":1272:1381   */\n      pop\n      pop\n      jump\t// out\n        /* \"#utility.yul\":1387:1597   */\n    tag_17:\n        /* \"#utility.yul\":1474:1478   */\n      0x00\n        /* \"#utility.yul\":1512:1514   */\n      0x20\n        /* \"#utility.yul\":1501:1510   */\n      dup3\n        /* \"#utility.yul\":1497:1515   */\n      add\n        /* \"#utility.yul\":1489:1515   */\n      swap1\n      pop\n        /* \"#utility.yul\":1525:1590   */\n      tag_119\n        /* \"#utility.yul\":1587:1588   */\n      0x00\n        /* \"#utility.yul\":1576:1585   */\n      dup4\n        /* \"#utility.yul\":1572:1589   */\n      add\n        /* \"#utility.yul\":1563:1569   */\n      dup5\n        /* \"#utility.yul\":1525:1590   */\n      tag_92\n      jump\t// in\n    tag_119:\n        /* \"#utility.yul\":1387:1597   */\n      swap3\n      swap2\n      pop\n      pop\n      jump\t// out\n        /* \"#utility.yul\":1603:1721   */\n    tag_93:\n        /* \"#utility.yul\":1690:1714   */\n      tag_121\n        /* \"#utility.yul\":1708:1713   */\n      dup2\n        /* \"#utility.yul\":1690:1714   */\n      tag_88\n      jump\t// in\n    tag_121:\n        /* \"#utility.yul\":1685:1688   */\n      dup3\n        /* \"#utility.yul\":1678:1715   */\n      mstore\n        /* \"#utility.yul\":1603:1721   */\n      pop\n      pop\n      jump\t// out\n        /* \"#utility.yul\":1727:1949   */\n    tag_26:\n        /* \"#utility.yul\":1820:1824   */\n      0x00\n        /* \"#utility.yul\":1858:1860   */\n      0x20\n        /* \"#utility.yul\":1847:1856   */\n      dup3\n        /* \"#utility.yul\":1843:1861   */\n      add\n        /* \"#utility.yul\":1835:1861   */\n      swap1\n      pop\n        /* \"#utility.yul\":1871:1942   */\n      tag_123\n        /* \"#utility.yul\":1939:1940   */\n      0x00\n        /* \"#utility.yul\":1928:1937   */\n      dup4\n        /* \"#utility.yul\":1924:1941   */\n      add\n        /* \"#utility.yul\":1915:1921   */\n      dup5\n        /* \"#utility.yul\":1871:1942   */\n      tag_93\n      jump\t// in\n    tag_123:\n        /* \"#utility.yul\":1727:1949   */\n      swap3\n      swap2\n      pop\n      pop\n      jump\t// out\n        /* \"#utility.yul\":1955:3596   */\n    tag_39:\n        /* \"#utility.yul\":2095:2101   */\n      0x00\n        /* \"#utility.yul\":2103:2109   */\n      dup1\n        /* \"#utility.yul\":2111:2117   */\n      0x00\n        /* \"#utility.yul\":2119:2125   */\n      dup1\n        /* \"#utility.yul\":2127:2133   */\n      0x00\n        /* \"#utility.yul\":2135:2141   */\n      dup1\n        /* \"#utility.yul\":2143:2149   */\n      0x00\n        /* \"#utility.yul\":2151:2157   */\n      dup1\n        /* \"#utility.yul\":2159:2165   */\n      0x00\n        /* \"#utility.yul\":2167:2173   */\n      dup1\n        /* \"#utility.yul\":2216:2219   */\n      0x0140\n        /* \"#utility.yul\":2204:2213   */\n      dup12\n        /* \"#utility.yul\":2195:2202   */\n      dup14\n        /* \"#utility.yul\":2191:2214   */\n      sub\n        /* \"#utility.yul\":2187:2220   */\n      slt\n        /* \"#utility.yul\":2184:2304   */\n      iszero\n      tag_125\n      jumpi\n        /* \"#utility.yul\":2223:2302   */\n      tag_126\n      tag_85\n      jump\t// in\n    tag_126:\n        /* \"#utility.yul\":2184:2304   */\n    tag_125:\n        /* \"#utility.yul\":2343:2344   */\n      0x00\n        /* \"#utility.yul\":2368:2421   */\n      tag_127\n        /* \"#utility.yul\":2413:2420   */\n      dup14\n        /* \"#utility.yul\":2404:2410   */\n      dup3\n        /* \"#utility.yul\":2393:2402   */\n      dup15\n        /* \"#utility.yul\":2389:2411   */\n      add\n        /* \"#utility.yul\":2368:2421   */\n      tag_90\n      jump\t// in\n    tag_127:\n        /* \"#utility.yul\":2358:2421   */\n      swap11\n      pop\n        /* \"#utility.yul\":2314:2431   */\n      pop\n        /* \"#utility.yul\":2470:2472   */\n      0x20\n        /* \"#utility.yul\":2496:2549   */\n      tag_128\n        /* \"#utility.yul\":2541:2548   */\n      dup14\n        /* \"#utility.yul\":2532:2538   */\n      dup3\n        /* \"#utility.yul\":2521:2530   */\n      dup15\n        /* \"#utility.yul\":2517:2539   */\n      add\n        /* \"#utility.yul\":2496:2549   */\n      tag_90\n      jump\t// in\n    tag_128:\n        /* \"#utility.yul\":2486:2549   */\n      swap10\n      pop\n        /* \"#utility.yul\":2441:2559   */\n      pop\n        /* \"#utility.yul\":2598:2600   */\n      0x40\n        /* \"#utility.yul\":2624:2677   */\n      tag_129\n        /* \"#utility.yul\":2669:2676   */\n      dup14\n        /* \"#utility.yul\":2660:2666   */\n      dup3\n        /* \"#utility.yul\":2649:2658   */\n      dup15\n        /* \"#utility.yul\":2645:2667   */\n      add\n        /* \"#utility.yul\":2624:2677   */\n      tag_90\n      jump\t// in\n    tag_129:\n        /* \"#utility.yul\":2614:2677   */\n      swap9\n      pop\n        /* \"#utility.yul\":2569:2687   */\n      pop\n        /* \"#utility.yul\":2726:2728   */\n      0x60\n        /* \"#utility.yul\":2752:2805   */\n      tag_130\n        /* \"#utility.yul\":2797:2804   */\n      dup14\n        /* \"#utility.yul\":2788:2794   */\n      dup3\n        /* \"#utility.yul\":2777:2786   */\n      dup15\n        /* \"#utility.yul\":2773:2795   */\n      add\n        /* \"#utility.yul\":2752:2805   */\n      tag_90\n      jump\t// in\n    tag_130:\n        /* \"#utility.yul\":2742:2805   */\n      swap8\n      pop\n        /* \"#utility.yul\":2697:2815   */\n      pop\n        /* \"#utility.yul\":2854:2857   */\n      0x80\n        /* \"#utility.yul\":2881:2934   */\n      tag_131\n        /* \"#utility.yul\":2926:2933   */\n      dup14\n        /* \"#utility.yul\":2917:2923   */\n      dup3\n        /* \"#utility.yul\":2906:2915   */\n      dup15\n        /* \"#utility.yul\":2902:2924   */\n      add\n        /* \"#utility.yul\":2881:2934   */\n      tag_90\n      jump\t// in\n    tag_131:\n        /* \"#utility.yul\":2871:2934   */\n      swap7\n      pop\n        /* \"#utility.yul\":2825:2944   */\n      pop\n        /* \"#utility.yul\":2983:2986   */\n      0xa0\n        /* \"#utility.yul\":3010:3063   */\n      tag_132\n        /* \"#utility.yul\":3055:3062   */\n      dup14\n        /* \"#utility.yul\":3046:3052   */\n      dup3\n        /* \"#utility.yul\":3035:3044   */\n      dup15\n        /* \"#utility.yul\":3031:3053   */\n      add\n        /* \"#utility.yul\":3010:3063   */\n      tag_90\n      jump\t// in\n    tag_132:\n        /* \"#utility.yul\":3000:3063   */\n      swap6\n      pop\n        /* \"#utility.yul\":2954:3073   */\n      pop\n        /* \"#utility.yul\":3112:3115   */\n      0xc0\n        /* \"#utility.yul\":3139:3192   */\n      tag_133\n        /* \"#utility.yul\":3184:3191   */\n      dup14\n        /* \"#utility.yul\":3175:3181   */\n      dup3\n        /* \"#utility.yul\":3164:3173   */\n      dup15\n        /* \"#utility.yul\":3160:3182   */\n      add\n        /* \"#utility.yul\":3139:3192   */\n      tag_90\n      jump\t// in\n    tag_133:\n        /* \"#utility.yul\":3129:3192   */\n      swap5\n      pop\n        /* \"#utility.yul\":3083:3202   */\n      pop\n        /* \"#utility.yul\":3241:3244   */\n      0xe0\n        /* \"#utility.yul\":3268:3321   */\n      tag_134\n        /* \"#utility.yul\":3313:3320   */\n      dup14\n        /* \"#utility.yul\":3304:3310   */\n      dup3\n        /* \"#utility.yul\":3293:3302   */\n      dup15\n        /* \"#utility.yul\":3289:3311   */\n      add\n        /* \"#utility.yul\":3268:3321   */\n      tag_90\n      jump\t// in\n    tag_134:\n        /* \"#utility.yul\":3258:3321   */\n      swap4\n      pop\n        /* \"#utility.yul\":3212:3331   */\n      pop\n        /* \"#utility.yul\":3370:3373   */\n      0x0100\n        /* \"#utility.yul\":3397:3450   */\n      tag_135\n        /* \"#utility.yul\":3442:3449   */\n      dup14\n        /* \"#utility.yul\":3433:3439   */\n      dup3\n        /* \"#utility.yul\":3422:3431   */\n      dup15\n        /* \"#utility.yul\":3418:3440   */\n      add\n        /* \"#utility.yul\":3397:3450   */\n      tag_90\n      jump\t// in\n    tag_135:\n        /* \"#utility.yul\":3387:3450   */\n      swap3\n      pop\n        /* \"#utility.yul\":3341:3460   */\n      pop\n        /* \"#utility.yul\":3499:3502   */\n      0x0120\n        /* \"#utility.yul\":3526:3579   */\n      tag_136\n        /* \"#utility.yul\":3571:3578   */\n      dup14\n        /* \"#utility.yul\":3562:3568   */\n      dup3\n        /* \"#utility.yul\":3551:3560   */\n      dup15\n        /* \"#utility.yul\":3547:3569   */\n      add\n        /* \"#utility.yul\":3526:3579   */\n      tag_90\n      jump\t// in\n    tag_136:\n        /* \"#utility.yul\":3516:3579   */\n      swap2\n      pop\n        /* \"#utility.yul\":3470:3589   */\n      pop\n        /* \"#utility.yul\":1955:3596   */\n      swap3\n      swap6\n      swap9\n      swap12\n      swap2\n      swap5\n      swap8\n      swap11\n      pop\n      swap3\n      swap6\n      swap9\n      pop\n      jump\t// out\n        /* \"#utility.yul\":3602:3771   */\n    tag_94:\n        /* \"#utility.yul\":3686:3697   */\n      0x00\n        /* \"#utility.yul\":3720:3726   */\n      dup3\n        /* \"#utility.yul\":3715:3718   */\n      dup3\n        /* \"#utility.yul\":3708:3727   */\n      mstore\n        /* \"#utility.yul\":3760:3764   */\n      0x20\n        /* \"#utility.yul\":3755:3758   */\n      dup3\n        /* \"#utility.yul\":3751:3765   */\n      add\n        /* \"#utility.yul\":3736:3765   */\n      swap1\n      pop\n        /* \"#utility.yul\":3602:3771   */\n      swap3\n      swap2\n      pop\n      pop\n      jump\t// out\n        /* \"#utility.yul\":3777:4002   */\n    tag_95:\n        /* \"#utility.yul\":3917:3951   */\n      0x4f776e61626c653a206e6577206f776e657220697320746865207a65726f2061\n        /* \"#utility.yul\":3913:3914   */\n      0x00\n        /* \"#utility.yul\":3905:3911   */\n      dup3\n        /* \"#utility.yul\":3901:3915   */\n      add\n        /* \"#utility.yul\":3894:3952   */\n      mstore\n        /* \"#utility.yul\":3986:3994   */\n      0x6464726573730000000000000000000000000000000000000000000000000000\n        /* \"#utility.yul\":3981:3983   */\n      0x20\n        /* \"#utility.yul\":3973:3979   */\n      dup3\n        /* \"#utility.yul\":3969:3984   */\n      add\n        /* \"#utility.yul\":3962:3995   */\n      mstore\n        /* \"#utility.yul\":3777:4002   */\n      pop\n      jump\t// out\n        /* \"#utility.yul\":4008:4374   */\n    tag_96:\n        /* \"#utility.yul\":4150:4153   */\n      0x00\n        /* \"#utility.yul\":4171:4238   */\n      tag_140\n        /* \"#utility.yul\":4235:4237   */\n      0x26\n        /* \"#utility.yul\":4230:4233   */\n      dup4\n        /* \"#utility.yul\":4171:4238   */\n      tag_94\n      jump\t// in\n    tag_140:\n        /* \"#utility.yul\":4164:4238   */\n      swap2\n      pop\n        /* \"#utility.yul\":4247:4340   */\n      tag_141\n        /* \"#utility.yul\":4336:4339   */\n      dup3\n        /* \"#utility.yul\":4247:4340   */\n      tag_95\n      jump\t// in\n    tag_141:\n        /* \"#utility.yul\":4365:4367   */\n      0x40\n        /* \"#utility.yul\":4360:4363   */\n      dup3\n        /* \"#utility.yul\":4356:4368   */\n      add\n        /* \"#utility.yul\":4349:4368   */\n      swap1\n      pop\n        /* \"#utility.yul\":4008:4374   */\n      swap2\n      swap1\n      pop\n      jump\t// out\n        /* \"#utility.yul\":4380:4799   */\n    tag_60:\n        /* \"#utility.yul\":4546:4550   */\n      0x00\n        /* \"#utility.yul\":4584:4586   */\n      0x20\n        /* \"#utility.yul\":4573:4582   */\n      dup3\n        /* \"#utility.yul\":4569:4587   */\n      add\n        /* \"#utility.yul\":4561:4587   */\n      swap1\n      pop\n        /* \"#utility.yul\":4633:4642   */\n      dup2\n        /* \"#utility.yul\":4627:4631   */\n      dup2\n        /* \"#utility.yul\":4623:4643   */\n      sub\n        /* \"#utility.yul\":4619:4620   */\n      0x00\n        /* \"#utility.yul\":4608:4617   */\n      dup4\n        /* \"#utility.yul\":4604:4621   */\n      add\n        /* \"#utility.yul\":4597:4644   */\n      mstore\n        /* \"#utility.yul\":4661:4792   */\n      tag_143\n        /* \"#utility.yul\":4787:4791   */\n      dup2\n        /* \"#utility.yul\":4661:4792   */\n      tag_96\n      jump\t// in\n    tag_143:\n        /* \"#utility.yul\":4653:4792   */\n      swap1\n      pop\n        /* \"#utility.yul\":4380:4799   */\n      swap2\n      swap1\n      pop\n      jump\t// out\n        /* \"#utility.yul\":4805:4987   */\n    tag_97:\n        /* \"#utility.yul\":4945:4979   */\n      0x4f776e61626c653a2063616c6c6572206973206e6f7420746865206f776e6572\n        /* \"#utility.yul\":4941:4942   */\n      0x00\n        /* \"#utility.yul\":4933:4939   */\n      dup3\n        /* \"#utility.yul\":4929:4943   */\n      add\n        /* \"#utility.yul\":4922:4980   */\n      mstore\n        /* \"#utility.yul\":4805:4987   */\n      pop\n      jump\t// out\n        /* \"#utility.yul\":4993:5359   */\n    tag_98:\n        /* \"#utility.yul\":5135:5138   */\n      0x00\n        /* \"#utility.yul\":5156:5223   */\n      tag_146\n        /* \"#utility.yul\":5220:5222   */\n      0x20\n        /* \"#utility.yul\":5215:5218   */\n      dup4\n        /* \"#utility.yul\":5156:5223   */\n      tag_94\n      jump\t// in\n    tag_146:\n        /* \"#utility.yul\":5149:5223   */\n      swap2\n      pop\n        /* \"#utility.yul\":5232:5325   */\n      tag_147\n        /* \"#utility.yul\":5321:5324   */\n      dup3\n        /* \"#utility.yul\":5232:5325   */\n      tag_97\n      jump\t// in\n    tag_147:\n        /* \"#utility.yul\":5350:5352   */\n      0x20\n        /* \"#utility.yul\":5345:5348   */\n      dup3\n        /* \"#utility.yul\":5341:5353   */\n      add\n        /* \"#utility.yul\":5334:5353   */\n      swap1\n      pop\n        /* \"#utility.yul\":4993:5359   */\n      swap2\n      swap1\n      pop\n      jump\t// out\n        /* \"#utility.yul\":5365:5784   */\n    tag_81:\n        /* \"#utility.yul\":5531:5535   */\n      0x00\n        /* \"#utility.yul\":5569:5571   */\n      0x20\n        /* \"#utility.yul\":5558:5567   */\n      dup3\n        /* \"#utility.yul\":5554:5572   */\n      add\n        /* \"#utility.yul\":5546:5572   */\n      swap1\n      pop\n        /* \"#utility.yul\":5618:5627   */\n      dup2\n        /* \"#utility.yul\":5612:5616   */\n      dup2\n        /* \"#utility.yul\":5608:5628   */\n      sub\n        /* \"#utility.yul\":5604:5605   */\n      0x00\n        /* \"#utility.yul\":5593:5602   */\n      dup4\n        /* \"#utility.yul\":5589:5606   */\n      add\n        /* \"#utility.yul\":5582:5629   */\n      mstore\n        /* \"#utility.yul\":5646:5777   */\n      tag_149\n        /* \"#utility.yul\":5772:5776   */\n      dup2\n        /* \"#utility.yul\":5646:5777   */\n      tag_98\n      jump\t// in\n    tag_149:\n        /* \"#utility.yul\":5638:5777   */\n      swap1\n      pop\n        /* \"#utility.yul\":5365:5784   */\n      swap2\n      swap1\n      pop\n      jump\t// out\n\n    auxdata: 0xa26469706673582212201895d78c02de87bcc3fa18fc497a767030facca1f49795fda8617bd47881bb3364736f6c63430008090033\n}\n",
				"bytecode": {
					"linkReferences": {},
					"object": "608060405234801561001057600080fd5b5061002d61002261003260201b60201c565b61003a60201b60201c565b6100fe565b600033905090565b60008060009054906101000a900473ffffffffffffffffffffffffffffffffffffffff169050816000806101000a81548173ffffffffffffffffffffffffffffffffffffffff021916908373ffffffffffffffffffffffffffffffffffffffff1602179055508173ffffffffffffffffffffffffffffffffffffffff168173ffffffffffffffffffffffffffffffffffffffff167f8be0079c531659141344cd1fd0a4f28419497f9722a3daafe3b4186f6b6457e060405160405180910390a35050565b6108ca8061010d6000396000f3fe608060405234801561001057600080fd5b50600436106100885760003560e01c80639b19251a1161005b5780639b19251a14610101578063e43252d714610131578063f2fde38b1461014d578063f3e81af71461016957610088565b80633af32abf1461008d578063715018a6146100bd5780638ab1d681146100c75780638da5cb5b146100e3575b600080fd5b6100a760048036038101906100a29190610619565b610185565b6040516100b49190610661565b60405180910390f35b6100c56101db565b005b6100e160048036038101906100dc9190610619565b6101ef565b005b6100eb61028c565b6040516100f8919061068b565b60405180910390f35b61011b60048036038101906101169190610619565b6102b5565b6040516101289190610661565b60405180910390f35b61014b60048036038101906101469190610619565b6102d5565b005b61016760048036038101906101629190610619565b61037a565b005b610183600480360381019061017e91906106a6565b6103fe565b005b6000600160008373ffffffffffffffffffffffffffffffffffffffff1673ffffffffffffffffffffffffffffffffffffffff16815260200190815260200160002060009054906101000a900460ff169050919050565b6101e361046c565b6101ed60006104ea565b565b6101f761046c565b600160008273ffffffffffffffffffffffffffffffffffffffff1673ffffffffffffffffffffffffffffffffffffffff16815260200190815260200160002060006101000a81549060ff02191690558073ffffffffffffffffffffffffffffffffffffffff167f535611fb62fa2a833988f283b779e417e996813e44046f521d76c17b5943b08c60405160405180910390a250565b60008060009054906101000a900473ffffffffffffffffffffffffffffffffffffffff16905090565b60016020528060005260406000206000915054906101000a900460ff1681565b6102dd61046c565b60018060008373ffffffffffffffffffffffffffffffffffffffff1673ffffffffffffffffffffffffffffffffffffffff16815260200190815260200160002060006101000a81548160ff0219169083151502179055508073ffffffffffffffffffffffffffffffffffffffff167f534d18c8ff24ba5980906d732f3075704749427353734fbbf05d50485643b12460405160405180910390a250565b61038261046c565b600073ffffffffffffffffffffffffffffffffffffffff168173ffffffffffffffffffffffffffffffffffffffff1614156103f2576040517f08c379a00000000000000000000000000000000000000000000000000000000081526004016103e990610808565b60405180910390fd5b6103fb816104ea565b50565b61040661046c565b61040f8a6102d5565b610418896102d5565b610421886102d5565b61042a876102d5565b610433866102d5565b61043c856102d5565b610445846102d5565b61044e836102d5565b610457826102d5565b610460816102d5565b50505050505050505050565b6104746105ae565b73ffffffffffffffffffffffffffffffffffffffff1661049261028c565b73ffffffffffffffffffffffffffffffffffffffff16146104e8576040517f08c379a00000000000000000000000000000000000000000000000000000000081526004016104df90610874565b60405180910390fd5b565b60008060009054906101000a900473ffffffffffffffffffffffffffffffffffffffff169050816000806101000a81548173ffffffffffffffffffffffffffffffffffffffff021916908373ffffffffffffffffffffffffffffffffffffffff1602179055508173ffffffffffffffffffffffffffffffffffffffff168173ffffffffffffffffffffffffffffffffffffffff167f8be0079c531659141344cd1fd0a4f28419497f9722a3daafe3b4186f6b6457e060405160405180910390a35050565b600033905090565b600080fd5b600073ffffffffffffffffffffffffffffffffffffffff82169050919050565b60006105e6826105bb565b9050919050565b6105f6816105db565b811461060157600080fd5b50565b600081359050610613816105ed565b92915050565b60006020828403121561062f5761062e6105b6565b5b600061063d84828501610604565b91505092915050565b60008115159050919050565b61065b81610646565b82525050565b60006020820190506106766000830184610652565b92915050565b610685816105db565b82525050565b60006020820190506106a0600083018461067c565b92915050565b6000806000806000806000806000806101408b8d0312156106ca576106c96105b6565b5b60006106d88d828e01610604565b9a505060206106e98d828e01610604565b99505060406106fa8d828e01610604565b985050606061070b8d828e01610604565b975050608061071c8d828e01610604565b96505060a061072d8d828e01610604565b95505060c061073e8d828e01610604565b94505060e061074f8d828e01610604565b9350506101006107618d828e01610604565b9250506101206107738d828e01610604565b9150509295989b9194979a5092959850565b600082825260208201905092915050565b7f4f776e61626c653a206e6577206f776e657220697320746865207a65726f206160008201527f6464726573730000000000000000000000000000000000000000000000000000602082015250565b60006107f2602683610785565b91506107fd82610796565b604082019050919050565b60006020820190508181036000830152610821816107e5565b9050919050565b7f4f776e61626c653a2063616c6c6572206973206e6f7420746865206f776e6572600082015250565b600061085e602083610785565b915061086982610828565b602082019050919050565b6000602082019050818103600083015261088d81610851565b905091905056fea26469706673582212201895d78c02de87bcc3fa18fc497a767030facca1f49795fda8617bd47881bb3364736f6c63430008090033",
					"opcodes": "PUSH1 0x80 PUSH1 0x40 MSTORE CALLVALUE DUP1 ISZERO PUSH2 0x10 JUMPI PUSH1 0x0 DUP1 REVERT JUMPDEST POP PUSH2 0x2D PUSH2 0x22 PUSH2 0x32 PUSH1 0x20 SHL PUSH1 0x20 SHR JUMP JUMPDEST PUSH2 0x3A PUSH1 0x20 SHL PUSH1 0x20 SHR JUMP JUMPDEST PUSH2 0xFE JUMP JUMPDEST PUSH1 0x0 CALLER SWAP1 POP SWAP1 JUMP JUMPDEST PUSH1 0x0 DUP1 PUSH1 0x0 SWAP1 SLOAD SWAP1 PUSH2 0x100 EXP SWAP1 DIV PUSH20 0xFFFFFFFFFFFFFFFFFFFFFFFFFFFFFFFFFFFFFFFF AND SWAP1 POP DUP2 PUSH1 0x0 DUP1 PUSH2 0x100 EXP DUP2 SLOAD DUP2 PUSH20 0xFFFFFFFFFFFFFFFFFFFFFFFFFFFFFFFFFFFFFFFF MUL NOT AND SWAP1 DUP4 PUSH20 0xFFFFFFFFFFFFFFFFFFFFFFFFFFFFFFFFFFFFFFFF AND MUL OR SWAP1 SSTORE POP DUP2 PUSH20 0xFFFFFFFFFFFFFFFFFFFFFFFFFFFFFFFFFFFFFFFF AND DUP2 PUSH20 0xFFFFFFFFFFFFFFFFFFFFFFFFFFFFFFFFFFFFFFFF AND PUSH32 0x8BE0079C531659141344CD1FD0A4F28419497F9722A3DAAFE3B4186F6B6457E0 PUSH1 0x40 MLOAD PUSH1 0x40 MLOAD DUP1 SWAP2 SUB SWAP1 LOG3 POP POP JUMP JUMPDEST PUSH2 0x8CA DUP1 PUSH2 0x10D PUSH1 0x0 CODECOPY PUSH1 0x0 RETURN INVALID PUSH1 0x80 PUSH1 0x40 MSTORE CALLVALUE DUP1 ISZERO PUSH2 0x10 JUMPI PUSH1 0x0 DUP1 REVERT JUMPDEST POP PUSH1 0x4 CALLDATASIZE LT PUSH2 0x88 JUMPI PUSH1 0x0 CALLDATALOAD PUSH1 0xE0 SHR DUP1 PUSH4 0x9B19251A GT PUSH2 0x5B JUMPI DUP1 PUSH4 0x9B19251A EQ PUSH2 0x101 JUMPI DUP1 PUSH4 0xE43252D7 EQ PUSH2 0x131 JUMPI DUP1 PUSH4 0xF2FDE38B EQ PUSH2 0x14D JUMPI DUP1 PUSH4 0xF3E81AF7 EQ PUSH2 0x169 JUMPI PUSH2 0x88 JUMP JUMPDEST DUP1 PUSH4 0x3AF32ABF EQ PUSH2 0x8D JUMPI DUP1 PUSH4 0x715018A6 EQ PUSH2 0xBD JUMPI DUP1 PUSH4 0x8AB1D681 EQ PUSH2 0xC7 JUMPI DUP1 PUSH4 0x8DA5CB5B EQ PUSH2 0xE3 JUMPI JUMPDEST PUSH1 0x0 DUP1 REVERT JUMPDEST PUSH2 0xA7 PUSH1 0x4 DUP1 CALLDATASIZE SUB DUP2 ADD SWAP1 PUSH2 0xA2 SWAP2 SWAP1 PUSH2 0x619 JUMP JUMPDEST PUSH2 0x185 JUMP JUMPDEST PUSH1 0x40 MLOAD PUSH2 0xB4 SWAP2 SWAP1 PUSH2 0x661 JUMP JUMPDEST PUSH1 0x40 MLOAD DUP1 SWAP2 SUB SWAP1 RETURN JUMPDEST PUSH2 0xC5 PUSH2 0x1DB JUMP JUMPDEST STOP JUMPDEST PUSH2 0xE1 PUSH1 0x4 DUP1 CALLDATASIZE SUB DUP2 ADD SWAP1 PUSH2 0xDC SWAP2 SWAP1 PUSH2 0x619 JUMP JUMPDEST PUSH2 0x1EF JUMP JUMPDEST STOP JUMPDEST PUSH2 0xEB PUSH2 0x28C JUMP JUMPDEST PUSH1 0x40 MLOAD PUSH2 0xF8 SWAP2 SWAP1 PUSH2 0x68B JUMP JUMPDEST PUSH1 0x40 MLOAD DUP1 SWAP2 SUB SWAP1 RETURN JUMPDEST PUSH2 0x11B PUSH1 0x4 DUP1 CALLDATASIZE SUB DUP2 ADD SWAP1 PUSH2 0x116 SWAP2 SWAP1 PUSH2 0x619 JUMP JUMPDEST PUSH2 0x2B5 JUMP JUMPDEST PUSH1 0x40 MLOAD PUSH2 0x128 SWAP2 SWAP1 PUSH2 0x661 JUMP JUMPDEST PUSH1 0x40 MLOAD DUP1 SWAP2 SUB SWAP1 RETURN JUMPDEST PUSH2 0x14B PUSH1 0x4 DUP1 CALLDATASIZE SUB DUP2 ADD SWAP1 PUSH2 0x146 SWAP2 SWAP1 PUSH2 0x619 JUMP JUMPDEST PUSH2 0x2D5 JUMP JUMPDEST STOP JUMPDEST PUSH2 0x167 PUSH1 0x4 DUP1 CALLDATASIZE SUB DUP2 ADD SWAP1 PUSH2 0x162 SWAP2 SWAP1 PUSH2 0x619 JUMP JUMPDEST PUSH2 0x37A JUMP JUMPDEST STOP JUMPDEST PUSH2 0x183 PUSH1 0x4 DUP1 CALLDATASIZE SUB DUP2 ADD SWAP1 PUSH2 0x17E SWAP2 SWAP1 PUSH2 0x6A6 JUMP JUMPDEST PUSH2 0x3FE JUMP JUMPDEST STOP JUMPDEST PUSH1 0x0 PUSH1 0x1 PUSH1 0x0 DUP4 PUSH20 0xFFFFFFFFFFFFFFFFFFFFFFFFFFFFFFFFFFFFFFFF AND PUSH20 0xFFFFFFFFFFFFFFFFFFFFFFFFFFFFFFFFFFFFFFFF AND DUP2 MSTORE PUSH1 0x20 ADD SWAP1 DUP2 MSTORE PUSH1 0x20 ADD PUSH1 0x0 KECCAK256 PUSH1 0x0 SWAP1 SLOAD SWAP1 PUSH2 0x100 EXP SWAP1 DIV PUSH1 0xFF AND SWAP1 POP SWAP2 SWAP1 POP JUMP JUMPDEST PUSH2 0x1E3 PUSH2 0x46C JUMP JUMPDEST PUSH2 0x1ED PUSH1 0x0 PUSH2 0x4EA JUMP JUMPDEST JUMP JUMPDEST PUSH2 0x1F7 PUSH2 0x46C JUMP JUMPDEST PUSH1 0x1 PUSH1 0x0 DUP3 PUSH20 0xFFFFFFFFFFFFFFFFFFFFFFFFFFFFFFFFFFFFFFFF AND PUSH20 0xFFFFFFFFFFFFFFFFFFFFFFFFFFFFFFFFFFFFFFFF AND DUP2 MSTORE PUSH1 0x20 ADD SWAP1 DUP2 MSTORE PUSH1 0x20 ADD PUSH1 0x0 KECCAK256 PUSH1 0x0 PUSH2 0x100 EXP DUP2 SLOAD SWAP1 PUSH1 0xFF MUL NOT AND SWAP1 SSTORE DUP1 PUSH20 0xFFFFFFFFFFFFFFFFFFFFFFFFFFFFFFFFFFFFFFFF AND PUSH32 0x535611FB62FA2A833988F283B779E417E996813E44046F521D76C17B5943B08C PUSH1 0x40 MLOAD PUSH1 0x40 MLOAD DUP1 SWAP2 SUB SWAP1 LOG2 POP JUMP JUMPDEST PUSH1 0x0 DUP1 PUSH1 0x0 SWAP1 SLOAD SWAP1 PUSH2 0x100 EXP SWAP1 DIV PUSH20 0xFFFFFFFFFFFFFFFFFFFFFFFFFFFFFFFFFFFFFFFF AND SWAP1 POP SWAP1 JUMP JUMPDEST PUSH1 0x1 PUSH1 0x20 MSTORE DUP1 PUSH1 0x0 MSTORE PUSH1 0x40 PUSH1 0x0 KECCAK256 PUSH1 0x0 SWAP2 POP SLOAD SWAP1 PUSH2 0x100 EXP SWAP1 DIV PUSH1 0xFF AND DUP2 JUMP JUMPDEST PUSH2 0x2DD PUSH2 0x46C JUMP JUMPDEST PUSH1 0x1 DUP1 PUSH1 0x0 DUP4 PUSH20 0xFFFFFFFFFFFFFFFFFFFFFFFFFFFFFFFFFFFFFFFF AND PUSH20 0xFFFFFFFFFFFFFFFFFFFFFFFFFFFFFFFFFFFFFFFF AND DUP2 MSTORE PUSH1 0x20 ADD SWAP1 DUP2 MSTORE PUSH1 0x20 ADD PUSH1 0x0 KECCAK256 PUSH1 0x0 PUSH2 0x100 EXP DUP2 SLOAD DUP2 PUSH1 0xFF MUL NOT AND SWAP1 DUP4 ISZERO ISZERO MUL OR SWAP1 SSTORE POP DUP1 PUSH20 0xFFFFFFFFFFFFFFFFFFFFFFFFFFFFFFFFFFFFFFFF AND PUSH32 0x534D18C8FF24BA5980906D732F3075704749427353734FBBF05D50485643B124 PUSH1 0x40 MLOAD PUSH1 0x40 MLOAD DUP1 SWAP2 SUB SWAP1 LOG2 POP JUMP JUMPDEST PUSH2 0x382 PUSH2 0x46C JUMP JUMPDEST PUSH1 0x0 PUSH20 0xFFFFFFFFFFFFFFFFFFFFFFFFFFFFFFFFFFFFFFFF AND DUP2 PUSH20 0xFFFFFFFFFFFFFFFFFFFFFFFFFFFFFFFFFFFFFFFF AND EQ ISZERO PUSH2 0x3F2 JUMPI PUSH1 0x40 MLOAD PUSH32 0x8C379A000000000000000000000000000000000000000000000000000000000 DUP2 MSTORE PUSH1 0x4 ADD PUSH2 0x3E9 SWAP1 PUSH2 0x808 JUMP JUMPDEST PUSH1 0x40 MLOAD DUP1 SWAP2 SUB SWAP1 REVERT JUMPDEST PUSH2 0x3FB DUP2 PUSH2 0x4EA JUMP JUMPDEST POP JUMP JUMPDEST PUSH2 0x406 PUSH2 0x46C JUMP JUMPDEST PUSH2 0x40F DUP11 PUSH2 0x2D5 JUMP JUMPDEST PUSH2 0x418 DUP10 PUSH2 0x2D5 JUMP JUMPDEST PUSH2 0x421 DUP9 PUSH2 0x2D5 JUMP JUMPDEST PUSH2 0x42A DUP8 PUSH2 0x2D5 JUMP JUMPDEST PUSH2 0x433 DUP7 PUSH2 0x2D5 JUMP JUMPDEST PUSH2 0x43C DUP6 PUSH2 0x2D5 JUMP JUMPDEST PUSH2 0x445 DUP5 PUSH2 0x2D5 JUMP JUMPDEST PUSH2 0x44E DUP4 PUSH2 0x2D5 JUMP JUMPDEST PUSH2 0x457 DUP3 PUSH2 0x2D5 JUMP JUMPDEST PUSH2 0x460 DUP2 PUSH2 0x2D5 JUMP JUMPDEST POP POP POP POP POP POP POP POP POP POP JUMP JUMPDEST PUSH2 0x474 PUSH2 0x5AE JUMP JUMPDEST PUSH20 0xFFFFFFFFFFFFFFFFFFFFFFFFFFFFFFFFFFFFFFFF AND PUSH2 0x492 PUSH2 0x28C JUMP JUMPDEST PUSH20 0xFFFFFFFFFFFFFFFFFFFFFFFFFFFFFFFFFFFFFFFF AND EQ PUSH2 0x4E8 JUMPI PUSH1 0x40 MLOAD PUSH32 0x8C379A000000000000000000000000000000000000000000000000000000000 DUP2 MSTORE PUSH1 0x4 ADD PUSH2 0x4DF SWAP1 PUSH2 0x874 JUMP JUMPDEST PUSH1 0x40 MLOAD DUP1 SWAP2 SUB SWAP1 REVERT JUMPDEST JUMP JUMPDEST PUSH1 0x0 DUP1 PUSH1 0x0 SWAP1 SLOAD SWAP1 PUSH2 0x100 EXP SWAP1 DIV PUSH20 0xFFFFFFFFFFFFFFFFFFFFFFFFFFFFFFFFFFFFFFFF AND SWAP1 POP DUP2 PUSH1 0x0 DUP1 PUSH2 0x100 EXP DUP2 SLOAD DUP2 PUSH20 0xFFFFFFFFFFFFFFFFFFFFFFFFFFFFFFFFFFFFFFFF MUL NOT AND SWAP1 DUP4 PUSH20 0xFFFFFFFFFFFFFFFFFFFFFFFFFFFFFFFFFFFFFFFF AND MUL OR SWAP1 SSTORE POP DUP2 PUSH20 0xFFFFFFFFFFFFFFFFFFFFFFFFFFFFFFFFFFFFFFFF AND DUP2 PUSH20 0xFFFFFFFFFFFFFFFFFFFFFFFFFFFFFFFFFFFFFFFF AND PUSH32 0x8BE0079C531659141344CD1FD0A4F28419497F9722A3DAAFE3B4186F6B6457E0 PUSH1 0x40 MLOAD PUSH1 0x40 MLOAD DUP1 SWAP2 SUB SWAP1 LOG3 POP POP JUMP JUMPDEST PUSH1 0x0 CALLER SWAP1 POP SWAP1 JUMP JUMPDEST PUSH1 0x0 DUP1 REVERT JUMPDEST PUSH1 0x0 PUSH20 0xFFFFFFFFFFFFFFFFFFFFFFFFFFFFFFFFFFFFFFFF DUP3 AND SWAP1 POP SWAP2 SWAP1 POP JUMP JUMPDEST PUSH1 0x0 PUSH2 0x5E6 DUP3 PUSH2 0x5BB JUMP JUMPDEST SWAP1 POP SWAP2 SWAP1 POP JUMP JUMPDEST PUSH2 0x5F6 DUP2 PUSH2 0x5DB JUMP JUMPDEST DUP2 EQ PUSH2 0x601 JUMPI PUSH1 0x0 DUP1 REVERT JUMPDEST POP JUMP JUMPDEST PUSH1 0x0 DUP2 CALLDATALOAD SWAP1 POP PUSH2 0x613 DUP2 PUSH2 0x5ED JUMP JUMPDEST SWAP3 SWAP2 POP POP JUMP JUMPDEST PUSH1 0x0 PUSH1 0x20 DUP3 DUP5 SUB SLT ISZERO PUSH2 0x62F JUMPI PUSH2 0x62E PUSH2 0x5B6 JUMP JUMPDEST JUMPDEST PUSH1 0x0 PUSH2 0x63D DUP5 DUP3 DUP6 ADD PUSH2 0x604 JUMP JUMPDEST SWAP2 POP POP SWAP3 SWAP2 POP POP JUMP JUMPDEST PUSH1 0x0 DUP2 ISZERO ISZERO SWAP1 POP SWAP2 SWAP1 POP JUMP JUMPDEST PUSH2 0x65B DUP2 PUSH2 0x646 JUMP JUMPDEST DUP3 MSTORE POP POP JUMP JUMPDEST PUSH1 0x0 PUSH1 0x20 DUP3 ADD SWAP1 POP PUSH2 0x676 PUSH1 0x0 DUP4 ADD DUP5 PUSH2 0x652 JUMP JUMPDEST SWAP3 SWAP2 POP POP JUMP JUMPDEST PUSH2 0x685 DUP2 PUSH2 0x5DB JUMP JUMPDEST DUP3 MSTORE POP POP JUMP JUMPDEST PUSH1 0x0 PUSH1 0x20 DUP3 ADD SWAP1 POP PUSH2 0x6A0 PUSH1 0x0 DUP4 ADD DUP5 PUSH2 0x67C JUMP JUMPDEST SWAP3 SWAP2 POP POP JUMP JUMPDEST PUSH1 0x0 DUP1 PUSH1 0x0 DUP1 PUSH1 0x0 DUP1 PUSH1 0x0 DUP1 PUSH1 0x0 DUP1 PUSH2 0x140 DUP12 DUP14 SUB SLT ISZERO PUSH2 0x6CA JUMPI PUSH2 0x6C9 PUSH2 0x5B6 JUMP JUMPDEST JUMPDEST PUSH1 0x0 PUSH2 0x6D8 DUP14 DUP3 DUP15 ADD PUSH2 0x604 JUMP JUMPDEST SWAP11 POP POP PUSH1 0x20 PUSH2 0x6E9 DUP14 DUP3 DUP15 ADD PUSH2 0x604 JUMP JUMPDEST SWAP10 POP POP PUSH1 0x40 PUSH2 0x6FA DUP14 DUP3 DUP15 ADD PUSH2 0x604 JUMP JUMPDEST SWAP9 POP POP PUSH1 0x60 PUSH2 0x70B DUP14 DUP3 DUP15 ADD PUSH2 0x604 JUMP JUMPDEST SWAP8 POP POP PUSH1 0x80 PUSH2 0x71C DUP14 DUP3 DUP15 ADD PUSH2 0x604 JUMP JUMPDEST SWAP7 POP POP PUSH1 0xA0 PUSH2 0x72D DUP14 DUP3 DUP15 ADD PUSH2 0x604 JUMP JUMPDEST SWAP6 POP POP PUSH1 0xC0 PUSH2 0x73E DUP14 DUP3 DUP15 ADD PUSH2 0x604 JUMP JUMPDEST SWAP5 POP POP PUSH1 0xE0 PUSH2 0x74F DUP14 DUP3 DUP15 ADD PUSH2 0x604 JUMP JUMPDEST SWAP4 POP POP PUSH2 0x100 PUSH2 0x761 DUP14 DUP3 DUP15 ADD PUSH2 0x604 JUMP JUMPDEST SWAP3 POP POP PUSH2 0x120 PUSH2 0x773 DUP14 DUP3 DUP15 ADD PUSH2 0x604 JUMP JUMPDEST SWAP2 POP POP SWAP3 SWAP6 SWAP9 SWAP12 SWAP2 SWAP5 SWAP8 SWAP11 POP SWAP3 SWAP6 SWAP9 POP JUMP JUMPDEST PUSH1 0x0 DUP3 DUP3 MSTORE PUSH1 0x20 DUP3 ADD SWAP1 POP SWAP3 SWAP2 POP POP JUMP JUMPDEST PUSH32 0x4F776E61626C653A206E6577206F776E657220697320746865207A65726F2061 PUSH1 0x0 DUP3 ADD MSTORE PUSH32 0x6464726573730000000000000000000000000000000000000000000000000000 PUSH1 0x20 DUP3 ADD MSTORE POP JUMP JUMPDEST PUSH1 0x0 PUSH2 0x7F2 PUSH1 0x26 DUP4 PUSH2 0x785 JUMP JUMPDEST SWAP2 POP PUSH2 0x7FD DUP3 PUSH2 0x796 JUMP JUMPDEST PUSH1 0x40 DUP3 ADD SWAP1 POP SWAP2 SWAP1 POP JUMP JUMPDEST PUSH1 0x0 PUSH1 0x20 DUP3 ADD SWAP1 POP DUP2 DUP2 SUB PUSH1 0x0 DUP4 ADD MSTORE PUSH2 0x821 DUP2 PUSH2 0x7E5 JUMP JUMPDEST SWAP1 POP SWAP2 SWAP1 POP JUMP JUMPDEST PUSH32 0x4F776E61626C653A2063616C6C6572206973206E6F7420746865206F776E6572 PUSH1 0x0 DUP3 ADD MSTORE POP JUMP JUMPDEST PUSH1 0x0 PUSH2 0x85E PUSH1 0x20 DUP4 PUSH2 0x785 JUMP JUMPDEST SWAP2 POP PUSH2 0x869 DUP3 PUSH2 0x828 JUMP JUMPDEST PUSH1 0x20 DUP3 ADD SWAP1 POP SWAP2 SWAP1 POP JUMP JUMPDEST PUSH1 0x0 PUSH1 0x20 DUP3 ADD SWAP1 POP DUP2 DUP2 SUB PUSH1 0x0 DUP4 ADD MSTORE PUSH2 0x88D DUP2 PUSH2 0x851 JUMP JUMPDEST SWAP1 POP SWAP2 SWAP1 POP JUMP INVALID LOG2 PUSH5 0x6970667358 0x22 SLT KECCAK256 XOR SWAP6 0xD7 DUP13 MUL 0xDE DUP8 0xBC 0xC3 STATICCALL XOR 0xFC 0x49 PUSH27 0x767030FACCA1F49795FDA8617BD47881BB3364736F6C6343000809 STOP CALLER "
				},
				"gasEstimates": {
					"creation": {
						"codeDepositCost": "450000",
						"executionCost": "infinite",
						"totalCost": "infinite"
					},
					"external": {
						"addAddressesToWhitelist(address,address,address,address,address,address,address,address,address,address)": "infinite",
						"addToWhitelist(address)": "28259",
						"isWhitelisted(address)": "2884",
						"owner()": "2589",
						"removeFromWhitelist(address)": "28257",
						"renounceOwnership()": "30421",
						"transferOwnership(address)": "30791",
						"whitelist(address)": "2845"
					}
				},
				"methodIdentifiers": {
					"addAddressesToWhitelist(address,address,address,address,address,address,address,address,address,address)": "f3e81af7",
					"addToWhitelist(address)": "e43252d7",
					"isWhitelisted(address)": "3af32abf",
					"owner()": "8da5cb5b",
					"removeFromWhitelist(address)": "8ab1d681",
					"renounceOwnership()": "715018a6",
					"transferOwnership(address)": "f2fde38b",
					"whitelist(address)": "9b19251a"
				}
			},
			"storageLayout": {
				"storage": [
					{
						"astId": 7,
						"contract": "contracts/Whitelist.sol:Whitelist",
						"label": "_owner",
						"offset": 0,
						"slot": "0",
						"type": "t_address"
					},
					{
						"astId": 143,
						"contract": "contracts/Whitelist.sol:Whitelist",
						"label": "whitelist",
						"offset": 0,
						"slot": "1",
						"type": "t_mapping(t_address,t_bool)"
					}
				],
				"types": {
					"t_address": {
						"encoding": "inplace",
						"label": "address",
						"numberOfBytes": "20"
					},
					"t_bool": {
						"encoding": "inplace",
						"label": "bool",
						"numberOfBytes": "1"
					},
					"t_mapping(t_address,t_bool)": {
						"encoding": "mapping",
						"key": "t_address",
						"label": "mapping(address => bool)",
						"numberOfBytes": "32",
						"value": "t_bool"
					}
				}
			},
			"userdoc": {
				"kind": "user",
				"methods": {},
				"version": 1
			}
		}
	}
}