{
	"data": {
		"bytecode": {
			"linkReferences": {},
			"object": "6101006040526301e13380608052601260a052600160c052630f099c0060e0523480156200002c57600080fd5b5060405162005a4e38038062005a4e8339810160408190526200004f916200040f565b604051806040016040528060048152602001631213911360e21b815250604051806040016040528060048152602001632ee282bf60e01b815250620000a36200009d620002f860201b60201c565b620002fc565b8151620000b89060019060208501906200034c565b508051620000ce9060029060208401906200034c565b5050600780546001600160a01b038086166001600160a01b03199283161790925560088054928516929091169190911790555042600b55670de0b6b3a76400007f4c4dc693d7db52f85fe052106f4b4b920e78e8ef37dee82878a60ab8585faf49556703782dace9d900007fcaff291fe014adc6b72a172705750b4cabe8f8667664d2924a166caab28856485566354a6ba7a180007ff06d282f967055cb1eee17e04aa005b9682a620f4bbcfaee55ba78607a3d87ae556611c37937e080007fec061709de2491458f4c981032059d7d19b0e55f45018bac6b3e660bdc959a595560176020526706f05b59d3b200007ff36d6bc9642eb6fb6ee9998b09ce990566df752ab06e11f8de7ab633bbd57b8f556701bc16d674ec80007fc52df653038b2ad477d8d97f1ddd63cfd138847b628ad8a7b89c109c3f8782ca55661aa535d3d0c0007fd8b2bced50346359af71f91110b86cdf684b6ab1c6ca64a7583c044d5c24de5c5560046000526608e1bc9bf040007f68052a315987b3c92fe6f7df77391bc5a825cabe4950d34f36f8f4e8a6abcb4d5560055b600e8111620002a957600081815260166020908152604080832065b5e620f480009081905560179092529091205580620002a08162000447565b91505062000266565b50600f5b60128111620002ef57600081815260166020908152604080832064438558d4009081905560179092529091205580620002e68162000447565b915050620002ad565b505050620004ae565b3390565b600080546001600160a01b038381166001600160a01b0319831681178455604051919092169283917f8be0079c531659141344cd1fd0a4f28419497f9722a3daafe3b4186f6b6457e09190a35050565b8280546200035a9062000471565b90600052602060002090601f0160209004810192826200037e5760008555620003c9565b82601f106200039957805160ff1916838001178555620003c9565b82800160010185558215620003c9579182015b82811115620003c9578251825591602001919060010190620003ac565b50620003d7929150620003db565b5090565b5b80821115620003d75760008155600101620003dc565b80516001600160a01b03811681146200040a57600080fd5b919050565b600080604083850312156200042357600080fd5b6200042e83620003f2565b91506200043e60208401620003f2565b90509250929050565b60006000198214156200046a57634e487b7160e01b600052601160045260246000fd5b5060010190565b600181811c908216806200048657607f821691505b60208210811415620004a857634e487b7160e01b600052602260045260246000fd5b50919050565b60805160a05160c05160e051615551620004fd600039600061405101526000613fa401526000613fcf01526000818161170701528181611fbe01528181612b55015261313301526155516000f3fe6080604052600436106101a35760003560e01c8063926b13cf116100e2578063c4a93d2711610085578063c4a93d27146104ab578063c87b56dd146104cb578063cd43d1f3146104eb578063d382be681461050b578063e8cb31461461052b578063e985e9c51461053e578063f160d3691461055e578063f2fde38b1461057e57600080fd5b8063926b13cf146103c357806393d7e73b146103d657806395d89b41146104035780639be40ed6146104185780639ca005bd14610445578063a22cb46514610458578063b88d4fde14610478578063c29e9e261461049857600080fd5b806342842e0e1161014a57806342842e0e146102d95780635049485d146102f9578063610c42571461031d5780636352211e146103305780636e4826701461035057806370a0823114610370578063715018a6146103905780638da5cb5b146103a557600080fd5b806301ffc9a7146101a857806306fdde03146101dd578063081812fc146101ff578063095ea7b31461023757806323b872dd146102595780632ca0f70d146102795780633af32abf146102995780633feecd9c146102b9575b600080fd5b3480156101b457600080fd5b506101c86101c3366004614798565b61059e565b60405190151581526020015b60405180910390f35b3480156101e957600080fd5b506101f26105f0565b6040516101d4919061480d565b34801561020b57600080fd5b5061021f61021a366004614820565b610682565b6040516001600160a01b0390911681526020016101d4565b34801561024357600080fd5b50610257610252366004614855565b6106a9565b005b34801561026557600080fd5b5061025761027436600461487f565b6107c4565b34801561028557600080fd5b50610257610294366004614967565b610a85565b3480156102a557600080fd5b506101c86102b43660046149cb565b610d3f565b3480156102c557600080fd5b506102576102d4366004614967565b610dbd565b3480156102e557600080fd5b506102576102f436600461487f565b610fd7565b34801561030557600080fd5b5061030f600b5481565b6040519081526020016101d4565b61025761032b3660046149e6565b610ff2565b34801561033c57600080fd5b5061021f61034b366004614820565b611846565b34801561035c57600080fd5b5061025761036b366004614820565b61187b565b34801561037c57600080fd5b5061030f61038b3660046149cb565b611924565b34801561039c57600080fd5b506102576119aa565b3480156103b157600080fd5b506000546001600160a01b031661021f565b6102576103d13660046149e6565b6119be565b3480156103e257600080fd5b506103f66103f1366004614a2b565b612145565b6040516101d49190614a60565b34801561040f57600080fd5b506101f2612382565b34801561042457600080fd5b50610438610433366004614a2b565b612391565b6040516101d49190614ab1565b610257610453366004614a2b565b612562565b34801561046457600080fd5b50610257610473366004614b0a565b6127b0565b34801561048457600080fd5b50610257610493366004614b41565b6127bf565b6102576104a63660046149e6565b6129ff565b3480156104b757600080fd5b506101c86104c6366004614a2b565b612c18565b3480156104d757600080fd5b506101f26104e6366004614820565b612d0b565b3480156104f757600080fd5b5061030f610506366004614bbd565b612d7f565b34801561051757600080fd5b5061030f610526366004614bbd565b612d8d565b6102576105393660046149e6565b612d9b565b34801561054a57600080fd5b506101c8610559366004614bdf565b613295565b34801561056a57600080fd5b506102576105793660046149cb565b6132c3565b34801561058a57600080fd5b506102576105993660046149cb565b613335565b60006001600160e01b031982166380ac58cd60e01b14806105cf57506001600160e01b03198216635b5e139f60e01b145b806105ea57506301ffc9a760e01b6001600160e01b03198316145b92915050565b6060600180546105ff90614c12565b80601f016020809104026020016040519081016040528092919081815260200182805461062b90614c12565b80156106785780601f1061064d57610100808354040283529160200191610678565b820191906000526020600020905b81548152906001019060200180831161065b57829003601f168201915b5050505050905090565b600061068d826133ae565b506000908152600560205260409020546001600160a01b031690565b60006106b482611846565b9050806001600160a01b0316836001600160a01b031614156107275760405162461bcd60e51b815260206004820152602160248201527f4552433732313a20617070726f76616c20746f2063757272656e74206f776e656044820152603960f91b60648201526084015b60405180910390fd5b336001600160a01b038216148061074357506107438133613295565b6107b55760405162461bcd60e51b815260206004820152603d60248201527f4552433732313a20617070726f76652063616c6c6572206973206e6f7420746f60448201527f6b656e206f776e6572206f7220617070726f76656420666f7220616c6c000000606482015260840161071e565b6107bf83836133d3565b505050565b600081815260106020526040812054156107e0575060016107e4565b5060005b60008160018111156107f8576107f8614c4d565b14156108c0576000828152600d60205260408082209051600c9161081b91614c63565b90815260405190819003602001902060028101549091506001600160a01b0390811690851681141561085f5760405162461bcd60e51b815260040161071e90614cd5565b6002820180546001600160a01b0319166001600160a01b038781169182179092556000868152600d602052604090819020905187938a16916000805160206154fc833981519152916108b19190614d17565b60405180910390a45050610a74565b60018160018111156108d4576108d4614c4d565b1415610a74576000828152601060209081526040808320548352600d9091528082209051600c9161090491614c63565b90815260200160405180910390206004016109b9600d6000868152602001908152602001600020805461093690614c12565b80601f016020809104026020016040519081016040528092919081815260200182805461096290614c12565b80156109af5780601f10610984576101008083540402835291602001916109af565b820191906000526020600020905b81548152906001019060200180831161099257829003601f168201915b5050505050613441565b6040516109c69190614d9c565b90815260405190819003602001902060018101549091506001600160a01b03908116908516811415610a0a5760405162461bcd60e51b815260040161071e90614cd5565b6001820180546001600160a01b0319166001600160a01b0387169081179091556000858152600d60205260409020805486929182916000805160206154fc83398151915291610a5c9161093690614c12565b604051610a69919061480d565b60405180910390a450505b610a7f848484613465565b50505050565b6000610a9083613496565b60405180604001604052806003815260200162e282bf60e81b815250604051602001610abd929190614db8565b60405160208183030381529060405290506000610ad984613441565b9050600c82604051610aeb9190614d9c565b90815260405190819003602001902054610b475760405162461bcd60e51b815260206004820152601c60248201527f506172656e742068616e646c6520646f6573206e6f7420657869737400000000604482015260640161071e565b6000600c83604051610b599190614d9c565b908152602001604051809103902060040182604051610b789190614d9c565b9081526040519081900360200190208054909150610bd35760405162461bcd60e51b815260206004820152601860248201527714dd589a185b991b1948191bd95cc81b9bdd08195e1a5cdd60421b604482015260640161071e565b42816002015411610c1e5760405162461bcd60e51b815260206004820152601560248201527414dd589a185b991b19481a185cc8195e1c1a5c9959605a1b604482015260640161071e565b8054610c2990611846565b6001600160a01b0316336001600160a01b031614610cb95760405162461bcd60e51b815260206004820152604160248201527f596f75206d75737420626520746865206f776e6572206f66207468652073756260448201527f68616e646c6520746f207365742074686520426974636f696e206164647265736064820152607360f81b608482015260a40161071e565b8351610cce90600583019060208701906146e9565b5060008284604051602001610ce4929190614db8565b60408051601f1981840301815290829052835490925090819033907fc9b090088e75b67eb0bebf46625a0b583f756e5eb6b1956cd4222791fead4ee590610d2e9086908b90614df4565b60405180910390a350505050505050565b600854604051633af32abf60e01b81526001600160a01b0383811660048301526000921690633af32abf9060240160206040518083038186803b158015610d8557600080fd5b505afa158015610d99573d6000803e3d6000fd5b505050506040513d601f19601f820116820180604052508101906105ea9190614e22565b600033905060008360405180604001604052806003815260200162e282bf60e81b815250604051602001610df2929190614db8565b60405160208183030381529060405290506000600c82604051610e159190614d9c565b9081526040519081900360200190208054909150610e6d5760405162461bcd60e51b815260206004820152601560248201527412185b991b1948191bd95cc81b9bdd08195e1a5cdd605a1b604482015260640161071e565b8054610e7890611846565b6001600160a01b0316836001600160a01b031614610ef35760405162461bcd60e51b815260206004820152603260248201527f4f6e6c79207468652063757272656e74206f776e65722063616e207365742074604482015271686520426974636f696e206164647265737360701b606482015260840161071e565b42816001015411610f3b5760405162461bcd60e51b815260206004820152601260248201527112185b991b19481a185cc8195e1c1a5c995960721b604482015260640161071e565b8351610f5090600683019060208701906146e9565b5060008560405180604001604052806003815260200162e282bf60e81b815250604051602001610f81929190614db8565b604051602081830303815290604052905060008260000154905080856001600160a01b03167f84429df22d7fe2e4100d0f432303654047944cdfe4e50c02dd433e0c8b1cf3e78489604051610d2e929190614df4565b6107bf838383604051806020016040528060008152506127bf565b816000819050600060405160200161100990614e3f565b6040516020818303038152906040529050600082511161103b5760405162461bcd60e51b815260040161071e90614e77565b60015b82518110156110d85782818151811061105957611059614eae565b6020910101516001600160f81b031916601760f91b1480156110a9575082611082600183614eda565b8151811061109257611092614eae565b6020910101516001600160f81b031916601760f91b145b156110c65760405162461bcd60e51b815260040161071e90614ef1565b806110d081614f37565b91505061103e565b5060005b82518110156111905760008382815181106110f9576110f9614eae565b01602001516001600160f81b03191690506000805b845181101561115d5784818151811061112957611129614eae565b01602001516001600160f81b03198481169116141561114b576001915061115d565b8061115581614f37565b91505061110e565b508061117b5760405162461bcd60e51b815260040161071e90614f52565b5050808061118890614f37565b9150506110dc565b50816000815181106111a4576111a4614eae565b6020910101516001600160f81b031916602d60f81b148015906111ed5750816000815181106111d5576111d5614eae565b6020910101516001600160f81b031916601760f91b14155b801561122b575081600183516112039190614eda565b8151811061121357611213614eae565b6020910101516001600160f81b031916602d60f81b14155b8015611269575081600183516112419190614eda565b8151811061125157611251614eae565b6020910101516001600160f81b031916601760f91b14155b6112855760405162461bcd60e51b815260040161071e90614f87565b8461128f816134d3565b806112a2575060016112a08261357a565b115b156112bf5760405162461bcd60e51b815260040161071e90614f87565b60006112ca87613441565b905060006112d788613496565b60405180604001604052806003815260200162e282bf60e81b815250604051602001611304929190614db8565b60405160208183030381529060405290506000600c826040516113279190614d9c565b908152602001604051809103902090506000816004018460405161134b9190614d9c565b90815260405190819003602001902060018301548154919250421015906000901580159061137d575042836002015411155b905081156113c85760405162461bcd60e51b815260206004820152601860248201527714185c995b9d081a185b991b19481a5cc8195e1c1a5c995960421b604482015260640161071e565b825415806113d35750805b6114345760405162461bcd60e51b815260206004820152602c60248201527f53756268616e646c6520616c7265616479207265676973746572656420616e6460448201526b081b9bdd08195e1c1a5c995960a21b606482015260840161071e565b85516000611442828e612d8d565b60028701549091506001600160a01b03163314806114ea57813410156114aa5760405162461bcd60e51b815260206004820152601d60248201527f496e73756666696369656e7420726567697374726174696f6e20666565000000604482015260640161071e565b60028701546040516001600160a01b039091169081903480156108fc02916000818181858888f193505050501580156114e7573d6000803e3d6000fd5b50505b600386015460ff161561153f5760405162461bcd60e51b815260206004820152601c60248201527f53756268616e646c6520726571756573742069732070656e64696e6700000000604482015260640161071e565b60028701546115589089906001600160a01b03166135e7565b806115605750805b6115a55760405162461bcd60e51b815260206004820152601660248201527514195c9b5a5cdcda5bdb881b9bdd0819dc985b9d195960521b604482015260640161071e565b8015806115b3575060018e11155b61161f5760405162461bcd60e51b815260206004820152603760248201527f4d6178696d756d20726567697374726174696f6e20796561727320666f7220706044820152766172656e742068616e646c65206f776e6572206973203160481b606482015260840161071e565b831561162e5761162e8f613634565b6116378961382d565b15806116475750611647896138da565b6116a85760405162461bcd60e51b815260206004820152602c60248201527f53756268616e646c652063616e6e6f7420636f6e7461696e20636f6e7365637560448201526b746976652068797068656e7360a01b606482015260840161071e565b6000600a5460016116b99190614fd6565b90506001600a60008282546116ce9190614fd6565b909155506116de90503382613985565b8087556001870180546001600160a01b0319163317905560038701805460ff1916905561172b8f7f0000000000000000000000000000000000000000000000000000000000000000614fee565b6117359042614fd6565b6002880155600487018f905560038801805460019190600090611759908490614fd6565b9091555050604051600090611774908c908c90602001614db8565b60408051601f198184030181529181526000848152600d602090815291902082519293506117a69290918401906146e9565b5081600f826040516117b89190614d9c565b90815260200160405180910390208190555060008860020154905082336001600160a01b03167ffcdd79c20ebe031287776080f621d5fb3eab6c5fcab4ed6837fb126ed251a9c8848e8e60020160009054906101000a90046001600160a01b03168660405161182a949392919061500d565b60405180910390a3505050505050505050505050505050505050565b6000818152600360205260408120546001600160a01b0316806105ea5760405162461bcd60e51b815260040161071e9061504f565b60008181526011602052604090205481906001600160a01b031633146118d65760405162461bcd60e51b815260206004820152601060248201526f2737ba103430b73236329037bbb732b960811b604482015260640161071e565b60008281526011602090815260408083205460169092528083205490516001600160a01b039092169281156108fc029290818181858888f193505050501580156107bf573d6000803e3d6000fd5b60006001600160a01b03821661198e5760405162461bcd60e51b815260206004820152602960248201527f4552433732313a2061646472657373207a65726f206973206e6f7420612076616044820152683634b21037bbb732b960b91b606482015260840161071e565b506001600160a01b031660009081526004602052604090205490565b6119b2613a92565b6119bc6000613aec565b565b816119e281604051806040016040528060018152602001601760f91b815250613b3c565b15611a2f5760405162461bcd60e51b815260206004820152601960248201527f48616e646c652063616e6e6f7420636f6e7461696e20272e2700000000000000604482015260640161071e565b8260008190506000604051602001611a4690614e3f565b60405160208183030381529060405290506000825111611a785760405162461bcd60e51b815260040161071e90614e77565b60015b8251811015611b1557828181518110611a9657611a96614eae565b6020910101516001600160f81b031916601760f91b148015611ae6575082611abf600183614eda565b81518110611acf57611acf614eae565b6020910101516001600160f81b031916601760f91b145b15611b035760405162461bcd60e51b815260040161071e90614ef1565b80611b0d81614f37565b915050611a7b565b5060005b8251811015611bcd576000838281518110611b3657611b36614eae565b01602001516001600160f81b03191690506000805b8451811015611b9a57848181518110611b6657611b66614eae565b01602001516001600160f81b031984811691161415611b885760019150611b9a565b80611b9281614f37565b915050611b4b565b5080611bb85760405162461bcd60e51b815260040161071e90614f52565b50508080611bc590614f37565b915050611b19565b5081600081518110611be157611be1614eae565b6020910101516001600160f81b031916602d60f81b14801590611c2a575081600081518110611c1257611c12614eae565b6020910101516001600160f81b031916601760f91b14155b8015611c6857508160018351611c409190614eda565b81518110611c5057611c50614eae565b6020910101516001600160f81b031916602d60f81b14155b8015611ca657508160018351611c7e9190614eda565b81518110611c8e57611c8e614eae565b6020910101516001600160f81b031916601760f91b14155b611cc25760405162461bcd60e51b815260040161071e90614f87565b85611ccc8161382d565b1580611cdc5750611cdc816138da565b611d3a5760405162461bcd60e51b815260206004820152602960248201527f48616e646c652063616e6e6f7420636f6e7461696e20636f6e73656375746976604482015268652068797068656e7360b81b606482015260840161071e565b60008760405180604001604052806003815260200162e282bf60e81b815250604051602001611d6a929190614db8565b60405160208183030381529060405290506000600c82604051611d8d9190614d9c565b9081526020016040518091039020905060008160000154600014158015611db8575042826001015411155b82549091501580611dc65750805b156120df5789516000611dd9828c612d7f565b600854604051633af32abf60e01b81523360048201529192506000916001600160a01b0390911690633af32abf9060240160206040518083038186803b158015611e2257600080fd5b505afa158015611e36573d6000803e3d6000fd5b505050506040513d601f19601f82011682018060405250810190611e5a9190614e22565b9050808015611e6957508b6001145b8015611e76575060048310155b8015611e915750336000908152601360205260409020546003115b15611ebb57336000908152601360205260408120805491611eb183614f37565b9190505550611f4b565b813410611edd57336000908152601460205260408120805491611eb183614f37565b60405162461bcd60e51b815260206004820152603b60248201527f496e73756666696369656e7420726567697374726174696f6e20666565206f7260448201527f206e6f7420656c696769626c6520666f722066726565206d696e740000000000606482015260840161071e565b8315611f5c578454611f5c90613bc4565b6000600a546001611f6d9190614fd6565b90506001600a6000828254611f829190614fd6565b90915550611f9290503382613985565b6000600c88604051611fa49190614d9c565b9081526040519081900360200190208281559050611fe28e7f0000000000000000000000000000000000000000000000000000000000000000614fee565b611fec9042614fd6565b60018201556002810180546001600160a01b03191633179055600581018e90556000828152600d60209081526040909120895161202b928b01906146e9565b5081600f8960405161203d9190614d9c565b908152604051908190036020019020558261208d576007546040516001600160a01b03909116903480156108fc02916000818181858888f1935050505015801561208b573d6000803e3d6000fd5b505b81336001600160a01b03167fbca2d57eabab381fa4ab39218b0b9ddc157bae88693c3a180a5451dac48303a08a84600101546040516120cd929190615081565b60405180910390a35050505050612139565b60405162461bcd60e51b815260206004820152602960248201527f48616e646c6520616c7265616479207265676973746572656420616e64206e6f6044820152681d08195e1c1a5c995960ba1b606482015260840161071e565b50505050505050505050565b6121896040518060a001604052806000815260200160006001600160a01b031681526020016000815260200160006001600160a01b03168152602001606081525090565b60008061219584613dbb565b9150915060008160405180604001604052806003815260200162e282bf60e81b8152506040516020016121c9929190614db8565b60405160208183030381529060405290506000600c826040516121ec9190614d9c565b90815260200160405180910390206004018460405161220b9190614d9c565b908152604051908190036020019020805490915061226b5760405162461bcd60e51b815260206004820152601e60248201527f53756268616e646c6520746f6b656e20646f6573206e6f742065786973740000604482015260640161071e565b600061227a8260000154611846565b905060006122a6600c856040516122919190614d9c565b90815260405190819003602001902054611846565b90506040518060a0016040528084600001548152602001836001600160a01b0316815260200184600201548152602001826001600160a01b031681526020018460050180546122f490614c12565b80601f016020809104026020016040519081016040528092919081815260200182805461232090614c12565b801561236d5780601f106123425761010080835404028352916020019161236d565b820191906000526020600020905b81548152906001019060200180831161235057829003601f168201915b50505050508152509650505050505050919050565b6060600280546105ff90614c12565b6123cc6040518060a001604052806000815260200160006001600160a01b031681526020016000815260200160008152602001606081525090565b60008260405180604001604052806003815260200162e282bf60e81b8152506040516020016123fc929190614db8565b60405160208183030381529060405290506000600c8260405161241f9190614d9c565b908152604051908190036020019020805490915061247f5760405162461bcd60e51b815260206004820152601b60248201527f48616e646c6520746f6b656e20646f6573206e6f742065786973740000000000604482015260640161071e565b600061248e8260000154611846565b90506040518060a0016040528083600001548152602001826001600160a01b0316815260200183600101548152602001836003015481526020018360060180546124d790614c12565b80601f016020809104026020016040519081016040528092919081815260200182805461250390614c12565b80156125505780601f1061252557610100808354040283529160200191612550565b820191906000526020600020905b81548152906001019060200180831161253357829003601f168201915b50505050508152509350505050919050565b60008151116125835760405162461bcd60e51b815260040161071e906150a3565b60008160405180604001604052806003815260200162e282bf60e81b8152506040516020016125b3929190614db8565b60405160208183030381529060405290506000600c826040516125d69190614d9c565b90815260405190819003602001902080549091506126065760405162461bcd60e51b815260040161071e906150da565b60028101546001600160a01b0316331461267d5760405162461bcd60e51b815260206004820152603260248201527f4f6e6c792074686520706172656e742068616e646c65206f776e65722063616e604482015271103a37b3b3b632903832b936b4b9b9b4b7b760711b606482015260840161071e565b336000908152600e6020526040808220905161269a908590614d9c565b908152604051908190036020019020805490915060ff600160a01b909104166127435734660a4d88ddd94000146127085760405162461bcd60e51b8152602060048201526012602482015271125b9d985b1a590819995948185b5bdd5b9d60721b604482015260640161071e565b6007546040516001600160a01b03909116903480156108fc02916000818181858888f19350505050158015612741573d6000803e3d6000fd5b505b805460ff600160a01b808304821615810260ff60a01b199093169290921780845584546040519093849333937ea26cdec7e1b4c1e4c251cbdbe040bb32590f4cf5878456bd50e81ef88abf38936127a1938b93920490911690615111565b60405180910390a35050505050565b6127bb338383613e0a565b5050565b600082815260106020526040812054156127db575060016127df565b5060005b60008160018111156127f3576127f3614c4d565b14156128bb576000838152600d60205260408082209051600c9161281691614c63565b90815260405190819003602001902060028101549091506001600160a01b0390811690861681141561285a5760405162461bcd60e51b815260040161071e90614cd5565b6002820180546001600160a01b0319166001600160a01b038881169182179092556000878152600d602052604090819020905188938b16916000805160206154fc833981519152916128ac9190614d17565b60405180910390a450506129ec565b60018160018111156128cf576128cf614c4d565b14156129ec576000838152601060209081526040808320548352600d9091528082209051600c916128ff91614c63565b9081526020016040518091039020600401612931600d6000878152602001908152602001600020805461093690614c12565b60405161293e9190614d9c565b90815260405190819003602001902060018101549091506001600160a01b039081169086168114156129825760405162461bcd60e51b815260040161071e90614cd5565b6001820180546001600160a01b0319166001600160a01b0388169081179091556000868152600d60205260409020805487929182916000805160206154fc833981519152916129d49161093690614c12565b6040516129e1919061480d565b60405180910390a450505b6129f885858585613ed9565b5050505050565b60008260405180604001604052806003815260200162e282bf60e81b815250604051602001612a2f929190614db8565b60408051601f1981840301815291905283519091506000612a508285612d7f565b905080341015612a955760405162461bcd60e51b815260206004820152601060248201526f496e73756666696369656e742066656560801b604482015260640161071e565b6000600c84604051612aa79190614d9c565b9081526040519081900360200190208054909150612ad75760405162461bcd60e51b815260040161071e90615135565b42816001015411612b505760405162461bcd60e51b815260206004820152603e60248201527f48616e646c652068617320657870697265642c20636c61696d2074686973206860448201527f616e646c65207573696e6720746865206d696e742066756e6374696f6e2e0000606482015260840161071e565b612b7a7f000000000000000000000000000000000000000000000000000000000000000086614fee565b816001016000828254612b8d9190614fd6565b90915550506007546040516001600160a01b03909116903480156108fc02916000818181858888f19350505050158015612bcb573d6000803e3d6000fd5b50805480612bd881611846565b6001600160a01b03167f034833ce460f4600eb9e6f25063abd3787bc1d36d60a3a5fd63f63b5eebda8c433888660010154604051610d2e93929190615164565b600080825111612c3a5760405162461bcd60e51b815260040161071e906150a3565b60008260405180604001604052806003815260200162e282bf60e81b815250604051602001612c6a929190614db8565b60405160208183030381529060405290506000600c82604051612c8d9190614d9c565b9081526040519081900360200190208054909150612cbd5760405162461bcd60e51b815260040161071e906150da565b60028101546001600160a01b03166000908152600e60205260408082209051612ce7908590614d9c565b9081526040519081900360200190205460ff600160a01b9091041695945050505050565b6060612d16826133ae565b6000612d2d60408051602081019091526000815290565b90506000815111612d4d5760405180602001604052806000815250612d78565b80612d5784613f0b565b604051602001612d68929190615198565b6040516020818303038152906040525b9392505050565b6000612d7883836000613fa0565b6000612d7883836001613fa0565b60008111612de65760405162461bcd60e51b8152602060048201526018602482015277496e76616c6964206164646974696f6e616c20796561727360401b604482015260640161071e565b6000612df183613441565b90506000612dfe84613496565b60405180604001604052806003815260200162e282bf60e81b815250604051602001612e2b929190614db8565b604051602081830303815290604052905060008251118015612e4e575060008151115b612ea65760405162461bcd60e51b815260206004820152602360248201527f496e76616c69642073756268616e646c6520616e6420706172656e742068616e604482015262646c6560e81b606482015260840161071e565b600c81604051612eb69190614d9c565b90815260405190819003602001902054612ee25760405162461bcd60e51b815260040161071e906150da565b6000600c82604051612ef49190614d9c565b908152602001604051809103902060040183604051612f139190614d9c565b9081526040519081900360200190208054909150612f435760405162461bcd60e51b815260040161071e906151c7565b42816002015411612fc85760405162461bcd60e51b815260206004820152604360248201527f53756268616e646c652068617320657870697265642c20636c61696d2074686960448201527f732073756268616e646c65207573696e6720746865206d696e742066756e637460648201526234b7b760e91b608482015260a40161071e565b82516000612fd68287612d8d565b90506000600c85604051612fea9190614d9c565b90815260405190819003602001902060020154336001600160a01b03909116149050806130b8578134101561305c5760405162461bcd60e51b8152602060048201526018602482015277496e73756666696369656e742072656e6577616c2066656560401b604482015260640161071e565b6000600c8660405161306e9190614d9c565b908152604051908190036020018120600201546001600160a01b0316915081903480156108fc02916000818181858888f193505050501580156130b5573d6000803e3d6000fd5b50505b8015806130c6575060018711155b61312d5760405162461bcd60e51b815260206004820152603260248201527f4d6178696d756d2072656e6577616c20796561727320666f7220706172656e746044820152712068616e646c65206f776e6572206973203160701b606482015260840161071e565b613157877f0000000000000000000000000000000000000000000000000000000000000000614fee565b84600201600082825461316a9190614fd6565b909155505083546040516000906131879089908990602001614db8565b60408051601f1981840301815291815287546000908152600d602090815291902082519293506131bb9290918401906146e9565b508554604051600f906131cf908490614d9c565b90815260200160405180910390208190555081600f826040516131f29190614d9c565b90815260200160405180910390208190555081600c886040516132159190614d9c565b9081526040519081900360200190206002015487546001600160a01b039091169061323f90611846565b6001600160a01b03167f0def05357173b35f75440d0c7a9251945509c3b27e76b8540e86963c35ba07e233858c8c6002015460405161328194939291906151f9565b60405180910390a450505050505050505050565b6001600160a01b03918216600090815260066020908152604080832093909416825291909152205460ff1690565b6132cb613a92565b6001600160a01b0381166133135760405162461bcd60e51b815260206004820152600f60248201526e496e76616c6964206164647265737360881b604482015260640161071e565b600780546001600160a01b0319166001600160a01b0392909216919091179055565b61333d613a92565b6001600160a01b0381166133a25760405162461bcd60e51b815260206004820152602660248201527f4f776e61626c653a206e6577206f776e657220697320746865207a65726f206160448201526564647265737360d01b606482015260840161071e565b6133ab81613aec565b50565b6133b7816140f7565b6133ab5760405162461bcd60e51b815260040161071e9061504f565b600081815260056020526040902080546001600160a01b0319166001600160a01b038416908117909155819061340882611846565b6001600160a01b03167f8c5be1e5ebec7d5bd14f71427d1e84f3dd0314c0f7b2291e5b200ac8c7c3b92560405160405180910390a45050565b606081600061344f82614114565b905061345d8460008361416d565b949350505050565b61346f3382614285565b61348b5760405162461bcd60e51b815260040161071e90615241565b6107bf8383836142e3565b60608160006134a482614114565b905061345d846134b5836001614fd6565b60018486516134c49190614eda565b6134ce9190614eda565b61416d565b600081815b600182516134e69190614eda565b811015613570578181815181106134ff576134ff614eae565b6020910101516001600160f81b031916602d60f81b14801561354f575081613528826001614fd6565b8151811061353857613538614eae565b6020910101516001600160f81b031916601760f91b145b1561355e575060019392505050565b8061356881614f37565b9150506134d8565b5060009392505050565b60008181805b82518110156135df57601760f91b6001600160f81b0319168382815181106135aa576135aa614eae565b01602001516001600160f81b03191614156135cd57816135c981614f37565b9250505b806135d781614f37565b915050613580565b509392505050565b6001600160a01b0381166000908152600e60205260408082209051829190613610908690614d9c565b9081526040519081900360200190205460ff600160a01b9091041691505092915050565b60008061364083613dbb565b9150915060008160405180604001604052806003815260200162e282bf60e81b815250604051602001613674929190614db8565b60405160208183030381529060405290506000600c826040516136979190614d9c565b9081526020016040518091039020600401846040516136b69190614d9c565b90815260405190819003602001902080549091506136e65760405162461bcd60e51b815260040161071e906151c7565b42816002015411156137355760405162461bcd60e51b815260206004820152601860248201527714dd589a185b991b19481a5cc81b9bdd08195e1c1a5c995960421b604482015260640161071e565b60006137448260000154611846565b60018301549091506001600160a01b038083169116146137be5760405162461bcd60e51b815260206004820152602f60248201527f4f6e6c792073756268616e646c65206f776e65722063616e206275726e20657860448201526e70697265642073756268616e646c6560881b606482015260840161071e565b81546137c990614447565b600085846040516020016137de929190614db8565b60405160208183030381529060405290508260000154826001600160a01b03167f8e9d688be86003e3f556295657fdc70723184b1994f7358037d9f86a6625406d83604051610d2e919061480d565b600081602d60f81b60015b82518110156138cf57816001600160f81b03191683828151811061385e5761385e614eae565b01602001516001600160f81b0319161480156138ad57506001600160f81b031982168361388c600184614eda565b8151811061389c5761389c614eae565b01602001516001600160f81b031916145b156138bd57506001949350505050565b806138c781614f37565b915050613838565b506000949350505050565b60408051808201909152600480825263786e2d2d60e01b6020830152825160009284929091106135705760005b815181101561397a5781818151811061392257613922614eae565b602001015160f81c60f81b6001600160f81b03191683828151811061394957613949614eae565b01602001516001600160f81b0319161461396857506000949350505050565b8061397281614f37565b915050613907565b506001949350505050565b6001600160a01b0382166139db5760405162461bcd60e51b815260206004820181905260248201527f4552433732313a206d696e7420746f20746865207a65726f2061646472657373604482015260640161071e565b6139e4816140f7565b15613a015760405162461bcd60e51b815260040161071e9061528e565b613a0a816140f7565b15613a275760405162461bcd60e51b815260040161071e9061528e565b6001600160a01b038216600081815260046020908152604080832080546001019055848352600390915280822080546001600160a01b0319168417905551839291907fddf252ad1be2c89b69c2b068fc378daa952ba7f163c4a11628f55a4df523b3ef908290a45050565b6000546001600160a01b031633146119bc5760405162461bcd60e51b815260206004820181905260248201527f4f776e61626c653a2063616c6c6572206973206e6f7420746865206f776e6572604482015260640161071e565b600080546001600160a01b038381166001600160a01b0319831681178455604051919092169283917f8be0079c531659141344cd1fd0a4f28419497f9722a3daafe3b4186f6b6457e09190a35050565b60008282825b8251811015613bb85781600081518110613b5e57613b5e614eae565b602001015160f81c60f81b6001600160f81b031916838281518110613b8557613b85614eae565b01602001516001600160f81b0319161415613ba657600193505050506105ea565b80613bb081614f37565b915050613b42565b50600095945050505050565b6000818152600d602052604081208054613bdd90614c12565b80601f0160208091040260200160405190810160405280929190818152602001828054613c0990614c12565b8015613c565780601f10613c2b57610100808354040283529160200191613c56565b820191906000526020600020905b815481529060010190602001808311613c3957829003601f168201915b505050505090506000600c82604051613c6f9190614d9c565b9081526040519081900360200190208054909150613c9f5760405162461bcd60e51b815260040161071e90615135565b4281600101541115613ceb5760405162461bcd60e51b815260206004820152601560248201527412185b991b19481a5cc81b9bdd08195e1c1a5c9959605a1b604482015260640161071e565b6000613cf684611846565b60028301549091506001600160a01b03808316911614613d6a5760405162461bcd60e51b815260206004820152602960248201527f4f6e6c7920706172656e74206f776e65722063616e206275726e20657870697260448201526865642068616e646c6560b81b606482015260840161071e565b613d7384614447565b83816001600160a01b03167f5c1f7b3601e4cd4a1078139c2f4b0099777ade51b09f3f9ea8f0ad4af6d601bf85604051613dad919061480d565b60405180910390a350505050565b606080826000613dca82614114565b90506000613dda8660008461416d565b90506000613dfc87613ded856001614fd6565b60018688516134c49190614eda565b919791965090945050505050565b816001600160a01b0316836001600160a01b03161415613e6c5760405162461bcd60e51b815260206004820152601960248201527f4552433732313a20617070726f766520746f2063616c6c657200000000000000604482015260640161071e565b6001600160a01b03838116600081815260066020908152604080832094871680845294825291829020805460ff191686151590811790915591519182527f17307eab39ab6107e8899845ad3d59bd9653f200f220920489ca2b5937696c31910160405180910390a3505050565b613ee33383614285565b613eff5760405162461bcd60e51b815260040161071e90615241565b610a7f848484846144dc565b60606000613f188361450f565b600101905060008167ffffffffffffffff811115613f3857613f386148bb565b6040519080825280601f01601f191660200182016040528015613f62576020820181803683370190505b5090508181016020015b600019016f181899199a1a9b1b9c1cb0b131b232b360811b600a86061a8153600a8504945084613f9b576135df565b613f6c565b60007f00000000000000000000000000000000000000000000000000000000000000008410158015613ff257507f00000000000000000000000000000000000000000000000000000000000000008411155b6140385760405162461bcd60e51b8152602060048201526017602482015276125b9d985b1a590818da185c9858dd195c8818dbdd5b9d604a1b604482015260640161071e565b6000600b54426140489190614eda565b905060006140767f0000000000000000000000000000000000000000000000000000000000000000836152db565b905060006140856009836152ef565b614090906001614fd6565b90506000856140ad576000888152601660205260409020546140bd565b6000888152601760205260409020545b90506140c98782614fee565b90506140d6600183614eda565b6140e19060026153e7565b6140eb90826152db565b98975050505050505050565b6000908152600360205260409020546001600160a01b0316151590565b600080600183516141259190614eda565b90505b82818151811061413a5761413a614eae565b6020910101516001600160f81b031916601760f91b141561415b5792915050565b80614165816153f3565b915050614128565b8251606090849061417e8486614fd6565b11156141c75760405162461bcd60e51b8152602060048201526018602482015277092dcecc2d8d2c840e6eac4e6e8e4d2dcce40d8cadccee8d60431b604482015260640161071e565b60008367ffffffffffffffff8111156141e2576141e26148bb565b6040519080825280601f01601f19166020018201604052801561420c576020820181803683370190505b50905060005b8481101561427b57826142258288614fd6565b8151811061423557614235614eae565b602001015160f81c60f81b82828151811061425257614252614eae565b60200101906001600160f81b031916908160001a9053508061427381614f37565b915050614212565b5095945050505050565b60008061429183611846565b9050806001600160a01b0316846001600160a01b031614806142b857506142b88185613295565b8061345d5750836001600160a01b03166142d184610682565b6001600160a01b031614949350505050565b826001600160a01b03166142f682611846565b6001600160a01b03161461431c5760405162461bcd60e51b815260040161071e9061540a565b6001600160a01b03821661437e5760405162461bcd60e51b8152602060048201526024808201527f4552433732313a207472616e7366657220746f20746865207a65726f206164646044820152637265737360e01b606482015260840161071e565b826001600160a01b031661439182611846565b6001600160a01b0316146143b75760405162461bcd60e51b815260040161071e9061540a565b600081815260056020908152604080832080546001600160a01b03199081169091556001600160a01b0387811680865260048552838620805460001901905590871680865283862080546001019055868652600390945282852080549092168417909155905184937fddf252ad1be2c89b69c2b068fc378daa952ba7f163c4a11628f55a4df523b3ef91a4505050565b600061445282611846565b905061445d82611846565b600083815260056020908152604080832080546001600160a01b03199081169091556001600160a01b0385168085526004845282852080546000190190558785526003909352818420805490911690555192935084927fddf252ad1be2c89b69c2b068fc378daa952ba7f163c4a11628f55a4df523b3ef908390a45050565b6144e78484846142e3565b6144f3848484846145e7565b610a7f5760405162461bcd60e51b815260040161071e9061544f565b60008072184f03e93ff9f4daa797ed6e38ed64bf6a1f0160401b831061454e5772184f03e93ff9f4daa797ed6e38ed64bf6a1f0160401b830492506040015b6d04ee2d6d415b85acef8100000000831061457a576d04ee2d6d415b85acef8100000000830492506020015b662386f26fc10000831061459857662386f26fc10000830492506010015b6305f5e10083106145b0576305f5e100830492506008015b61271083106145c457612710830492506004015b606483106145d6576064830492506002015b600a83106105ea5760010192915050565b60006001600160a01b0384163b1561397a57604051630a85bd0160e11b81526001600160a01b0385169063150b7a029061462b9033908990889088906004016154a1565b602060405180830381600087803b15801561464557600080fd5b505af1925050508015614675575060408051601f3d908101601f19168201909252614672918101906154de565b60015b6146cf573d8080156146a3576040519150601f19603f3d011682016040523d82523d6000602084013e6146a8565b606091505b5080516146c75760405162461bcd60e51b815260040161071e9061544f565b805181602001fd5b6001600160e01b031916630a85bd0160e11b14905061345d565b8280546146f590614c12565b90600052602060002090601f016020900481019282614717576000855561475d565b82601f1061473057805160ff191683800117855561475d565b8280016001018555821561475d579182015b8281111561475d578251825591602001919060010190614742565b5061476992915061476d565b5090565b5b80821115614769576000815560010161476e565b6001600160e01b0319811681146133ab57600080fd5b6000602082840312156147aa57600080fd5b8135612d7881614782565b60005b838110156147d05781810151838201526020016147b8565b83811115610a7f5750506000910152565b600081518084526147f98160208601602086016147b5565b601f01601f19169290920160200192915050565b602081526000612d7860208301846147e1565b60006020828403121561483257600080fd5b5035919050565b80356001600160a01b038116811461485057600080fd5b919050565b6000806040838503121561486857600080fd5b61487183614839565b946020939093013593505050565b60008060006060848603121561489457600080fd5b61489d84614839565b92506148ab60208501614839565b9150604084013590509250925092565b634e487b7160e01b600052604160045260246000fd5b600067ffffffffffffffff808411156148ec576148ec6148bb565b604051601f8501601f19908116603f01168101908282118183101715614914576149146148bb565b8160405280935085815286868601111561492d57600080fd5b858560208301376000602087830101525050509392505050565b600082601f83011261495857600080fd5b612d78838335602085016148d1565b6000806040838503121561497a57600080fd5b823567ffffffffffffffff8082111561499257600080fd5b61499e86838701614947565b935060208501359150808211156149b457600080fd5b506149c185828601614947565b9150509250929050565b6000602082840312156149dd57600080fd5b612d7882614839565b600080604083850312156149f957600080fd5b823567ffffffffffffffff811115614a1057600080fd5b614a1c85828601614947565b95602094909401359450505050565b600060208284031215614a3d57600080fd5b813567ffffffffffffffff811115614a5457600080fd5b61345d84828501614947565b60208152815160208201526000602083015160018060a01b038082166040850152604085015160608501528060608601511660808501525050608083015160a08084015261345d60c08401826147e1565b602081528151602082015260018060a01b03602083015116604082015260408201516060820152606082015160808201526000608083015160a08084015261345d60c08401826147e1565b80151581146133ab57600080fd5b60008060408385031215614b1d57600080fd5b614b2683614839565b91506020830135614b3681614afc565b809150509250929050565b60008060008060808587031215614b5757600080fd5b614b6085614839565b9350614b6e60208601614839565b925060408501359150606085013567ffffffffffffffff811115614b9157600080fd5b8501601f81018713614ba257600080fd5b614bb1878235602084016148d1565b91505092959194509250565b60008060408385031215614bd057600080fd5b50508035926020909101359150565b60008060408385031215614bf257600080fd5b614bfb83614839565b9150614c0960208401614839565b90509250929050565b600181811c90821680614c2657607f821691505b60208210811415614c4757634e487b7160e01b600052602260045260246000fd5b50919050565b634e487b7160e01b600052602160045260246000fd5b6000808354614c7181614c12565b60018281168015614c895760018114614c9a57614cc9565b60ff19841687528287019450614cc9565b8760005260208060002060005b85811015614cc05781548a820152908401908201614ca7565b50505082870194505b50929695505050505050565b60208082526022908201527f4e6577206f776e65722069732073616d652061732063757272656e74206f776e60408201526132b960f11b606082015260800190565b6000602080835260008454614d2b81614c12565b80848701526040600180841660008114614d4c5760018114614d6057614d8e565b60ff19851689840152606089019550614d8e565b896000528660002060005b85811015614d865781548b8201860152908301908801614d6b565b8a0184019650505b509398975050505050505050565b60008251614dae8184602087016147b5565b9190910192915050565b60008351614dca8184602088016147b5565b601760f91b9083019081528351614de88160018401602088016147b5565b01600101949350505050565b604081526000614e0760408301856147e1565b8281036020840152614e1981856147e1565b95945050505050565b600060208284031215614e3457600080fd5b8151612d7881614afc565b7f303132333435363738396162636465666768696a6b6c6d6e6f707172737475768152653bbc3cbd169760d11b602082015260260190565b6020808252601d908201527f48616e646c65206e616d65206d757374206e6f7420626520656d707479000000604082015260600190565b634e487b7160e01b600052603260045260246000fd5b634e487b7160e01b600052601160045260246000fd5b600082821015614eec57614eec614ec4565b500390565b60208082526026908201527f48616e646c652063616e6e6f7420636f6e7461696e20636f6e736563757469766040820152656520646f747360d01b606082015260800190565b6000600019821415614f4b57614f4b614ec4565b5060010190565b6020808252818101527f496e76616c69642063686172616374657220696e2068616e646c65206e616d65604082015260600190565b6020808252602f908201527f48616e646c652063616e6e6f74207374617274206f7220656e6420776974682060408201526e18481a1e5c1a195b881bdc88191bdd608a1b606082015260800190565b60008219821115614fe957614fe9614ec4565b500190565b600081600019048311821515161561500857615008614ec4565b500290565b60808152600061502060808301876147e1565b828103602084015261503281876147e1565b6001600160a01b0395909516604084015250506060015292915050565b602080825260189082015277115490cdcc8c4e881a5b9d985b1a59081d1bdad95b88125160421b604082015260600190565b60408152600061509460408301856147e1565b90508260208301529392505050565b6020808252601a908201527f496e76616c696420706172656e742068616e646c65206e616d65000000000000604082015260600190565b6020808252601c908201527f506172656e742068616e646c65206e6f74207265676973746572656400000000604082015260600190565b60408152600061512460408301856147e1565b905082151560208301529392505050565b60208082526015908201527412185b991b19481b9bdd081c9959da5cdd195c9959605a1b604082015260600190565b6001600160a01b0384168152606060208201819052600090615188908301856147e1565b9050826040830152949350505050565b600083516151aa8184602088016147b5565b8351908301906151be8183602088016147b5565b01949350505050565b60208082526018908201527714dd589a185b991b19481b9bdd081c9959da5cdd195c995960421b604082015260600190565b6001600160a01b038516815260806020820181905260009061521d908301866147e1565b828103604084015261522f81866147e1565b91505082606083015295945050505050565b6020808252602d908201527f4552433732313a2063616c6c6572206973206e6f7420746f6b656e206f776e6560408201526c1c881bdc88185c1c1c9bdd9959609a1b606082015260800190565b6020808252601c908201527f4552433732313a20746f6b656e20616c7265616479206d696e74656400000000604082015260600190565b634e487b7160e01b600052601260045260246000fd5b6000826152ea576152ea6152c5565b500490565b6000826152fe576152fe6152c5565b500690565b600181815b8085111561533e57816000190482111561532457615324614ec4565b8085161561533157918102915b93841c9390800290615308565b509250929050565b600082615355575060016105ea565b81615362575060006105ea565b816001811461537857600281146153825761539e565b60019150506105ea565b60ff84111561539357615393614ec4565b50506001821b6105ea565b5060208310610133831016604e8410600b84101617156153c1575081810a6105ea565b6153cb8383615303565b80600019048211156153df576153df614ec4565b029392505050565b6000612d788383615346565b60008161540257615402614ec4565b506000190190565b60208082526025908201527f4552433732313a207472616e736665722066726f6d20696e636f72726563742060408201526437bbb732b960d91b606082015260800190565b60208082526032908201527f4552433732313a207472616e7366657220746f206e6f6e20455243373231526560408201527131b2b4bb32b91034b6b83632b6b2b73a32b960711b606082015260800190565b6001600160a01b03858116825284166020820152604081018390526080606082018190526000906154d4908301846147e1565b9695505050505050565b6000602082840312156154f057600080fd5b8151612d788161478256fe80b3e37e8efb0068684d1c039390494c47111fbe3c5498a148f5e6f03389fd91a264697066735822122080cfbfa6168cef027bafe7a111d9c9fdad7cc98a823abacd01a5a00faaf2a8c664736f6c63430008090033",
			"opcodes": "PUSH2 0x100 PUSH1 0x40 MSTORE PUSH4 0x1E13380 PUSH1 0x80 MSTORE PUSH1 0x12 PUSH1 0xA0 MSTORE PUSH1 0x1 PUSH1 0xC0 MSTORE PUSH4 0xF099C00 PUSH1 0xE0 MSTORE CALLVALUE DUP1 ISZERO PUSH3 0x2C JUMPI PUSH1 0x0 DUP1 REVERT JUMPDEST POP PUSH1 0x40 MLOAD PUSH3 0x5A4E CODESIZE SUB DUP1 PUSH3 0x5A4E DUP4 CODECOPY DUP2 ADD PUSH1 0x40 DUP2 SWAP1 MSTORE PUSH3 0x4F SWAP2 PUSH3 0x40F JUMP JUMPDEST PUSH1 0x40 MLOAD DUP1 PUSH1 0x40 ADD PUSH1 0x40 MSTORE DUP1 PUSH1 0x4 DUP2 MSTORE PUSH1 0x20 ADD PUSH4 0x12139113 PUSH1 0xE2 SHL DUP2 MSTORE POP PUSH1 0x40 MLOAD DUP1 PUSH1 0x40 ADD PUSH1 0x40 MSTORE DUP1 PUSH1 0x4 DUP2 MSTORE PUSH1 0x20 ADD PUSH4 0x2EE282BF PUSH1 0xE0 SHL DUP2 MSTORE POP PUSH3 0xA3 PUSH3 0x9D PUSH3 0x2F8 PUSH1 0x20 SHL PUSH1 0x20 SHR JUMP JUMPDEST PUSH3 0x2FC JUMP JUMPDEST DUP2 MLOAD PUSH3 0xB8 SWAP1 PUSH1 0x1 SWAP1 PUSH1 0x20 DUP6 ADD SWAP1 PUSH3 0x34C JUMP JUMPDEST POP DUP1 MLOAD PUSH3 0xCE SWAP1 PUSH1 0x2 SWAP1 PUSH1 0x20 DUP5 ADD SWAP1 PUSH3 0x34C JUMP JUMPDEST POP POP PUSH1 0x7 DUP1 SLOAD PUSH1 0x1 PUSH1 0x1 PUSH1 0xA0 SHL SUB DUP1 DUP7 AND PUSH1 0x1 PUSH1 0x1 PUSH1 0xA0 SHL SUB NOT SWAP3 DUP4 AND OR SWAP1 SWAP3 SSTORE PUSH1 0x8 DUP1 SLOAD SWAP3 DUP6 AND SWAP3 SWAP1 SWAP2 AND SWAP2 SWAP1 SWAP2 OR SWAP1 SSTORE POP TIMESTAMP PUSH1 0xB SSTORE PUSH8 0xDE0B6B3A7640000 PUSH32 0x4C4DC693D7DB52F85FE052106F4B4B920E78E8EF37DEE82878A60AB8585FAF49 SSTORE PUSH8 0x3782DACE9D90000 PUSH32 0xCAFF291FE014ADC6B72A172705750B4CABE8F8667664D2924A166CAAB2885648 SSTORE PUSH7 0x354A6BA7A18000 PUSH32 0xF06D282F967055CB1EEE17E04AA005B9682A620F4BBCFAEE55BA78607A3D87AE SSTORE PUSH7 0x11C37937E08000 PUSH32 0xEC061709DE2491458F4C981032059D7D19B0E55F45018BAC6B3E660BDC959A59 SSTORE PUSH1 0x17 PUSH1 0x20 MSTORE PUSH8 0x6F05B59D3B20000 PUSH32 0xF36D6BC9642EB6FB6EE9998B09CE990566DF752AB06E11F8DE7AB633BBD57B8F SSTORE PUSH8 0x1BC16D674EC8000 PUSH32 0xC52DF653038B2AD477D8D97F1DDD63CFD138847B628AD8A7B89C109C3F8782CA SSTORE PUSH7 0x1AA535D3D0C000 PUSH32 0xD8B2BCED50346359AF71F91110B86CDF684B6AB1C6CA64A7583C044D5C24DE5C SSTORE PUSH1 0x4 PUSH1 0x0 MSTORE PUSH7 0x8E1BC9BF04000 PUSH32 0x68052A315987B3C92FE6F7DF77391BC5A825CABE4950D34F36F8F4E8A6ABCB4D SSTORE PUSH1 0x5 JUMPDEST PUSH1 0xE DUP2 GT PUSH3 0x2A9 JUMPI PUSH1 0x0 DUP2 DUP2 MSTORE PUSH1 0x16 PUSH1 0x20 SWAP1 DUP2 MSTORE PUSH1 0x40 DUP1 DUP4 KECCAK256 PUSH6 0xB5E620F48000 SWAP1 DUP2 SWAP1 SSTORE PUSH1 0x17 SWAP1 SWAP3 MSTORE SWAP1 SWAP2 KECCAK256 SSTORE DUP1 PUSH3 0x2A0 DUP2 PUSH3 0x447 JUMP JUMPDEST SWAP2 POP POP PUSH3 0x266 JUMP JUMPDEST POP PUSH1 0xF JUMPDEST PUSH1 0x12 DUP2 GT PUSH3 0x2EF JUMPI PUSH1 0x0 DUP2 DUP2 MSTORE PUSH1 0x16 PUSH1 0x20 SWAP1 DUP2 MSTORE PUSH1 0x40 DUP1 DUP4 KECCAK256 PUSH5 0x438558D400 SWAP1 DUP2 SWAP1 SSTORE PUSH1 0x17 SWAP1 SWAP3 MSTORE SWAP1 SWAP2 KECCAK256 SSTORE DUP1 PUSH3 0x2E6 DUP2 PUSH3 0x447 JUMP JUMPDEST SWAP2 POP POP PUSH3 0x2AD JUMP JUMPDEST POP POP POP PUSH3 0x4AE JUMP JUMPDEST CALLER SWAP1 JUMP JUMPDEST PUSH1 0x0 DUP1 SLOAD PUSH1 0x1 PUSH1 0x1 PUSH1 0xA0 SHL SUB DUP4 DUP2 AND PUSH1 0x1 PUSH1 0x1 PUSH1 0xA0 SHL SUB NOT DUP4 AND DUP2 OR DUP5 SSTORE PUSH1 0x40 MLOAD SWAP2 SWAP1 SWAP3 AND SWAP3 DUP4 SWAP2 PUSH32 0x8BE0079C531659141344CD1FD0A4F28419497F9722A3DAAFE3B4186F6B6457E0 SWAP2 SWAP1 LOG3 POP POP JUMP JUMPDEST DUP3 DUP1 SLOAD PUSH3 0x35A SWAP1 PUSH3 0x471 JUMP JUMPDEST SWAP1 PUSH1 0x0 MSTORE PUSH1 0x20 PUSH1 0x0 KECCAK256 SWAP1 PUSH1 0x1F ADD PUSH1 0x20 SWAP1 DIV DUP2 ADD SWAP3 DUP3 PUSH3 0x37E JUMPI PUSH1 0x0 DUP6 SSTORE PUSH3 0x3C9 JUMP JUMPDEST DUP3 PUSH1 0x1F LT PUSH3 0x399 JUMPI DUP1 MLOAD PUSH1 0xFF NOT AND DUP4 DUP1 ADD OR DUP6 SSTORE PUSH3 0x3C9 JUMP JUMPDEST DUP3 DUP1 ADD PUSH1 0x1 ADD DUP6 SSTORE DUP3 ISZERO PUSH3 0x3C9 JUMPI SWAP2 DUP3 ADD JUMPDEST DUP3 DUP2 GT ISZERO PUSH3 0x3C9 JUMPI DUP3 MLOAD DUP3 SSTORE SWAP2 PUSH1 0x20 ADD SWAP2 SWAP1 PUSH1 0x1 ADD SWAP1 PUSH3 0x3AC JUMP JUMPDEST POP PUSH3 0x3D7 SWAP3 SWAP2 POP PUSH3 0x3DB JUMP JUMPDEST POP SWAP1 JUMP JUMPDEST JUMPDEST DUP1 DUP3 GT ISZERO PUSH3 0x3D7 JUMPI PUSH1 0x0 DUP2 SSTORE PUSH1 0x1 ADD PUSH3 0x3DC JUMP JUMPDEST DUP1 MLOAD PUSH1 0x1 PUSH1 0x1 PUSH1 0xA0 SHL SUB DUP2 AND DUP2 EQ PUSH3 0x40A JUMPI PUSH1 0x0 DUP1 REVERT JUMPDEST SWAP2 SWAP1 POP JUMP JUMPDEST PUSH1 0x0 DUP1 PUSH1 0x40 DUP4 DUP6 SUB SLT ISZERO PUSH3 0x423 JUMPI PUSH1 0x0 DUP1 REVERT JUMPDEST PUSH3 0x42E DUP4 PUSH3 0x3F2 JUMP JUMPDEST SWAP2 POP PUSH3 0x43E PUSH1 0x20 DUP5 ADD PUSH3 0x3F2 JUMP JUMPDEST SWAP1 POP SWAP3 POP SWAP3 SWAP1 POP JUMP JUMPDEST PUSH1 0x0 PUSH1 0x0 NOT DUP3 EQ ISZERO PUSH3 0x46A JUMPI PUSH4 0x4E487B71 PUSH1 0xE0 SHL PUSH1 0x0 MSTORE PUSH1 0x11 PUSH1 0x4 MSTORE PUSH1 0x24 PUSH1 0x0 REVERT JUMPDEST POP PUSH1 0x1 ADD SWAP1 JUMP JUMPDEST PUSH1 0x1 DUP2 DUP2 SHR SWAP1 DUP3 AND DUP1 PUSH3 0x486 JUMPI PUSH1 0x7F DUP3 AND SWAP2 POP JUMPDEST PUSH1 0x20 DUP3 LT DUP2 EQ ISZERO PUSH3 0x4A8 JUMPI PUSH4 0x4E487B71 PUSH1 0xE0 SHL PUSH1 0x0 MSTORE PUSH1 0x22 PUSH1 0x4 MSTORE PUSH1 0x24 PUSH1 0x0 REVERT JUMPDEST POP SWAP2 SWAP1 POP JUMP JUMPDEST PUSH1 0x80 MLOAD PUSH1 0xA0 MLOAD PUSH1 0xC0 MLOAD PUSH1 0xE0 MLOAD PUSH2 0x5551 PUSH3 0x4FD PUSH1 0x0 CODECOPY PUSH1 0x0 PUSH2 0x4051 ADD MSTORE PUSH1 0x0 PUSH2 0x3FA4 ADD MSTORE PUSH1 0x0 PUSH2 0x3FCF ADD MSTORE PUSH1 0x0 DUP2 DUP2 PUSH2 0x1707 ADD MSTORE DUP2 DUP2 PUSH2 0x1FBE ADD MSTORE DUP2 DUP2 PUSH2 0x2B55 ADD MSTORE PUSH2 0x3133 ADD MSTORE PUSH2 0x5551 PUSH1 0x0 RETURN INVALID PUSH1 0x80 PUSH1 0x40 MSTORE PUSH1 0x4 CALLDATASIZE LT PUSH2 0x1A3 JUMPI PUSH1 0x0 CALLDATALOAD PUSH1 0xE0 SHR DUP1 PUSH4 0x926B13CF GT PUSH2 0xE2 JUMPI DUP1 PUSH4 0xC4A93D27 GT PUSH2 0x85 JUMPI DUP1 PUSH4 0xC4A93D27 EQ PUSH2 0x4AB JUMPI DUP1 PUSH4 0xC87B56DD EQ PUSH2 0x4CB JUMPI DUP1 PUSH4 0xCD43D1F3 EQ PUSH2 0x4EB JUMPI DUP1 PUSH4 0xD382BE68 EQ PUSH2 0x50B JUMPI DUP1 PUSH4 0xE8CB3146 EQ PUSH2 0x52B JUMPI DUP1 PUSH4 0xE985E9C5 EQ PUSH2 0x53E JUMPI DUP1 PUSH4 0xF160D369 EQ PUSH2 0x55E JUMPI DUP1 PUSH4 0xF2FDE38B EQ PUSH2 0x57E JUMPI PUSH1 0x0 DUP1 REVERT JUMPDEST DUP1 PUSH4 0x926B13CF EQ PUSH2 0x3C3 JUMPI DUP1 PUSH4 0x93D7E73B EQ PUSH2 0x3D6 JUMPI DUP1 PUSH4 0x95D89B41 EQ PUSH2 0x403 JUMPI DUP1 PUSH4 0x9BE40ED6 EQ PUSH2 0x418 JUMPI DUP1 PUSH4 0x9CA005BD EQ PUSH2 0x445 JUMPI DUP1 PUSH4 0xA22CB465 EQ PUSH2 0x458 JUMPI DUP1 PUSH4 0xB88D4FDE EQ PUSH2 0x478 JUMPI DUP1 PUSH4 0xC29E9E26 EQ PUSH2 0x498 JUMPI PUSH1 0x0 DUP1 REVERT JUMPDEST DUP1 PUSH4 0x42842E0E GT PUSH2 0x14A JUMPI DUP1 PUSH4 0x42842E0E EQ PUSH2 0x2D9 JUMPI DUP1 PUSH4 0x5049485D EQ PUSH2 0x2F9 JUMPI DUP1 PUSH4 0x610C4257 EQ PUSH2 0x31D JUMPI DUP1 PUSH4 0x6352211E EQ PUSH2 0x330 JUMPI DUP1 PUSH4 0x6E482670 EQ PUSH2 0x350 JUMPI DUP1 PUSH4 0x70A08231 EQ PUSH2 0x370 JUMPI DUP1 PUSH4 0x715018A6 EQ PUSH2 0x390 JUMPI DUP1 PUSH4 0x8DA5CB5B EQ PUSH2 0x3A5 JUMPI PUSH1 0x0 DUP1 REVERT JUMPDEST DUP1 PUSH4 0x1FFC9A7 EQ PUSH2 0x1A8 JUMPI DUP1 PUSH4 0x6FDDE03 EQ PUSH2 0x1DD JUMPI DUP1 PUSH4 0x81812FC EQ PUSH2 0x1FF JUMPI DUP1 PUSH4 0x95EA7B3 EQ PUSH2 0x237 JUMPI DUP1 PUSH4 0x23B872DD EQ PUSH2 0x259 JUMPI DUP1 PUSH4 0x2CA0F70D EQ PUSH2 0x279 JUMPI DUP1 PUSH4 0x3AF32ABF EQ PUSH2 0x299 JUMPI DUP1 PUSH4 0x3FEECD9C EQ PUSH2 0x2B9 JUMPI JUMPDEST PUSH1 0x0 DUP1 REVERT JUMPDEST CALLVALUE DUP1 ISZERO PUSH2 0x1B4 JUMPI PUSH1 0x0 DUP1 REVERT JUMPDEST POP PUSH2 0x1C8 PUSH2 0x1C3 CALLDATASIZE PUSH1 0x4 PUSH2 0x4798 JUMP JUMPDEST PUSH2 0x59E JUMP JUMPDEST PUSH1 0x40 MLOAD SWAP1 ISZERO ISZERO DUP2 MSTORE PUSH1 0x20 ADD JUMPDEST PUSH1 0x40 MLOAD DUP1 SWAP2 SUB SWAP1 RETURN JUMPDEST CALLVALUE DUP1 ISZERO PUSH2 0x1E9 JUMPI PUSH1 0x0 DUP1 REVERT JUMPDEST POP PUSH2 0x1F2 PUSH2 0x5F0 JUMP JUMPDEST PUSH1 0x40 MLOAD PUSH2 0x1D4 SWAP2 SWAP1 PUSH2 0x480D JUMP JUMPDEST CALLVALUE DUP1 ISZERO PUSH2 0x20B JUMPI PUSH1 0x0 DUP1 REVERT JUMPDEST POP PUSH2 0x21F PUSH2 0x21A CALLDATASIZE PUSH1 0x4 PUSH2 0x4820 JUMP JUMPDEST PUSH2 0x682 JUMP JUMPDEST PUSH1 0x40 MLOAD PUSH1 0x1 PUSH1 0x1 PUSH1 0xA0 SHL SUB SWAP1 SWAP2 AND DUP2 MSTORE PUSH1 0x20 ADD PUSH2 0x1D4 JUMP JUMPDEST CALLVALUE DUP1 ISZERO PUSH2 0x243 JUMPI PUSH1 0x0 DUP1 REVERT JUMPDEST POP PUSH2 0x257 PUSH2 0x252 CALLDATASIZE PUSH1 0x4 PUSH2 0x4855 JUMP JUMPDEST PUSH2 0x6A9 JUMP JUMPDEST STOP JUMPDEST CALLVALUE DUP1 ISZERO PUSH2 0x265 JUMPI PUSH1 0x0 DUP1 REVERT JUMPDEST POP PUSH2 0x257 PUSH2 0x274 CALLDATASIZE PUSH1 0x4 PUSH2 0x487F JUMP JUMPDEST PUSH2 0x7C4 JUMP JUMPDEST CALLVALUE DUP1 ISZERO PUSH2 0x285 JUMPI PUSH1 0x0 DUP1 REVERT JUMPDEST POP PUSH2 0x257 PUSH2 0x294 CALLDATASIZE PUSH1 0x4 PUSH2 0x4967 JUMP JUMPDEST PUSH2 0xA85 JUMP JUMPDEST CALLVALUE DUP1 ISZERO PUSH2 0x2A5 JUMPI PUSH1 0x0 DUP1 REVERT JUMPDEST POP PUSH2 0x1C8 PUSH2 0x2B4 CALLDATASIZE PUSH1 0x4 PUSH2 0x49CB JUMP JUMPDEST PUSH2 0xD3F JUMP JUMPDEST CALLVALUE DUP1 ISZERO PUSH2 0x2C5 JUMPI PUSH1 0x0 DUP1 REVERT JUMPDEST POP PUSH2 0x257 PUSH2 0x2D4 CALLDATASIZE PUSH1 0x4 PUSH2 0x4967 JUMP JUMPDEST PUSH2 0xDBD JUMP JUMPDEST CALLVALUE DUP1 ISZERO PUSH2 0x2E5 JUMPI PUSH1 0x0 DUP1 REVERT JUMPDEST POP PUSH2 0x257 PUSH2 0x2F4 CALLDATASIZE PUSH1 0x4 PUSH2 0x487F JUMP JUMPDEST PUSH2 0xFD7 JUMP JUMPDEST CALLVALUE DUP1 ISZERO PUSH2 0x305 JUMPI PUSH1 0x0 DUP1 REVERT JUMPDEST POP PUSH2 0x30F PUSH1 0xB SLOAD DUP2 JUMP JUMPDEST PUSH1 0x40 MLOAD SWAP1 DUP2 MSTORE PUSH1 0x20 ADD PUSH2 0x1D4 JUMP JUMPDEST PUSH2 0x257 PUSH2 0x32B CALLDATASIZE PUSH1 0x4 PUSH2 0x49E6 JUMP JUMPDEST PUSH2 0xFF2 JUMP JUMPDEST CALLVALUE DUP1 ISZERO PUSH2 0x33C JUMPI PUSH1 0x0 DUP1 REVERT JUMPDEST POP PUSH2 0x21F PUSH2 0x34B CALLDATASIZE PUSH1 0x4 PUSH2 0x4820 JUMP JUMPDEST PUSH2 0x1846 JUMP JUMPDEST CALLVALUE DUP1 ISZERO PUSH2 0x35C JUMPI PUSH1 0x0 DUP1 REVERT JUMPDEST POP PUSH2 0x257 PUSH2 0x36B CALLDATASIZE PUSH1 0x4 PUSH2 0x4820 JUMP JUMPDEST PUSH2 0x187B JUMP JUMPDEST CALLVALUE DUP1 ISZERO PUSH2 0x37C JUMPI PUSH1 0x0 DUP1 REVERT JUMPDEST POP PUSH2 0x30F PUSH2 0x38B CALLDATASIZE PUSH1 0x4 PUSH2 0x49CB JUMP JUMPDEST PUSH2 0x1924 JUMP JUMPDEST CALLVALUE DUP1 ISZERO PUSH2 0x39C JUMPI PUSH1 0x0 DUP1 REVERT JUMPDEST POP PUSH2 0x257 PUSH2 0x19AA JUMP JUMPDEST CALLVALUE DUP1 ISZERO PUSH2 0x3B1 JUMPI PUSH1 0x0 DUP1 REVERT JUMPDEST POP PUSH1 0x0 SLOAD PUSH1 0x1 PUSH1 0x1 PUSH1 0xA0 SHL SUB AND PUSH2 0x21F JUMP JUMPDEST PUSH2 0x257 PUSH2 0x3D1 CALLDATASIZE PUSH1 0x4 PUSH2 0x49E6 JUMP JUMPDEST PUSH2 0x19BE JUMP JUMPDEST CALLVALUE DUP1 ISZERO PUSH2 0x3E2 JUMPI PUSH1 0x0 DUP1 REVERT JUMPDEST POP PUSH2 0x3F6 PUSH2 0x3F1 CALLDATASIZE PUSH1 0x4 PUSH2 0x4A2B JUMP JUMPDEST PUSH2 0x2145 JUMP JUMPDEST PUSH1 0x40 MLOAD PUSH2 0x1D4 SWAP2 SWAP1 PUSH2 0x4A60 JUMP JUMPDEST CALLVALUE DUP1 ISZERO PUSH2 0x40F JUMPI PUSH1 0x0 DUP1 REVERT JUMPDEST POP PUSH2 0x1F2 PUSH2 0x2382 JUMP JUMPDEST CALLVALUE DUP1 ISZERO PUSH2 0x424 JUMPI PUSH1 0x0 DUP1 REVERT JUMPDEST POP PUSH2 0x438 PUSH2 0x433 CALLDATASIZE PUSH1 0x4 PUSH2 0x4A2B JUMP JUMPDEST PUSH2 0x2391 JUMP JUMPDEST PUSH1 0x40 MLOAD PUSH2 0x1D4 SWAP2 SWAP1 PUSH2 0x4AB1 JUMP JUMPDEST PUSH2 0x257 PUSH2 0x453 CALLDATASIZE PUSH1 0x4 PUSH2 0x4A2B JUMP JUMPDEST PUSH2 0x2562 JUMP JUMPDEST CALLVALUE DUP1 ISZERO PUSH2 0x464 JUMPI PUSH1 0x0 DUP1 REVERT JUMPDEST POP PUSH2 0x257 PUSH2 0x473 CALLDATASIZE PUSH1 0x4 PUSH2 0x4B0A JUMP JUMPDEST PUSH2 0x27B0 JUMP JUMPDEST CALLVALUE DUP1 ISZERO PUSH2 0x484 JUMPI PUSH1 0x0 DUP1 REVERT JUMPDEST POP PUSH2 0x257 PUSH2 0x493 CALLDATASIZE PUSH1 0x4 PUSH2 0x4B41 JUMP JUMPDEST PUSH2 0x27BF JUMP JUMPDEST PUSH2 0x257 PUSH2 0x4A6 CALLDATASIZE PUSH1 0x4 PUSH2 0x49E6 JUMP JUMPDEST PUSH2 0x29FF JUMP JUMPDEST CALLVALUE DUP1 ISZERO PUSH2 0x4B7 JUMPI PUSH1 0x0 DUP1 REVERT JUMPDEST POP PUSH2 0x1C8 PUSH2 0x4C6 CALLDATASIZE PUSH1 0x4 PUSH2 0x4A2B JUMP JUMPDEST PUSH2 0x2C18 JUMP JUMPDEST CALLVALUE DUP1 ISZERO PUSH2 0x4D7 JUMPI PUSH1 0x0 DUP1 REVERT JUMPDEST POP PUSH2 0x1F2 PUSH2 0x4E6 CALLDATASIZE PUSH1 0x4 PUSH2 0x4820 JUMP JUMPDEST PUSH2 0x2D0B JUMP JUMPDEST CALLVALUE DUP1 ISZERO PUSH2 0x4F7 JUMPI PUSH1 0x0 DUP1 REVERT JUMPDEST POP PUSH2 0x30F PUSH2 0x506 CALLDATASIZE PUSH1 0x4 PUSH2 0x4BBD JUMP JUMPDEST PUSH2 0x2D7F JUMP JUMPDEST CALLVALUE DUP1 ISZERO PUSH2 0x517 JUMPI PUSH1 0x0 DUP1 REVERT JUMPDEST POP PUSH2 0x30F PUSH2 0x526 CALLDATASIZE PUSH1 0x4 PUSH2 0x4BBD JUMP JUMPDEST PUSH2 0x2D8D JUMP JUMPDEST PUSH2 0x257 PUSH2 0x539 CALLDATASIZE PUSH1 0x4 PUSH2 0x49E6 JUMP JUMPDEST PUSH2 0x2D9B JUMP JUMPDEST CALLVALUE DUP1 ISZERO PUSH2 0x54A JUMPI PUSH1 0x0 DUP1 REVERT JUMPDEST POP PUSH2 0x1C8 PUSH2 0x559 CALLDATASIZE PUSH1 0x4 PUSH2 0x4BDF JUMP JUMPDEST PUSH2 0x3295 JUMP JUMPDEST CALLVALUE DUP1 ISZERO PUSH2 0x56A JUMPI PUSH1 0x0 DUP1 REVERT JUMPDEST POP PUSH2 0x257 PUSH2 0x579 CALLDATASIZE PUSH1 0x4 PUSH2 0x49CB JUMP JUMPDEST PUSH2 0x32C3 JUMP JUMPDEST CALLVALUE DUP1 ISZERO PUSH2 0x58A JUMPI PUSH1 0x0 DUP1 REVERT JUMPDEST POP PUSH2 0x257 PUSH2 0x599 CALLDATASIZE PUSH1 0x4 PUSH2 0x49CB JUMP JUMPDEST PUSH2 0x3335 JUMP JUMPDEST PUSH1 0x0 PUSH1 0x1 PUSH1 0x1 PUSH1 0xE0 SHL SUB NOT DUP3 AND PUSH4 0x80AC58CD PUSH1 0xE0 SHL EQ DUP1 PUSH2 0x5CF JUMPI POP PUSH1 0x1 PUSH1 0x1 PUSH1 0xE0 SHL SUB NOT DUP3 AND PUSH4 0x5B5E139F PUSH1 0xE0 SHL EQ JUMPDEST DUP1 PUSH2 0x5EA JUMPI POP PUSH4 0x1FFC9A7 PUSH1 0xE0 SHL PUSH1 0x1 PUSH1 0x1 PUSH1 0xE0 SHL SUB NOT DUP4 AND EQ JUMPDEST SWAP3 SWAP2 POP POP JUMP JUMPDEST PUSH1 0x60 PUSH1 0x1 DUP1 SLOAD PUSH2 0x5FF SWAP1 PUSH2 0x4C12 JUMP JUMPDEST DUP1 PUSH1 0x1F ADD PUSH1 0x20 DUP1 SWAP2 DIV MUL PUSH1 0x20 ADD PUSH1 0x40 MLOAD SWAP1 DUP2 ADD PUSH1 0x40 MSTORE DUP1 SWAP3 SWAP2 SWAP1 DUP2 DUP2 MSTORE PUSH1 0x20 ADD DUP3 DUP1 SLOAD PUSH2 0x62B SWAP1 PUSH2 0x4C12 JUMP JUMPDEST DUP1 ISZERO PUSH2 0x678 JUMPI DUP1 PUSH1 0x1F LT PUSH2 0x64D JUMPI PUSH2 0x100 DUP1 DUP4 SLOAD DIV MUL DUP4 MSTORE SWAP2 PUSH1 0x20 ADD SWAP2 PUSH2 0x678 JUMP JUMPDEST DUP3 ADD SWAP2 SWAP1 PUSH1 0x0 MSTORE PUSH1 0x20 PUSH1 0x0 KECCAK256 SWAP1 JUMPDEST DUP2 SLOAD DUP2 MSTORE SWAP1 PUSH1 0x1 ADD SWAP1 PUSH1 0x20 ADD DUP1 DUP4 GT PUSH2 0x65B JUMPI DUP3 SWAP1 SUB PUSH1 0x1F AND DUP3 ADD SWAP2 JUMPDEST POP POP POP POP POP SWAP1 POP SWAP1 JUMP JUMPDEST PUSH1 0x0 PUSH2 0x68D DUP3 PUSH2 0x33AE JUMP JUMPDEST POP PUSH1 0x0 SWAP1 DUP2 MSTORE PUSH1 0x5 PUSH1 0x20 MSTORE PUSH1 0x40 SWAP1 KECCAK256 SLOAD PUSH1 0x1 PUSH1 0x1 PUSH1 0xA0 SHL SUB AND SWAP1 JUMP JUMPDEST PUSH1 0x0 PUSH2 0x6B4 DUP3 PUSH2 0x1846 JUMP JUMPDEST SWAP1 POP DUP1 PUSH1 0x1 PUSH1 0x1 PUSH1 0xA0 SHL SUB AND DUP4 PUSH1 0x1 PUSH1 0x1 PUSH1 0xA0 SHL SUB AND EQ ISZERO PUSH2 0x727 JUMPI PUSH1 0x40 MLOAD PUSH3 0x461BCD PUSH1 0xE5 SHL DUP2 MSTORE PUSH1 0x20 PUSH1 0x4 DUP3 ADD MSTORE PUSH1 0x21 PUSH1 0x24 DUP3 ADD MSTORE PUSH32 0x4552433732313A20617070726F76616C20746F2063757272656E74206F776E65 PUSH1 0x44 DUP3 ADD MSTORE PUSH1 0x39 PUSH1 0xF9 SHL PUSH1 0x64 DUP3 ADD MSTORE PUSH1 0x84 ADD JUMPDEST PUSH1 0x40 MLOAD DUP1 SWAP2 SUB SWAP1 REVERT JUMPDEST CALLER PUSH1 0x1 PUSH1 0x1 PUSH1 0xA0 SHL SUB DUP3 AND EQ DUP1 PUSH2 0x743 JUMPI POP PUSH2 0x743 DUP2 CALLER PUSH2 0x3295 JUMP JUMPDEST PUSH2 0x7B5 JUMPI PUSH1 0x40 MLOAD PUSH3 0x461BCD PUSH1 0xE5 SHL DUP2 MSTORE PUSH1 0x20 PUSH1 0x4 DUP3 ADD MSTORE PUSH1 0x3D PUSH1 0x24 DUP3 ADD MSTORE PUSH32 0x4552433732313A20617070726F76652063616C6C6572206973206E6F7420746F PUSH1 0x44 DUP3 ADD MSTORE PUSH32 0x6B656E206F776E6572206F7220617070726F76656420666F7220616C6C000000 PUSH1 0x64 DUP3 ADD MSTORE PUSH1 0x84 ADD PUSH2 0x71E JUMP JUMPDEST PUSH2 0x7BF DUP4 DUP4 PUSH2 0x33D3 JUMP JUMPDEST POP POP POP JUMP JUMPDEST PUSH1 0x0 DUP2 DUP2 MSTORE PUSH1 0x10 PUSH1 0x20 MSTORE PUSH1 0x40 DUP2 KECCAK256 SLOAD ISZERO PUSH2 0x7E0 JUMPI POP PUSH1 0x1 PUSH2 0x7E4 JUMP JUMPDEST POP PUSH1 0x0 JUMPDEST PUSH1 0x0 DUP2 PUSH1 0x1 DUP2 GT ISZERO PUSH2 0x7F8 JUMPI PUSH2 0x7F8 PUSH2 0x4C4D JUMP JUMPDEST EQ ISZERO PUSH2 0x8C0 JUMPI PUSH1 0x0 DUP3 DUP2 MSTORE PUSH1 0xD PUSH1 0x20 MSTORE PUSH1 0x40 DUP1 DUP3 KECCAK256 SWAP1 MLOAD PUSH1 0xC SWAP2 PUSH2 0x81B SWAP2 PUSH2 0x4C63 JUMP JUMPDEST SWAP1 DUP2 MSTORE PUSH1 0x40 MLOAD SWAP1 DUP2 SWAP1 SUB PUSH1 0x20 ADD SWAP1 KECCAK256 PUSH1 0x2 DUP2 ADD SLOAD SWAP1 SWAP2 POP PUSH1 0x1 PUSH1 0x1 PUSH1 0xA0 SHL SUB SWAP1 DUP2 AND SWAP1 DUP6 AND DUP2 EQ ISZERO PUSH2 0x85F JUMPI PUSH1 0x40 MLOAD PUSH3 0x461BCD PUSH1 0xE5 SHL DUP2 MSTORE PUSH1 0x4 ADD PUSH2 0x71E SWAP1 PUSH2 0x4CD5 JUMP JUMPDEST PUSH1 0x2 DUP3 ADD DUP1 SLOAD PUSH1 0x1 PUSH1 0x1 PUSH1 0xA0 SHL SUB NOT AND PUSH1 0x1 PUSH1 0x1 PUSH1 0xA0 SHL SUB DUP8 DUP2 AND SWAP2 DUP3 OR SWAP1 SWAP3 SSTORE PUSH1 0x0 DUP7 DUP2 MSTORE PUSH1 0xD PUSH1 0x20 MSTORE PUSH1 0x40 SWAP1 DUP2 SWAP1 KECCAK256 SWAP1 MLOAD DUP8 SWAP4 DUP11 AND SWAP2 PUSH1 0x0 DUP1 MLOAD PUSH1 0x20 PUSH2 0x54FC DUP4 CODECOPY DUP2 MLOAD SWAP2 MSTORE SWAP2 PUSH2 0x8B1 SWAP2 SWAP1 PUSH2 0x4D17 JUMP JUMPDEST PUSH1 0x40 MLOAD DUP1 SWAP2 SUB SWAP1 LOG4 POP POP PUSH2 0xA74 JUMP JUMPDEST PUSH1 0x1 DUP2 PUSH1 0x1 DUP2 GT ISZERO PUSH2 0x8D4 JUMPI PUSH2 0x8D4 PUSH2 0x4C4D JUMP JUMPDEST EQ ISZERO PUSH2 0xA74 JUMPI PUSH1 0x0 DUP3 DUP2 MSTORE PUSH1 0x10 PUSH1 0x20 SWAP1 DUP2 MSTORE PUSH1 0x40 DUP1 DUP4 KECCAK256 SLOAD DUP4 MSTORE PUSH1 0xD SWAP1 SWAP2 MSTORE DUP1 DUP3 KECCAK256 SWAP1 MLOAD PUSH1 0xC SWAP2 PUSH2 0x904 SWAP2 PUSH2 0x4C63 JUMP JUMPDEST SWAP1 DUP2 MSTORE PUSH1 0x20 ADD PUSH1 0x40 MLOAD DUP1 SWAP2 SUB SWAP1 KECCAK256 PUSH1 0x4 ADD PUSH2 0x9B9 PUSH1 0xD PUSH1 0x0 DUP7 DUP2 MSTORE PUSH1 0x20 ADD SWAP1 DUP2 MSTORE PUSH1 0x20 ADD PUSH1 0x0 KECCAK256 DUP1 SLOAD PUSH2 0x936 SWAP1 PUSH2 0x4C12 JUMP JUMPDEST DUP1 PUSH1 0x1F ADD PUSH1 0x20 DUP1 SWAP2 DIV MUL PUSH1 0x20 ADD PUSH1 0x40 MLOAD SWAP1 DUP2 ADD PUSH1 0x40 MSTORE DUP1 SWAP3 SWAP2 SWAP1 DUP2 DUP2 MSTORE PUSH1 0x20 ADD DUP3 DUP1 SLOAD PUSH2 0x962 SWAP1 PUSH2 0x4C12 JUMP JUMPDEST DUP1 ISZERO PUSH2 0x9AF JUMPI DUP1 PUSH1 0x1F LT PUSH2 0x984 JUMPI PUSH2 0x100 DUP1 DUP4 SLOAD DIV MUL DUP4 MSTORE SWAP2 PUSH1 0x20 ADD SWAP2 PUSH2 0x9AF JUMP JUMPDEST DUP3 ADD SWAP2 SWAP1 PUSH1 0x0 MSTORE PUSH1 0x20 PUSH1 0x0 KECCAK256 SWAP1 JUMPDEST DUP2 SLOAD DUP2 MSTORE SWAP1 PUSH1 0x1 ADD SWAP1 PUSH1 0x20 ADD DUP1 DUP4 GT PUSH2 0x992 JUMPI DUP3 SWAP1 SUB PUSH1 0x1F AND DUP3 ADD SWAP2 JUMPDEST POP POP POP POP POP PUSH2 0x3441 JUMP JUMPDEST PUSH1 0x40 MLOAD PUSH2 0x9C6 SWAP2 SWAP1 PUSH2 0x4D9C JUMP JUMPDEST SWAP1 DUP2 MSTORE PUSH1 0x40 MLOAD SWAP1 DUP2 SWAP1 SUB PUSH1 0x20 ADD SWAP1 KECCAK256 PUSH1 0x1 DUP2 ADD SLOAD SWAP1 SWAP2 POP PUSH1 0x1 PUSH1 0x1 PUSH1 0xA0 SHL SUB SWAP1 DUP2 AND SWAP1 DUP6 AND DUP2 EQ ISZERO PUSH2 0xA0A JUMPI PUSH1 0x40 MLOAD PUSH3 0x461BCD PUSH1 0xE5 SHL DUP2 MSTORE PUSH1 0x4 ADD PUSH2 0x71E SWAP1 PUSH2 0x4CD5 JUMP JUMPDEST PUSH1 0x1 DUP3 ADD DUP1 SLOAD PUSH1 0x1 PUSH1 0x1 PUSH1 0xA0 SHL SUB NOT AND PUSH1 0x1 PUSH1 0x1 PUSH1 0xA0 SHL SUB DUP8 AND SWAP1 DUP2 OR SWAP1 SWAP2 SSTORE PUSH1 0x0 DUP6 DUP2 MSTORE PUSH1 0xD PUSH1 0x20 MSTORE PUSH1 0x40 SWAP1 KECCAK256 DUP1 SLOAD DUP7 SWAP3 SWAP2 DUP3 SWAP2 PUSH1 0x0 DUP1 MLOAD PUSH1 0x20 PUSH2 0x54FC DUP4 CODECOPY DUP2 MLOAD SWAP2 MSTORE SWAP2 PUSH2 0xA5C SWAP2 PUSH2 0x936 SWAP1 PUSH2 0x4C12 JUMP JUMPDEST PUSH1 0x40 MLOAD PUSH2 0xA69 SWAP2 SWAP1 PUSH2 0x480D JUMP JUMPDEST PUSH1 0x40 MLOAD DUP1 SWAP2 SUB SWAP1 LOG4 POP POP JUMPDEST PUSH2 0xA7F DUP5 DUP5 DUP5 PUSH2 0x3465 JUMP JUMPDEST POP POP POP POP JUMP JUMPDEST PUSH1 0x0 PUSH2 0xA90 DUP4 PUSH2 0x3496 JUMP JUMPDEST PUSH1 0x40 MLOAD DUP1 PUSH1 0x40 ADD PUSH1 0x40 MSTORE DUP1 PUSH1 0x3 DUP2 MSTORE PUSH1 0x20 ADD PUSH3 0xE282BF PUSH1 0xE8 SHL DUP2 MSTORE POP PUSH1 0x40 MLOAD PUSH1 0x20 ADD PUSH2 0xABD SWAP3 SWAP2 SWAP1 PUSH2 0x4DB8 JUMP JUMPDEST PUSH1 0x40 MLOAD PUSH1 0x20 DUP2 DUP4 SUB SUB DUP2 MSTORE SWAP1 PUSH1 0x40 MSTORE SWAP1 POP PUSH1 0x0 PUSH2 0xAD9 DUP5 PUSH2 0x3441 JUMP JUMPDEST SWAP1 POP PUSH1 0xC DUP3 PUSH1 0x40 MLOAD PUSH2 0xAEB SWAP2 SWAP1 PUSH2 0x4D9C JUMP JUMPDEST SWAP1 DUP2 MSTORE PUSH1 0x40 MLOAD SWAP1 DUP2 SWAP1 SUB PUSH1 0x20 ADD SWAP1 KECCAK256 SLOAD PUSH2 0xB47 JUMPI PUSH1 0x40 MLOAD PUSH3 0x461BCD PUSH1 0xE5 SHL DUP2 MSTORE PUSH1 0x20 PUSH1 0x4 DUP3 ADD MSTORE PUSH1 0x1C PUSH1 0x24 DUP3 ADD MSTORE PUSH32 0x506172656E742068616E646C6520646F6573206E6F7420657869737400000000 PUSH1 0x44 DUP3 ADD MSTORE PUSH1 0x64 ADD PUSH2 0x71E JUMP JUMPDEST PUSH1 0x0 PUSH1 0xC DUP4 PUSH1 0x40 MLOAD PUSH2 0xB59 SWAP2 SWAP1 PUSH2 0x4D9C JUMP JUMPDEST SWAP1 DUP2 MSTORE PUSH1 0x20 ADD PUSH1 0x40 MLOAD DUP1 SWAP2 SUB SWAP1 KECCAK256 PUSH1 0x4 ADD DUP3 PUSH1 0x40 MLOAD PUSH2 0xB78 SWAP2 SWAP1 PUSH2 0x4D9C JUMP JUMPDEST SWAP1 DUP2 MSTORE PUSH1 0x40 MLOAD SWAP1 DUP2 SWAP1 SUB PUSH1 0x20 ADD SWAP1 KECCAK256 DUP1 SLOAD SWAP1 SWAP2 POP PUSH2 0xBD3 JUMPI PUSH1 0x40 MLOAD PUSH3 0x461BCD PUSH1 0xE5 SHL DUP2 MSTORE PUSH1 0x20 PUSH1 0x4 DUP3 ADD MSTORE PUSH1 0x18 PUSH1 0x24 DUP3 ADD MSTORE PUSH24 0x14DD589A185B991B1948191BD95CC81B9BDD08195E1A5CDD PUSH1 0x42 SHL PUSH1 0x44 DUP3 ADD MSTORE PUSH1 0x64 ADD PUSH2 0x71E JUMP JUMPDEST TIMESTAMP DUP2 PUSH1 0x2 ADD SLOAD GT PUSH2 0xC1E JUMPI PUSH1 0x40 MLOAD PUSH3 0x461BCD PUSH1 0xE5 SHL DUP2 MSTORE PUSH1 0x20 PUSH1 0x4 DUP3 ADD MSTORE PUSH1 0x15 PUSH1 0x24 DUP3 ADD MSTORE PUSH21 0x14DD589A185B991B19481A185CC8195E1C1A5C9959 PUSH1 0x5A SHL PUSH1 0x44 DUP3 ADD MSTORE PUSH1 0x64 ADD PUSH2 0x71E JUMP JUMPDEST DUP1 SLOAD PUSH2 0xC29 SWAP1 PUSH2 0x1846 JUMP JUMPDEST PUSH1 0x1 PUSH1 0x1 PUSH1 0xA0 SHL SUB AND CALLER PUSH1 0x1 PUSH1 0x1 PUSH1 0xA0 SHL SUB AND EQ PUSH2 0xCB9 JUMPI PUSH1 0x40 MLOAD PUSH3 0x461BCD PUSH1 0xE5 SHL DUP2 MSTORE PUSH1 0x20 PUSH1 0x4 DUP3 ADD MSTORE PUSH1 0x41 PUSH1 0x24 DUP3 ADD MSTORE PUSH32 0x596F75206D75737420626520746865206F776E6572206F662074686520737562 PUSH1 0x44 DUP3 ADD MSTORE PUSH32 0x68616E646C6520746F207365742074686520426974636F696E20616464726573 PUSH1 0x64 DUP3 ADD MSTORE PUSH1 0x73 PUSH1 0xF8 SHL PUSH1 0x84 DUP3 ADD MSTORE PUSH1 0xA4 ADD PUSH2 0x71E JUMP JUMPDEST DUP4 MLOAD PUSH2 0xCCE SWAP1 PUSH1 0x5 DUP4 ADD SWAP1 PUSH1 0x20 DUP8 ADD SWAP1 PUSH2 0x46E9 JUMP JUMPDEST POP PUSH1 0x0 DUP3 DUP5 PUSH1 0x40 MLOAD PUSH1 0x20 ADD PUSH2 0xCE4 SWAP3 SWAP2 SWAP1 PUSH2 0x4DB8 JUMP JUMPDEST PUSH1 0x40 DUP1 MLOAD PUSH1 0x1F NOT DUP2 DUP5 SUB ADD DUP2 MSTORE SWAP1 DUP3 SWAP1 MSTORE DUP4 SLOAD SWAP1 SWAP3 POP SWAP1 DUP2 SWAP1 CALLER SWAP1 PUSH32 0xC9B090088E75B67EB0BEBF46625A0B583F756E5EB6B1956CD4222791FEAD4EE5 SWAP1 PUSH2 0xD2E SWAP1 DUP7 SWAP1 DUP12 SWAP1 PUSH2 0x4DF4 JUMP JUMPDEST PUSH1 0x40 MLOAD DUP1 SWAP2 SUB SWAP1 LOG3 POP POP POP POP POP POP POP JUMP JUMPDEST PUSH1 0x8 SLOAD PUSH1 0x40 MLOAD PUSH4 0x3AF32ABF PUSH1 0xE0 SHL DUP2 MSTORE PUSH1 0x1 PUSH1 0x1 PUSH1 0xA0 SHL SUB DUP4 DUP2 AND PUSH1 0x4 DUP4 ADD MSTORE PUSH1 0x0 SWAP3 AND SWAP1 PUSH4 0x3AF32ABF SWAP1 PUSH1 0x24 ADD PUSH1 0x20 PUSH1 0x40 MLOAD DUP1 DUP4 SUB DUP2 DUP7 DUP1 EXTCODESIZE ISZERO DUP1 ISZERO PUSH2 0xD85 JUMPI PUSH1 0x0 DUP1 REVERT JUMPDEST POP GAS STATICCALL ISZERO DUP1 ISZERO PUSH2 0xD99 JUMPI RETURNDATASIZE PUSH1 0x0 DUP1 RETURNDATACOPY RETURNDATASIZE PUSH1 0x0 REVERT JUMPDEST POP POP POP POP PUSH1 0x40 MLOAD RETURNDATASIZE PUSH1 0x1F NOT PUSH1 0x1F DUP3 ADD AND DUP3 ADD DUP1 PUSH1 0x40 MSTORE POP DUP2 ADD SWAP1 PUSH2 0x5EA SWAP2 SWAP1 PUSH2 0x4E22 JUMP JUMPDEST PUSH1 0x0 CALLER SWAP1 POP PUSH1 0x0 DUP4 PUSH1 0x40 MLOAD DUP1 PUSH1 0x40 ADD PUSH1 0x40 MSTORE DUP1 PUSH1 0x3 DUP2 MSTORE PUSH1 0x20 ADD PUSH3 0xE282BF PUSH1 0xE8 SHL DUP2 MSTORE POP PUSH1 0x40 MLOAD PUSH1 0x20 ADD PUSH2 0xDF2 SWAP3 SWAP2 SWAP1 PUSH2 0x4DB8 JUMP JUMPDEST PUSH1 0x40 MLOAD PUSH1 0x20 DUP2 DUP4 SUB SUB DUP2 MSTORE SWAP1 PUSH1 0x40 MSTORE SWAP1 POP PUSH1 0x0 PUSH1 0xC DUP3 PUSH1 0x40 MLOAD PUSH2 0xE15 SWAP2 SWAP1 PUSH2 0x4D9C JUMP JUMPDEST SWAP1 DUP2 MSTORE PUSH1 0x40 MLOAD SWAP1 DUP2 SWAP1 SUB PUSH1 0x20 ADD SWAP1 KECCAK256 DUP1 SLOAD SWAP1 SWAP2 POP PUSH2 0xE6D JUMPI PUSH1 0x40 MLOAD PUSH3 0x461BCD PUSH1 0xE5 SHL DUP2 MSTORE PUSH1 0x20 PUSH1 0x4 DUP3 ADD MSTORE PUSH1 0x15 PUSH1 0x24 DUP3 ADD MSTORE PUSH21 0x12185B991B1948191BD95CC81B9BDD08195E1A5CDD PUSH1 0x5A SHL PUSH1 0x44 DUP3 ADD MSTORE PUSH1 0x64 ADD PUSH2 0x71E JUMP JUMPDEST DUP1 SLOAD PUSH2 0xE78 SWAP1 PUSH2 0x1846 JUMP JUMPDEST PUSH1 0x1 PUSH1 0x1 PUSH1 0xA0 SHL SUB AND DUP4 PUSH1 0x1 PUSH1 0x1 PUSH1 0xA0 SHL SUB AND EQ PUSH2 0xEF3 JUMPI PUSH1 0x40 MLOAD PUSH3 0x461BCD PUSH1 0xE5 SHL DUP2 MSTORE PUSH1 0x20 PUSH1 0x4 DUP3 ADD MSTORE PUSH1 0x32 PUSH1 0x24 DUP3 ADD MSTORE PUSH32 0x4F6E6C79207468652063757272656E74206F776E65722063616E207365742074 PUSH1 0x44 DUP3 ADD MSTORE PUSH18 0x686520426974636F696E2061646472657373 PUSH1 0x70 SHL PUSH1 0x64 DUP3 ADD MSTORE PUSH1 0x84 ADD PUSH2 0x71E JUMP JUMPDEST TIMESTAMP DUP2 PUSH1 0x1 ADD SLOAD GT PUSH2 0xF3B JUMPI PUSH1 0x40 MLOAD PUSH3 0x461BCD PUSH1 0xE5 SHL DUP2 MSTORE PUSH1 0x20 PUSH1 0x4 DUP3 ADD MSTORE PUSH1 0x12 PUSH1 0x24 DUP3 ADD MSTORE PUSH18 0x12185B991B19481A185CC8195E1C1A5C9959 PUSH1 0x72 SHL PUSH1 0x44 DUP3 ADD MSTORE PUSH1 0x64 ADD PUSH2 0x71E JUMP JUMPDEST DUP4 MLOAD PUSH2 0xF50 SWAP1 PUSH1 0x6 DUP4 ADD SWAP1 PUSH1 0x20 DUP8 ADD SWAP1 PUSH2 0x46E9 JUMP JUMPDEST POP PUSH1 0x0 DUP6 PUSH1 0x40 MLOAD DUP1 PUSH1 0x40 ADD PUSH1 0x40 MSTORE DUP1 PUSH1 0x3 DUP2 MSTORE PUSH1 0x20 ADD PUSH3 0xE282BF PUSH1 0xE8 SHL DUP2 MSTORE POP PUSH1 0x40 MLOAD PUSH1 0x20 ADD PUSH2 0xF81 SWAP3 SWAP2 SWAP1 PUSH2 0x4DB8 JUMP JUMPDEST PUSH1 0x40 MLOAD PUSH1 0x20 DUP2 DUP4 SUB SUB DUP2 MSTORE SWAP1 PUSH1 0x40 MSTORE SWAP1 POP PUSH1 0x0 DUP3 PUSH1 0x0 ADD SLOAD SWAP1 POP DUP1 DUP6 PUSH1 0x1 PUSH1 0x1 PUSH1 0xA0 SHL SUB AND PUSH32 0x84429DF22D7FE2E4100D0F432303654047944CDFE4E50C02DD433E0C8B1CF3E7 DUP5 DUP10 PUSH1 0x40 MLOAD PUSH2 0xD2E SWAP3 SWAP2 SWAP1 PUSH2 0x4DF4 JUMP JUMPDEST PUSH2 0x7BF DUP4 DUP4 DUP4 PUSH1 0x40 MLOAD DUP1 PUSH1 0x20 ADD PUSH1 0x40 MSTORE DUP1 PUSH1 0x0 DUP2 MSTORE POP PUSH2 0x27BF JUMP JUMPDEST DUP2 PUSH1 0x0 DUP2 SWAP1 POP PUSH1 0x0 PUSH1 0x40 MLOAD PUSH1 0x20 ADD PUSH2 0x1009 SWAP1 PUSH2 0x4E3F JUMP JUMPDEST PUSH1 0x40 MLOAD PUSH1 0x20 DUP2 DUP4 SUB SUB DUP2 MSTORE SWAP1 PUSH1 0x40 MSTORE SWAP1 POP PUSH1 0x0 DUP3 MLOAD GT PUSH2 0x103B JUMPI PUSH1 0x40 MLOAD PUSH3 0x461BCD PUSH1 0xE5 SHL DUP2 MSTORE PUSH1 0x4 ADD PUSH2 0x71E SWAP1 PUSH2 0x4E77 JUMP JUMPDEST PUSH1 0x1 JUMPDEST DUP3 MLOAD DUP2 LT ISZERO PUSH2 0x10D8 JUMPI DUP3 DUP2 DUP2 MLOAD DUP2 LT PUSH2 0x1059 JUMPI PUSH2 0x1059 PUSH2 0x4EAE JUMP JUMPDEST PUSH1 0x20 SWAP2 ADD ADD MLOAD PUSH1 0x1 PUSH1 0x1 PUSH1 0xF8 SHL SUB NOT AND PUSH1 0x17 PUSH1 0xF9 SHL EQ DUP1 ISZERO PUSH2 0x10A9 JUMPI POP DUP3 PUSH2 0x1082 PUSH1 0x1 DUP4 PUSH2 0x4EDA JUMP JUMPDEST DUP2 MLOAD DUP2 LT PUSH2 0x1092 JUMPI PUSH2 0x1092 PUSH2 0x4EAE JUMP JUMPDEST PUSH1 0x20 SWAP2 ADD ADD MLOAD PUSH1 0x1 PUSH1 0x1 PUSH1 0xF8 SHL SUB NOT AND PUSH1 0x17 PUSH1 0xF9 SHL EQ JUMPDEST ISZERO PUSH2 0x10C6 JUMPI PUSH1 0x40 MLOAD PUSH3 0x461BCD PUSH1 0xE5 SHL DUP2 MSTORE PUSH1 0x4 ADD PUSH2 0x71E SWAP1 PUSH2 0x4EF1 JUMP JUMPDEST DUP1 PUSH2 0x10D0 DUP2 PUSH2 0x4F37 JUMP JUMPDEST SWAP2 POP POP PUSH2 0x103E JUMP JUMPDEST POP PUSH1 0x0 JUMPDEST DUP3 MLOAD DUP2 LT ISZERO PUSH2 0x1190 JUMPI PUSH1 0x0 DUP4 DUP3 DUP2 MLOAD DUP2 LT PUSH2 0x10F9 JUMPI PUSH2 0x10F9 PUSH2 0x4EAE JUMP JUMPDEST ADD PUSH1 0x20 ADD MLOAD PUSH1 0x1 PUSH1 0x1 PUSH1 0xF8 SHL SUB NOT AND SWAP1 POP PUSH1 0x0 DUP1 JUMPDEST DUP5 MLOAD DUP2 LT ISZERO PUSH2 0x115D JUMPI DUP5 DUP2 DUP2 MLOAD DUP2 LT PUSH2 0x1129 JUMPI PUSH2 0x1129 PUSH2 0x4EAE JUMP JUMPDEST ADD PUSH1 0x20 ADD MLOAD PUSH1 0x1 PUSH1 0x1 PUSH1 0xF8 SHL SUB NOT DUP5 DUP2 AND SWAP2 AND EQ ISZERO PUSH2 0x114B JUMPI PUSH1 0x1 SWAP2 POP PUSH2 0x115D JUMP JUMPDEST DUP1 PUSH2 0x1155 DUP2 PUSH2 0x4F37 JUMP JUMPDEST SWAP2 POP POP PUSH2 0x110E JUMP JUMPDEST POP DUP1 PUSH2 0x117B JUMPI PUSH1 0x40 MLOAD PUSH3 0x461BCD PUSH1 0xE5 SHL DUP2 MSTORE PUSH1 0x4 ADD PUSH2 0x71E SWAP1 PUSH2 0x4F52 JUMP JUMPDEST POP POP DUP1 DUP1 PUSH2 0x1188 SWAP1 PUSH2 0x4F37 JUMP JUMPDEST SWAP2 POP POP PUSH2 0x10DC JUMP JUMPDEST POP DUP2 PUSH1 0x0 DUP2 MLOAD DUP2 LT PUSH2 0x11A4 JUMPI PUSH2 0x11A4 PUSH2 0x4EAE JUMP JUMPDEST PUSH1 0x20 SWAP2 ADD ADD MLOAD PUSH1 0x1 PUSH1 0x1 PUSH1 0xF8 SHL SUB NOT AND PUSH1 0x2D PUSH1 0xF8 SHL EQ DUP1 ISZERO SWAP1 PUSH2 0x11ED JUMPI POP DUP2 PUSH1 0x0 DUP2 MLOAD DUP2 LT PUSH2 0x11D5 JUMPI PUSH2 0x11D5 PUSH2 0x4EAE JUMP JUMPDEST PUSH1 0x20 SWAP2 ADD ADD MLOAD PUSH1 0x1 PUSH1 0x1 PUSH1 0xF8 SHL SUB NOT AND PUSH1 0x17 PUSH1 0xF9 SHL EQ ISZERO JUMPDEST DUP1 ISZERO PUSH2 0x122B JUMPI POP DUP2 PUSH1 0x1 DUP4 MLOAD PUSH2 0x1203 SWAP2 SWAP1 PUSH2 0x4EDA JUMP JUMPDEST DUP2 MLOAD DUP2 LT PUSH2 0x1213 JUMPI PUSH2 0x1213 PUSH2 0x4EAE JUMP JUMPDEST PUSH1 0x20 SWAP2 ADD ADD MLOAD PUSH1 0x1 PUSH1 0x1 PUSH1 0xF8 SHL SUB NOT AND PUSH1 0x2D PUSH1 0xF8 SHL EQ ISZERO JUMPDEST DUP1 ISZERO PUSH2 0x1269 JUMPI POP DUP2 PUSH1 0x1 DUP4 MLOAD PUSH2 0x1241 SWAP2 SWAP1 PUSH2 0x4EDA JUMP JUMPDEST DUP2 MLOAD DUP2 LT PUSH2 0x1251 JUMPI PUSH2 0x1251 PUSH2 0x4EAE JUMP JUMPDEST PUSH1 0x20 SWAP2 ADD ADD MLOAD PUSH1 0x1 PUSH1 0x1 PUSH1 0xF8 SHL SUB NOT AND PUSH1 0x17 PUSH1 0xF9 SHL EQ ISZERO JUMPDEST PUSH2 0x1285 JUMPI PUSH1 0x40 MLOAD PUSH3 0x461BCD PUSH1 0xE5 SHL DUP2 MSTORE PUSH1 0x4 ADD PUSH2 0x71E SWAP1 PUSH2 0x4F87 JUMP JUMPDEST DUP5 PUSH2 0x128F DUP2 PUSH2 0x34D3 JUMP JUMPDEST DUP1 PUSH2 0x12A2 JUMPI POP PUSH1 0x1 PUSH2 0x12A0 DUP3 PUSH2 0x357A JUMP JUMPDEST GT JUMPDEST ISZERO PUSH2 0x12BF JUMPI PUSH1 0x40 MLOAD PUSH3 0x461BCD PUSH1 0xE5 SHL DUP2 MSTORE PUSH1 0x4 ADD PUSH2 0x71E SWAP1 PUSH2 0x4F87 JUMP JUMPDEST PUSH1 0x0 PUSH2 0x12CA DUP8 PUSH2 0x3441 JUMP JUMPDEST SWAP1 POP PUSH1 0x0 PUSH2 0x12D7 DUP9 PUSH2 0x3496 JUMP JUMPDEST PUSH1 0x40 MLOAD DUP1 PUSH1 0x40 ADD PUSH1 0x40 MSTORE DUP1 PUSH1 0x3 DUP2 MSTORE PUSH1 0x20 ADD PUSH3 0xE282BF PUSH1 0xE8 SHL DUP2 MSTORE POP PUSH1 0x40 MLOAD PUSH1 0x20 ADD PUSH2 0x1304 SWAP3 SWAP2 SWAP1 PUSH2 0x4DB8 JUMP JUMPDEST PUSH1 0x40 MLOAD PUSH1 0x20 DUP2 DUP4 SUB SUB DUP2 MSTORE SWAP1 PUSH1 0x40 MSTORE SWAP1 POP PUSH1 0x0 PUSH1 0xC DUP3 PUSH1 0x40 MLOAD PUSH2 0x1327 SWAP2 SWAP1 PUSH2 0x4D9C JUMP JUMPDEST SWAP1 DUP2 MSTORE PUSH1 0x20 ADD PUSH1 0x40 MLOAD DUP1 SWAP2 SUB SWAP1 KECCAK256 SWAP1 POP PUSH1 0x0 DUP2 PUSH1 0x4 ADD DUP5 PUSH1 0x40 MLOAD PUSH2 0x134B SWAP2 SWAP1 PUSH2 0x4D9C JUMP JUMPDEST SWAP1 DUP2 MSTORE PUSH1 0x40 MLOAD SWAP1 DUP2 SWAP1 SUB PUSH1 0x20 ADD SWAP1 KECCAK256 PUSH1 0x1 DUP4 ADD SLOAD DUP2 SLOAD SWAP2 SWAP3 POP TIMESTAMP LT ISZERO SWAP1 PUSH1 0x0 SWAP1 ISZERO DUP1 ISZERO SWAP1 PUSH2 0x137D JUMPI POP TIMESTAMP DUP4 PUSH1 0x2 ADD SLOAD GT ISZERO JUMPDEST SWAP1 POP DUP2 ISZERO PUSH2 0x13C8 JUMPI PUSH1 0x40 MLOAD PUSH3 0x461BCD PUSH1 0xE5 SHL DUP2 MSTORE PUSH1 0x20 PUSH1 0x4 DUP3 ADD MSTORE PUSH1 0x18 PUSH1 0x24 DUP3 ADD MSTORE PUSH24 0x14185C995B9D081A185B991B19481A5CC8195E1C1A5C9959 PUSH1 0x42 SHL PUSH1 0x44 DUP3 ADD MSTORE PUSH1 0x64 ADD PUSH2 0x71E JUMP JUMPDEST DUP3 SLOAD ISZERO DUP1 PUSH2 0x13D3 JUMPI POP DUP1 JUMPDEST PUSH2 0x1434 JUMPI PUSH1 0x40 MLOAD PUSH3 0x461BCD PUSH1 0xE5 SHL DUP2 MSTORE PUSH1 0x20 PUSH1 0x4 DUP3 ADD MSTORE PUSH1 0x2C PUSH1 0x24 DUP3 ADD MSTORE PUSH32 0x53756268616E646C6520616C7265616479207265676973746572656420616E64 PUSH1 0x44 DUP3 ADD MSTORE PUSH12 0x81B9BDD08195E1C1A5C9959 PUSH1 0xA2 SHL PUSH1 0x64 DUP3 ADD MSTORE PUSH1 0x84 ADD PUSH2 0x71E JUMP JUMPDEST DUP6 MLOAD PUSH1 0x0 PUSH2 0x1442 DUP3 DUP15 PUSH2 0x2D8D JUMP JUMPDEST PUSH1 0x2 DUP8 ADD SLOAD SWAP1 SWAP2 POP PUSH1 0x1 PUSH1 0x1 PUSH1 0xA0 SHL SUB AND CALLER EQ DUP1 PUSH2 0x14EA JUMPI DUP2 CALLVALUE LT ISZERO PUSH2 0x14AA JUMPI PUSH1 0x40 MLOAD PUSH3 0x461BCD PUSH1 0xE5 SHL DUP2 MSTORE PUSH1 0x20 PUSH1 0x4 DUP3 ADD MSTORE PUSH1 0x1D PUSH1 0x24 DUP3 ADD MSTORE PUSH32 0x496E73756666696369656E7420726567697374726174696F6E20666565000000 PUSH1 0x44 DUP3 ADD MSTORE PUSH1 0x64 ADD PUSH2 0x71E JUMP JUMPDEST PUSH1 0x2 DUP8 ADD SLOAD PUSH1 0x40 MLOAD PUSH1 0x1 PUSH1 0x1 PUSH1 0xA0 SHL SUB SWAP1 SWAP2 AND SWAP1 DUP2 SWAP1 CALLVALUE DUP1 ISZERO PUSH2 0x8FC MUL SWAP2 PUSH1 0x0 DUP2 DUP2 DUP2 DUP6 DUP9 DUP9 CALL SWAP4 POP POP POP POP ISZERO DUP1 ISZERO PUSH2 0x14E7 JUMPI RETURNDATASIZE PUSH1 0x0 DUP1 RETURNDATACOPY RETURNDATASIZE PUSH1 0x0 REVERT JUMPDEST POP POP JUMPDEST PUSH1 0x3 DUP7 ADD SLOAD PUSH1 0xFF AND ISZERO PUSH2 0x153F JUMPI PUSH1 0x40 MLOAD PUSH3 0x461BCD PUSH1 0xE5 SHL DUP2 MSTORE PUSH1 0x20 PUSH1 0x4 DUP3 ADD MSTORE PUSH1 0x1C PUSH1 0x24 DUP3 ADD MSTORE PUSH32 0x53756268616E646C6520726571756573742069732070656E64696E6700000000 PUSH1 0x44 DUP3 ADD MSTORE PUSH1 0x64 ADD PUSH2 0x71E JUMP JUMPDEST PUSH1 0x2 DUP8 ADD SLOAD PUSH2 0x1558 SWAP1 DUP10 SWAP1 PUSH1 0x1 PUSH1 0x1 PUSH1 0xA0 SHL SUB AND PUSH2 0x35E7 JUMP JUMPDEST DUP1 PUSH2 0x1560 JUMPI POP DUP1 JUMPDEST PUSH2 0x15A5 JUMPI PUSH1 0x40 MLOAD PUSH3 0x461BCD PUSH1 0xE5 SHL DUP2 MSTORE PUSH1 0x20 PUSH1 0x4 DUP3 ADD MSTORE PUSH1 0x16 PUSH1 0x24 DUP3 ADD MSTORE PUSH22 0x14195C9B5A5CDCDA5BDB881B9BDD0819DC985B9D1959 PUSH1 0x52 SHL PUSH1 0x44 DUP3 ADD MSTORE PUSH1 0x64 ADD PUSH2 0x71E JUMP JUMPDEST DUP1 ISZERO DUP1 PUSH2 0x15B3 JUMPI POP PUSH1 0x1 DUP15 GT ISZERO JUMPDEST PUSH2 0x161F JUMPI PUSH1 0x40 MLOAD PUSH3 0x461BCD PUSH1 0xE5 SHL DUP2 MSTORE PUSH1 0x20 PUSH1 0x4 DUP3 ADD MSTORE PUSH1 0x37 PUSH1 0x24 DUP3 ADD MSTORE PUSH32 0x4D6178696D756D20726567697374726174696F6E20796561727320666F722070 PUSH1 0x44 DUP3 ADD MSTORE PUSH23 0x6172656E742068616E646C65206F776E65722069732031 PUSH1 0x48 SHL PUSH1 0x64 DUP3 ADD MSTORE PUSH1 0x84 ADD PUSH2 0x71E JUMP JUMPDEST DUP4 ISZERO PUSH2 0x162E JUMPI PUSH2 0x162E DUP16 PUSH2 0x3634 JUMP JUMPDEST PUSH2 0x1637 DUP10 PUSH2 0x382D JUMP JUMPDEST ISZERO DUP1 PUSH2 0x1647 JUMPI POP PUSH2 0x1647 DUP10 PUSH2 0x38DA JUMP JUMPDEST PUSH2 0x16A8 JUMPI PUSH1 0x40 MLOAD PUSH3 0x461BCD PUSH1 0xE5 SHL DUP2 MSTORE PUSH1 0x20 PUSH1 0x4 DUP3 ADD MSTORE PUSH1 0x2C PUSH1 0x24 DUP3 ADD MSTORE PUSH32 0x53756268616E646C652063616E6E6F7420636F6E7461696E20636F6E73656375 PUSH1 0x44 DUP3 ADD MSTORE PUSH12 0x746976652068797068656E73 PUSH1 0xA0 SHL PUSH1 0x64 DUP3 ADD MSTORE PUSH1 0x84 ADD PUSH2 0x71E JUMP JUMPDEST PUSH1 0x0 PUSH1 0xA SLOAD PUSH1 0x1 PUSH2 0x16B9 SWAP2 SWAP1 PUSH2 0x4FD6 JUMP JUMPDEST SWAP1 POP PUSH1 0x1 PUSH1 0xA PUSH1 0x0 DUP3 DUP3 SLOAD PUSH2 0x16CE SWAP2 SWAP1 PUSH2 0x4FD6 JUMP JUMPDEST SWAP1 SWAP2 SSTORE POP PUSH2 0x16DE SWAP1 POP CALLER DUP3 PUSH2 0x3985 JUMP JUMPDEST DUP1 DUP8 SSTORE PUSH1 0x1 DUP8 ADD DUP1 SLOAD PUSH1 0x1 PUSH1 0x1 PUSH1 0xA0 SHL SUB NOT AND CALLER OR SWAP1 SSTORE PUSH1 0x3 DUP8 ADD DUP1 SLOAD PUSH1 0xFF NOT AND SWAP1 SSTORE PUSH2 0x172B DUP16 PUSH32 0x0 PUSH2 0x4FEE JUMP JUMPDEST PUSH2 0x1735 SWAP1 TIMESTAMP PUSH2 0x4FD6 JUMP JUMPDEST PUSH1 0x2 DUP9 ADD SSTORE PUSH1 0x4 DUP8 ADD DUP16 SWAP1 SSTORE PUSH1 0x3 DUP9 ADD DUP1 SLOAD PUSH1 0x1 SWAP2 SWAP1 PUSH1 0x0 SWAP1 PUSH2 0x1759 SWAP1 DUP5 SWAP1 PUSH2 0x4FD6 JUMP JUMPDEST SWAP1 SWAP2 SSTORE POP POP PUSH1 0x40 MLOAD PUSH1 0x0 SWAP1 PUSH2 0x1774 SWAP1 DUP13 SWAP1 DUP13 SWAP1 PUSH1 0x20 ADD PUSH2 0x4DB8 JUMP JUMPDEST PUSH1 0x40 DUP1 MLOAD PUSH1 0x1F NOT DUP2 DUP5 SUB ADD DUP2 MSTORE SWAP2 DUP2 MSTORE PUSH1 0x0 DUP5 DUP2 MSTORE PUSH1 0xD PUSH1 0x20 SWAP1 DUP2 MSTORE SWAP2 SWAP1 KECCAK256 DUP3 MLOAD SWAP3 SWAP4 POP PUSH2 0x17A6 SWAP3 SWAP1 SWAP2 DUP5 ADD SWAP1 PUSH2 0x46E9 JUMP JUMPDEST POP DUP2 PUSH1 0xF DUP3 PUSH1 0x40 MLOAD PUSH2 0x17B8 SWAP2 SWAP1 PUSH2 0x4D9C JUMP JUMPDEST SWAP1 DUP2 MSTORE PUSH1 0x20 ADD PUSH1 0x40 MLOAD DUP1 SWAP2 SUB SWAP1 KECCAK256 DUP2 SWAP1 SSTORE POP PUSH1 0x0 DUP9 PUSH1 0x2 ADD SLOAD SWAP1 POP DUP3 CALLER PUSH1 0x1 PUSH1 0x1 PUSH1 0xA0 SHL SUB AND PUSH32 0xFCDD79C20EBE031287776080F621D5FB3EAB6C5FCAB4ED6837FB126ED251A9C8 DUP5 DUP15 DUP15 PUSH1 0x2 ADD PUSH1 0x0 SWAP1 SLOAD SWAP1 PUSH2 0x100 EXP SWAP1 DIV PUSH1 0x1 PUSH1 0x1 PUSH1 0xA0 SHL SUB AND DUP7 PUSH1 0x40 MLOAD PUSH2 0x182A SWAP5 SWAP4 SWAP3 SWAP2 SWAP1 PUSH2 0x500D JUMP JUMPDEST PUSH1 0x40 MLOAD DUP1 SWAP2 SUB SWAP1 LOG3 POP POP POP POP POP POP POP POP POP POP POP POP POP POP POP POP POP POP JUMP JUMPDEST PUSH1 0x0 DUP2 DUP2 MSTORE PUSH1 0x3 PUSH1 0x20 MSTORE PUSH1 0x40 DUP2 KECCAK256 SLOAD PUSH1 0x1 PUSH1 0x1 PUSH1 0xA0 SHL SUB AND DUP1 PUSH2 0x5EA JUMPI PUSH1 0x40 MLOAD PUSH3 0x461BCD PUSH1 0xE5 SHL DUP2 MSTORE PUSH1 0x4 ADD PUSH2 0x71E SWAP1 PUSH2 0x504F JUMP JUMPDEST PUSH1 0x0 DUP2 DUP2 MSTORE PUSH1 0x11 PUSH1 0x20 MSTORE PUSH1 0x40 SWAP1 KECCAK256 SLOAD DUP2 SWAP1 PUSH1 0x1 PUSH1 0x1 PUSH1 0xA0 SHL SUB AND CALLER EQ PUSH2 0x18D6 JUMPI PUSH1 0x40 MLOAD PUSH3 0x461BCD PUSH1 0xE5 SHL DUP2 MSTORE PUSH1 0x20 PUSH1 0x4 DUP3 ADD MSTORE PUSH1 0x10 PUSH1 0x24 DUP3 ADD MSTORE PUSH16 0x2737BA103430B73236329037BBB732B9 PUSH1 0x81 SHL PUSH1 0x44 DUP3 ADD MSTORE PUSH1 0x64 ADD PUSH2 0x71E JUMP JUMPDEST PUSH1 0x0 DUP3 DUP2 MSTORE PUSH1 0x11 PUSH1 0x20 SWAP1 DUP2 MSTORE PUSH1 0x40 DUP1 DUP4 KECCAK256 SLOAD PUSH1 0x16 SWAP1 SWAP3 MSTORE DUP1 DUP4 KECCAK256 SLOAD SWAP1 MLOAD PUSH1 0x1 PUSH1 0x1 PUSH1 0xA0 SHL SUB SWAP1 SWAP3 AND SWAP3 DUP2 ISZERO PUSH2 0x8FC MUL SWAP3 SWAP1 DUP2 DUP2 DUP2 DUP6 DUP9 DUP9 CALL SWAP4 POP POP POP POP ISZERO DUP1 ISZERO PUSH2 0x7BF JUMPI RETURNDATASIZE PUSH1 0x0 DUP1 RETURNDATACOPY RETURNDATASIZE PUSH1 0x0 REVERT JUMPDEST PUSH1 0x0 PUSH1 0x1 PUSH1 0x1 PUSH1 0xA0 SHL SUB DUP3 AND PUSH2 0x198E JUMPI PUSH1 0x40 MLOAD PUSH3 0x461BCD PUSH1 0xE5 SHL DUP2 MSTORE PUSH1 0x20 PUSH1 0x4 DUP3 ADD MSTORE PUSH1 0x29 PUSH1 0x24 DUP3 ADD MSTORE PUSH32 0x4552433732313A2061646472657373207A65726F206973206E6F742061207661 PUSH1 0x44 DUP3 ADD MSTORE PUSH9 0x3634B21037BBB732B9 PUSH1 0xB9 SHL PUSH1 0x64 DUP3 ADD MSTORE PUSH1 0x84 ADD PUSH2 0x71E JUMP JUMPDEST POP PUSH1 0x1 PUSH1 0x1 PUSH1 0xA0 SHL SUB AND PUSH1 0x0 SWAP1 DUP2 MSTORE PUSH1 0x4 PUSH1 0x20 MSTORE PUSH1 0x40 SWAP1 KECCAK256 SLOAD SWAP1 JUMP JUMPDEST PUSH2 0x19B2 PUSH2 0x3A92 JUMP JUMPDEST PUSH2 0x19BC PUSH1 0x0 PUSH2 0x3AEC JUMP JUMPDEST JUMP JUMPDEST DUP2 PUSH2 0x19E2 DUP2 PUSH1 0x40 MLOAD DUP1 PUSH1 0x40 ADD PUSH1 0x40 MSTORE DUP1 PUSH1 0x1 DUP2 MSTORE PUSH1 0x20 ADD PUSH1 0x17 PUSH1 0xF9 SHL DUP2 MSTORE POP PUSH2 0x3B3C JUMP JUMPDEST ISZERO PUSH2 0x1A2F JUMPI PUSH1 0x40 MLOAD PUSH3 0x461BCD PUSH1 0xE5 SHL DUP2 MSTORE PUSH1 0x20 PUSH1 0x4 DUP3 ADD MSTORE PUSH1 0x19 PUSH1 0x24 DUP3 ADD MSTORE PUSH32 0x48616E646C652063616E6E6F7420636F6E7461696E20272E2700000000000000 PUSH1 0x44 DUP3 ADD MSTORE PUSH1 0x64 ADD PUSH2 0x71E JUMP JUMPDEST DUP3 PUSH1 0x0 DUP2 SWAP1 POP PUSH1 0x0 PUSH1 0x40 MLOAD PUSH1 0x20 ADD PUSH2 0x1A46 SWAP1 PUSH2 0x4E3F JUMP JUMPDEST PUSH1 0x40 MLOAD PUSH1 0x20 DUP2 DUP4 SUB SUB DUP2 MSTORE SWAP1 PUSH1 0x40 MSTORE SWAP1 POP PUSH1 0x0 DUP3 MLOAD GT PUSH2 0x1A78 JUMPI PUSH1 0x40 MLOAD PUSH3 0x461BCD PUSH1 0xE5 SHL DUP2 MSTORE PUSH1 0x4 ADD PUSH2 0x71E SWAP1 PUSH2 0x4E77 JUMP JUMPDEST PUSH1 0x1 JUMPDEST DUP3 MLOAD DUP2 LT ISZERO PUSH2 0x1B15 JUMPI DUP3 DUP2 DUP2 MLOAD DUP2 LT PUSH2 0x1A96 JUMPI PUSH2 0x1A96 PUSH2 0x4EAE JUMP JUMPDEST PUSH1 0x20 SWAP2 ADD ADD MLOAD PUSH1 0x1 PUSH1 0x1 PUSH1 0xF8 SHL SUB NOT AND PUSH1 0x17 PUSH1 0xF9 SHL EQ DUP1 ISZERO PUSH2 0x1AE6 JUMPI POP DUP3 PUSH2 0x1ABF PUSH1 0x1 DUP4 PUSH2 0x4EDA JUMP JUMPDEST DUP2 MLOAD DUP2 LT PUSH2 0x1ACF JUMPI PUSH2 0x1ACF PUSH2 0x4EAE JUMP JUMPDEST PUSH1 0x20 SWAP2 ADD ADD MLOAD PUSH1 0x1 PUSH1 0x1 PUSH1 0xF8 SHL SUB NOT AND PUSH1 0x17 PUSH1 0xF9 SHL EQ JUMPDEST ISZERO PUSH2 0x1B03 JUMPI PUSH1 0x40 MLOAD PUSH3 0x461BCD PUSH1 0xE5 SHL DUP2 MSTORE PUSH1 0x4 ADD PUSH2 0x71E SWAP1 PUSH2 0x4EF1 JUMP JUMPDEST DUP1 PUSH2 0x1B0D DUP2 PUSH2 0x4F37 JUMP JUMPDEST SWAP2 POP POP PUSH2 0x1A7B JUMP JUMPDEST POP PUSH1 0x0 JUMPDEST DUP3 MLOAD DUP2 LT ISZERO PUSH2 0x1BCD JUMPI PUSH1 0x0 DUP4 DUP3 DUP2 MLOAD DUP2 LT PUSH2 0x1B36 JUMPI PUSH2 0x1B36 PUSH2 0x4EAE JUMP JUMPDEST ADD PUSH1 0x20 ADD MLOAD PUSH1 0x1 PUSH1 0x1 PUSH1 0xF8 SHL SUB NOT AND SWAP1 POP PUSH1 0x0 DUP1 JUMPDEST DUP5 MLOAD DUP2 LT ISZERO PUSH2 0x1B9A JUMPI DUP5 DUP2 DUP2 MLOAD DUP2 LT PUSH2 0x1B66 JUMPI PUSH2 0x1B66 PUSH2 0x4EAE JUMP JUMPDEST ADD PUSH1 0x20 ADD MLOAD PUSH1 0x1 PUSH1 0x1 PUSH1 0xF8 SHL SUB NOT DUP5 DUP2 AND SWAP2 AND EQ ISZERO PUSH2 0x1B88 JUMPI PUSH1 0x1 SWAP2 POP PUSH2 0x1B9A JUMP JUMPDEST DUP1 PUSH2 0x1B92 DUP2 PUSH2 0x4F37 JUMP JUMPDEST SWAP2 POP POP PUSH2 0x1B4B JUMP JUMPDEST POP DUP1 PUSH2 0x1BB8 JUMPI PUSH1 0x40 MLOAD PUSH3 0x461BCD PUSH1 0xE5 SHL DUP2 MSTORE PUSH1 0x4 ADD PUSH2 0x71E SWAP1 PUSH2 0x4F52 JUMP JUMPDEST POP POP DUP1 DUP1 PUSH2 0x1BC5 SWAP1 PUSH2 0x4F37 JUMP JUMPDEST SWAP2 POP POP PUSH2 0x1B19 JUMP JUMPDEST POP DUP2 PUSH1 0x0 DUP2 MLOAD DUP2 LT PUSH2 0x1BE1 JUMPI PUSH2 0x1BE1 PUSH2 0x4EAE JUMP JUMPDEST PUSH1 0x20 SWAP2 ADD ADD MLOAD PUSH1 0x1 PUSH1 0x1 PUSH1 0xF8 SHL SUB NOT AND PUSH1 0x2D PUSH1 0xF8 SHL EQ DUP1 ISZERO SWAP1 PUSH2 0x1C2A JUMPI POP DUP2 PUSH1 0x0 DUP2 MLOAD DUP2 LT PUSH2 0x1C12 JUMPI PUSH2 0x1C12 PUSH2 0x4EAE JUMP JUMPDEST PUSH1 0x20 SWAP2 ADD ADD MLOAD PUSH1 0x1 PUSH1 0x1 PUSH1 0xF8 SHL SUB NOT AND PUSH1 0x17 PUSH1 0xF9 SHL EQ ISZERO JUMPDEST DUP1 ISZERO PUSH2 0x1C68 JUMPI POP DUP2 PUSH1 0x1 DUP4 MLOAD PUSH2 0x1C40 SWAP2 SWAP1 PUSH2 0x4EDA JUMP JUMPDEST DUP2 MLOAD DUP2 LT PUSH2 0x1C50 JUMPI PUSH2 0x1C50 PUSH2 0x4EAE JUMP JUMPDEST PUSH1 0x20 SWAP2 ADD ADD MLOAD PUSH1 0x1 PUSH1 0x1 PUSH1 0xF8 SHL SUB NOT AND PUSH1 0x2D PUSH1 0xF8 SHL EQ ISZERO JUMPDEST DUP1 ISZERO PUSH2 0x1CA6 JUMPI POP DUP2 PUSH1 0x1 DUP4 MLOAD PUSH2 0x1C7E SWAP2 SWAP1 PUSH2 0x4EDA JUMP JUMPDEST DUP2 MLOAD DUP2 LT PUSH2 0x1C8E JUMPI PUSH2 0x1C8E PUSH2 0x4EAE JUMP JUMPDEST PUSH1 0x20 SWAP2 ADD ADD MLOAD PUSH1 0x1 PUSH1 0x1 PUSH1 0xF8 SHL SUB NOT AND PUSH1 0x17 PUSH1 0xF9 SHL EQ ISZERO JUMPDEST PUSH2 0x1CC2 JUMPI PUSH1 0x40 MLOAD PUSH3 0x461BCD PUSH1 0xE5 SHL DUP2 MSTORE PUSH1 0x4 ADD PUSH2 0x71E SWAP1 PUSH2 0x4F87 JUMP JUMPDEST DUP6 PUSH2 0x1CCC DUP2 PUSH2 0x382D JUMP JUMPDEST ISZERO DUP1 PUSH2 0x1CDC JUMPI POP PUSH2 0x1CDC DUP2 PUSH2 0x38DA JUMP JUMPDEST PUSH2 0x1D3A JUMPI PUSH1 0x40 MLOAD PUSH3 0x461BCD PUSH1 0xE5 SHL DUP2 MSTORE PUSH1 0x20 PUSH1 0x4 DUP3 ADD MSTORE PUSH1 0x29 PUSH1 0x24 DUP3 ADD MSTORE PUSH32 0x48616E646C652063616E6E6F7420636F6E7461696E20636F6E73656375746976 PUSH1 0x44 DUP3 ADD MSTORE PUSH9 0x652068797068656E73 PUSH1 0xB8 SHL PUSH1 0x64 DUP3 ADD MSTORE PUSH1 0x84 ADD PUSH2 0x71E JUMP JUMPDEST PUSH1 0x0 DUP8 PUSH1 0x40 MLOAD DUP1 PUSH1 0x40 ADD PUSH1 0x40 MSTORE DUP1 PUSH1 0x3 DUP2 MSTORE PUSH1 0x20 ADD PUSH3 0xE282BF PUSH1 0xE8 SHL DUP2 MSTORE POP PUSH1 0x40 MLOAD PUSH1 0x20 ADD PUSH2 0x1D6A SWAP3 SWAP2 SWAP1 PUSH2 0x4DB8 JUMP JUMPDEST PUSH1 0x40 MLOAD PUSH1 0x20 DUP2 DUP4 SUB SUB DUP2 MSTORE SWAP1 PUSH1 0x40 MSTORE SWAP1 POP PUSH1 0x0 PUSH1 0xC DUP3 PUSH1 0x40 MLOAD PUSH2 0x1D8D SWAP2 SWAP1 PUSH2 0x4D9C JUMP JUMPDEST SWAP1 DUP2 MSTORE PUSH1 0x20 ADD PUSH1 0x40 MLOAD DUP1 SWAP2 SUB SWAP1 KECCAK256 SWAP1 POP PUSH1 0x0 DUP2 PUSH1 0x0 ADD SLOAD PUSH1 0x0 EQ ISZERO DUP1 ISZERO PUSH2 0x1DB8 JUMPI POP TIMESTAMP DUP3 PUSH1 0x1 ADD SLOAD GT ISZERO JUMPDEST DUP3 SLOAD SWAP1 SWAP2 POP ISZERO DUP1 PUSH2 0x1DC6 JUMPI POP DUP1 JUMPDEST ISZERO PUSH2 0x20DF JUMPI DUP10 MLOAD PUSH1 0x0 PUSH2 0x1DD9 DUP3 DUP13 PUSH2 0x2D7F JUMP JUMPDEST PUSH1 0x8 SLOAD PUSH1 0x40 MLOAD PUSH4 0x3AF32ABF PUSH1 0xE0 SHL DUP2 MSTORE CALLER PUSH1 0x4 DUP3 ADD MSTORE SWAP2 SWAP3 POP PUSH1 0x0 SWAP2 PUSH1 0x1 PUSH1 0x1 PUSH1 0xA0 SHL SUB SWAP1 SWAP2 AND SWAP1 PUSH4 0x3AF32ABF SWAP1 PUSH1 0x24 ADD PUSH1 0x20 PUSH1 0x40 MLOAD DUP1 DUP4 SUB DUP2 DUP7 DUP1 EXTCODESIZE ISZERO DUP1 ISZERO PUSH2 0x1E22 JUMPI PUSH1 0x0 DUP1 REVERT JUMPDEST POP GAS STATICCALL ISZERO DUP1 ISZERO PUSH2 0x1E36 JUMPI RETURNDATASIZE PUSH1 0x0 DUP1 RETURNDATACOPY RETURNDATASIZE PUSH1 0x0 REVERT JUMPDEST POP POP POP POP PUSH1 0x40 MLOAD RETURNDATASIZE PUSH1 0x1F NOT PUSH1 0x1F DUP3 ADD AND DUP3 ADD DUP1 PUSH1 0x40 MSTORE POP DUP2 ADD SWAP1 PUSH2 0x1E5A SWAP2 SWAP1 PUSH2 0x4E22 JUMP JUMPDEST SWAP1 POP DUP1 DUP1 ISZERO PUSH2 0x1E69 JUMPI POP DUP12 PUSH1 0x1 EQ JUMPDEST DUP1 ISZERO PUSH2 0x1E76 JUMPI POP PUSH1 0x4 DUP4 LT ISZERO JUMPDEST DUP1 ISZERO PUSH2 0x1E91 JUMPI POP CALLER PUSH1 0x0 SWAP1 DUP2 MSTORE PUSH1 0x13 PUSH1 0x20 MSTORE PUSH1 0x40 SWAP1 KECCAK256 SLOAD PUSH1 0x3 GT JUMPDEST ISZERO PUSH2 0x1EBB JUMPI CALLER PUSH1 0x0 SWAP1 DUP2 MSTORE PUSH1 0x13 PUSH1 0x20 MSTORE PUSH1 0x40 DUP2 KECCAK256 DUP1 SLOAD SWAP2 PUSH2 0x1EB1 DUP4 PUSH2 0x4F37 JUMP JUMPDEST SWAP2 SWAP1 POP SSTORE POP PUSH2 0x1F4B JUMP JUMPDEST DUP2 CALLVALUE LT PUSH2 0x1EDD JUMPI CALLER PUSH1 0x0 SWAP1 DUP2 MSTORE PUSH1 0x14 PUSH1 0x20 MSTORE PUSH1 0x40 DUP2 KECCAK256 DUP1 SLOAD SWAP2 PUSH2 0x1EB1 DUP4 PUSH2 0x4F37 JUMP JUMPDEST PUSH1 0x40 MLOAD PUSH3 0x461BCD PUSH1 0xE5 SHL DUP2 MSTORE PUSH1 0x20 PUSH1 0x4 DUP3 ADD MSTORE PUSH1 0x3B PUSH1 0x24 DUP3 ADD MSTORE PUSH32 0x496E73756666696369656E7420726567697374726174696F6E20666565206F72 PUSH1 0x44 DUP3 ADD MSTORE PUSH32 0x206E6F7420656C696769626C6520666F722066726565206D696E740000000000 PUSH1 0x64 DUP3 ADD MSTORE PUSH1 0x84 ADD PUSH2 0x71E JUMP JUMPDEST DUP4 ISZERO PUSH2 0x1F5C JUMPI DUP5 SLOAD PUSH2 0x1F5C SWAP1 PUSH2 0x3BC4 JUMP JUMPDEST PUSH1 0x0 PUSH1 0xA SLOAD PUSH1 0x1 PUSH2 0x1F6D SWAP2 SWAP1 PUSH2 0x4FD6 JUMP JUMPDEST SWAP1 POP PUSH1 0x1 PUSH1 0xA PUSH1 0x0 DUP3 DUP3 SLOAD PUSH2 0x1F82 SWAP2 SWAP1 PUSH2 0x4FD6 JUMP JUMPDEST SWAP1 SWAP2 SSTORE POP PUSH2 0x1F92 SWAP1 POP CALLER DUP3 PUSH2 0x3985 JUMP JUMPDEST PUSH1 0x0 PUSH1 0xC DUP9 PUSH1 0x40 MLOAD PUSH2 0x1FA4 SWAP2 SWAP1 PUSH2 0x4D9C JUMP JUMPDEST SWAP1 DUP2 MSTORE PUSH1 0x40 MLOAD SWAP1 DUP2 SWAP1 SUB PUSH1 0x20 ADD SWAP1 KECCAK256 DUP3 DUP2 SSTORE SWAP1 POP PUSH2 0x1FE2 DUP15 PUSH32 0x0 PUSH2 0x4FEE JUMP JUMPDEST PUSH2 0x1FEC SWAP1 TIMESTAMP PUSH2 0x4FD6 JUMP JUMPDEST PUSH1 0x1 DUP3 ADD SSTORE PUSH1 0x2 DUP2 ADD DUP1 SLOAD PUSH1 0x1 PUSH1 0x1 PUSH1 0xA0 SHL SUB NOT AND CALLER OR SWAP1 SSTORE PUSH1 0x5 DUP2 ADD DUP15 SWAP1 SSTORE PUSH1 0x0 DUP3 DUP2 MSTORE PUSH1 0xD PUSH1 0x20 SWAP1 DUP2 MSTORE PUSH1 0x40 SWAP1 SWAP2 KECCAK256 DUP10 MLOAD PUSH2 0x202B SWAP3 DUP12 ADD SWAP1 PUSH2 0x46E9 JUMP JUMPDEST POP DUP2 PUSH1 0xF DUP10 PUSH1 0x40 MLOAD PUSH2 0x203D SWAP2 SWAP1 PUSH2 0x4D9C JUMP JUMPDEST SWAP1 DUP2 MSTORE PUSH1 0x40 MLOAD SWAP1 DUP2 SWAP1 SUB PUSH1 0x20 ADD SWAP1 KECCAK256 SSTORE DUP3 PUSH2 0x208D JUMPI PUSH1 0x7 SLOAD PUSH1 0x40 MLOAD PUSH1 0x1 PUSH1 0x1 PUSH1 0xA0 SHL SUB SWAP1 SWAP2 AND SWAP1 CALLVALUE DUP1 ISZERO PUSH2 0x8FC MUL SWAP2 PUSH1 0x0 DUP2 DUP2 DUP2 DUP6 DUP9 DUP9 CALL SWAP4 POP POP POP POP ISZERO DUP1 ISZERO PUSH2 0x208B JUMPI RETURNDATASIZE PUSH1 0x0 DUP1 RETURNDATACOPY RETURNDATASIZE PUSH1 0x0 REVERT JUMPDEST POP JUMPDEST DUP2 CALLER PUSH1 0x1 PUSH1 0x1 PUSH1 0xA0 SHL SUB AND PUSH32 0xBCA2D57EABAB381FA4AB39218B0B9DDC157BAE88693C3A180A5451DAC48303A0 DUP11 DUP5 PUSH1 0x1 ADD SLOAD PUSH1 0x40 MLOAD PUSH2 0x20CD SWAP3 SWAP2 SWAP1 PUSH2 0x5081 JUMP JUMPDEST PUSH1 0x40 MLOAD DUP1 SWAP2 SUB SWAP1 LOG3 POP POP POP POP POP PUSH2 0x2139 JUMP JUMPDEST PUSH1 0x40 MLOAD PUSH3 0x461BCD PUSH1 0xE5 SHL DUP2 MSTORE PUSH1 0x20 PUSH1 0x4 DUP3 ADD MSTORE PUSH1 0x29 PUSH1 0x24 DUP3 ADD MSTORE PUSH32 0x48616E646C6520616C7265616479207265676973746572656420616E64206E6F PUSH1 0x44 DUP3 ADD MSTORE PUSH9 0x1D08195E1C1A5C9959 PUSH1 0xBA SHL PUSH1 0x64 DUP3 ADD MSTORE PUSH1 0x84 ADD PUSH2 0x71E JUMP JUMPDEST POP POP POP POP POP POP POP POP POP POP JUMP JUMPDEST PUSH2 0x2189 PUSH1 0x40 MLOAD DUP1 PUSH1 0xA0 ADD PUSH1 0x40 MSTORE DUP1 PUSH1 0x0 DUP2 MSTORE PUSH1 0x20 ADD PUSH1 0x0 PUSH1 0x1 PUSH1 0x1 PUSH1 0xA0 SHL SUB AND DUP2 MSTORE PUSH1 0x20 ADD PUSH1 0x0 DUP2 MSTORE PUSH1 0x20 ADD PUSH1 0x0 PUSH1 0x1 PUSH1 0x1 PUSH1 0xA0 SHL SUB AND DUP2 MSTORE PUSH1 0x20 ADD PUSH1 0x60 DUP2 MSTORE POP SWAP1 JUMP JUMPDEST PUSH1 0x0 DUP1 PUSH2 0x2195 DUP5 PUSH2 0x3DBB JUMP JUMPDEST SWAP2 POP SWAP2 POP PUSH1 0x0 DUP2 PUSH1 0x40 MLOAD DUP1 PUSH1 0x40 ADD PUSH1 0x40 MSTORE DUP1 PUSH1 0x3 DUP2 MSTORE PUSH1 0x20 ADD PUSH3 0xE282BF PUSH1 0xE8 SHL DUP2 MSTORE POP PUSH1 0x40 MLOAD PUSH1 0x20 ADD PUSH2 0x21C9 SWAP3 SWAP2 SWAP1 PUSH2 0x4DB8 JUMP JUMPDEST PUSH1 0x40 MLOAD PUSH1 0x20 DUP2 DUP4 SUB SUB DUP2 MSTORE SWAP1 PUSH1 0x40 MSTORE SWAP1 POP PUSH1 0x0 PUSH1 0xC DUP3 PUSH1 0x40 MLOAD PUSH2 0x21EC SWAP2 SWAP1 PUSH2 0x4D9C JUMP JUMPDEST SWAP1 DUP2 MSTORE PUSH1 0x20 ADD PUSH1 0x40 MLOAD DUP1 SWAP2 SUB SWAP1 KECCAK256 PUSH1 0x4 ADD DUP5 PUSH1 0x40 MLOAD PUSH2 0x220B SWAP2 SWAP1 PUSH2 0x4D9C JUMP JUMPDEST SWAP1 DUP2 MSTORE PUSH1 0x40 MLOAD SWAP1 DUP2 SWAP1 SUB PUSH1 0x20 ADD SWAP1 KECCAK256 DUP1 SLOAD SWAP1 SWAP2 POP PUSH2 0x226B JUMPI PUSH1 0x40 MLOAD PUSH3 0x461BCD PUSH1 0xE5 SHL DUP2 MSTORE PUSH1 0x20 PUSH1 0x4 DUP3 ADD MSTORE PUSH1 0x1E PUSH1 0x24 DUP3 ADD MSTORE PUSH32 0x53756268616E646C6520746F6B656E20646F6573206E6F742065786973740000 PUSH1 0x44 DUP3 ADD MSTORE PUSH1 0x64 ADD PUSH2 0x71E JUMP JUMPDEST PUSH1 0x0 PUSH2 0x227A DUP3 PUSH1 0x0 ADD SLOAD PUSH2 0x1846 JUMP JUMPDEST SWAP1 POP PUSH1 0x0 PUSH2 0x22A6 PUSH1 0xC DUP6 PUSH1 0x40 MLOAD PUSH2 0x2291 SWAP2 SWAP1 PUSH2 0x4D9C JUMP JUMPDEST SWAP1 DUP2 MSTORE PUSH1 0x40 MLOAD SWAP1 DUP2 SWAP1 SUB PUSH1 0x20 ADD SWAP1 KECCAK256 SLOAD PUSH2 0x1846 JUMP JUMPDEST SWAP1 POP PUSH1 0x40 MLOAD DUP1 PUSH1 0xA0 ADD PUSH1 0x40 MSTORE DUP1 DUP5 PUSH1 0x0 ADD SLOAD DUP2 MSTORE PUSH1 0x20 ADD DUP4 PUSH1 0x1 PUSH1 0x1 PUSH1 0xA0 SHL SUB AND DUP2 MSTORE PUSH1 0x20 ADD DUP5 PUSH1 0x2 ADD SLOAD DUP2 MSTORE PUSH1 0x20 ADD DUP3 PUSH1 0x1 PUSH1 0x1 PUSH1 0xA0 SHL SUB AND DUP2 MSTORE PUSH1 0x20 ADD DUP5 PUSH1 0x5 ADD DUP1 SLOAD PUSH2 0x22F4 SWAP1 PUSH2 0x4C12 JUMP JUMPDEST DUP1 PUSH1 0x1F ADD PUSH1 0x20 DUP1 SWAP2 DIV MUL PUSH1 0x20 ADD PUSH1 0x40 MLOAD SWAP1 DUP2 ADD PUSH1 0x40 MSTORE DUP1 SWAP3 SWAP2 SWAP1 DUP2 DUP2 MSTORE PUSH1 0x20 ADD DUP3 DUP1 SLOAD PUSH2 0x2320 SWAP1 PUSH2 0x4C12 JUMP JUMPDEST DUP1 ISZERO PUSH2 0x236D JUMPI DUP1 PUSH1 0x1F LT PUSH2 0x2342 JUMPI PUSH2 0x100 DUP1 DUP4 SLOAD DIV MUL DUP4 MSTORE SWAP2 PUSH1 0x20 ADD SWAP2 PUSH2 0x236D JUMP JUMPDEST DUP3 ADD SWAP2 SWAP1 PUSH1 0x0 MSTORE PUSH1 0x20 PUSH1 0x0 KECCAK256 SWAP1 JUMPDEST DUP2 SLOAD DUP2 MSTORE SWAP1 PUSH1 0x1 ADD SWAP1 PUSH1 0x20 ADD DUP1 DUP4 GT PUSH2 0x2350 JUMPI DUP3 SWAP1 SUB PUSH1 0x1F AND DUP3 ADD SWAP2 JUMPDEST POP POP POP POP POP DUP2 MSTORE POP SWAP7 POP POP POP POP POP POP POP SWAP2 SWAP1 POP JUMP JUMPDEST PUSH1 0x60 PUSH1 0x2 DUP1 SLOAD PUSH2 0x5FF SWAP1 PUSH2 0x4C12 JUMP JUMPDEST PUSH2 0x23CC PUSH1 0x40 MLOAD DUP1 PUSH1 0xA0 ADD PUSH1 0x40 MSTORE DUP1 PUSH1 0x0 DUP2 MSTORE PUSH1 0x20 ADD PUSH1 0x0 PUSH1 0x1 PUSH1 0x1 PUSH1 0xA0 SHL SUB AND DUP2 MSTORE PUSH1 0x20 ADD PUSH1 0x0 DUP2 MSTORE PUSH1 0x20 ADD PUSH1 0x0 DUP2 MSTORE PUSH1 0x20 ADD PUSH1 0x60 DUP2 MSTORE POP SWAP1 JUMP JUMPDEST PUSH1 0x0 DUP3 PUSH1 0x40 MLOAD DUP1 PUSH1 0x40 ADD PUSH1 0x40 MSTORE DUP1 PUSH1 0x3 DUP2 MSTORE PUSH1 0x20 ADD PUSH3 0xE282BF PUSH1 0xE8 SHL DUP2 MSTORE POP PUSH1 0x40 MLOAD PUSH1 0x20 ADD PUSH2 0x23FC SWAP3 SWAP2 SWAP1 PUSH2 0x4DB8 JUMP JUMPDEST PUSH1 0x40 MLOAD PUSH1 0x20 DUP2 DUP4 SUB SUB DUP2 MSTORE SWAP1 PUSH1 0x40 MSTORE SWAP1 POP PUSH1 0x0 PUSH1 0xC DUP3 PUSH1 0x40 MLOAD PUSH2 0x241F SWAP2 SWAP1 PUSH2 0x4D9C JUMP JUMPDEST SWAP1 DUP2 MSTORE PUSH1 0x40 MLOAD SWAP1 DUP2 SWAP1 SUB PUSH1 0x20 ADD SWAP1 KECCAK256 DUP1 SLOAD SWAP1 SWAP2 POP PUSH2 0x247F JUMPI PUSH1 0x40 MLOAD PUSH3 0x461BCD PUSH1 0xE5 SHL DUP2 MSTORE PUSH1 0x20 PUSH1 0x4 DUP3 ADD MSTORE PUSH1 0x1B PUSH1 0x24 DUP3 ADD MSTORE PUSH32 0x48616E646C6520746F6B656E20646F6573206E6F742065786973740000000000 PUSH1 0x44 DUP3 ADD MSTORE PUSH1 0x64 ADD PUSH2 0x71E JUMP JUMPDEST PUSH1 0x0 PUSH2 0x248E DUP3 PUSH1 0x0 ADD SLOAD PUSH2 0x1846 JUMP JUMPDEST SWAP1 POP PUSH1 0x40 MLOAD DUP1 PUSH1 0xA0 ADD PUSH1 0x40 MSTORE DUP1 DUP4 PUSH1 0x0 ADD SLOAD DUP2 MSTORE PUSH1 0x20 ADD DUP3 PUSH1 0x1 PUSH1 0x1 PUSH1 0xA0 SHL SUB AND DUP2 MSTORE PUSH1 0x20 ADD DUP4 PUSH1 0x1 ADD SLOAD DUP2 MSTORE PUSH1 0x20 ADD DUP4 PUSH1 0x3 ADD SLOAD DUP2 MSTORE PUSH1 0x20 ADD DUP4 PUSH1 0x6 ADD DUP1 SLOAD PUSH2 0x24D7 SWAP1 PUSH2 0x4C12 JUMP JUMPDEST DUP1 PUSH1 0x1F ADD PUSH1 0x20 DUP1 SWAP2 DIV MUL PUSH1 0x20 ADD PUSH1 0x40 MLOAD SWAP1 DUP2 ADD PUSH1 0x40 MSTORE DUP1 SWAP3 SWAP2 SWAP1 DUP2 DUP2 MSTORE PUSH1 0x20 ADD DUP3 DUP1 SLOAD PUSH2 0x2503 SWAP1 PUSH2 0x4C12 JUMP JUMPDEST DUP1 ISZERO PUSH2 0x2550 JUMPI DUP1 PUSH1 0x1F LT PUSH2 0x2525 JUMPI PUSH2 0x100 DUP1 DUP4 SLOAD DIV MUL DUP4 MSTORE SWAP2 PUSH1 0x20 ADD SWAP2 PUSH2 0x2550 JUMP JUMPDEST DUP3 ADD SWAP2 SWAP1 PUSH1 0x0 MSTORE PUSH1 0x20 PUSH1 0x0 KECCAK256 SWAP1 JUMPDEST DUP2 SLOAD DUP2 MSTORE SWAP1 PUSH1 0x1 ADD SWAP1 PUSH1 0x20 ADD DUP1 DUP4 GT PUSH2 0x2533 JUMPI DUP3 SWAP1 SUB PUSH1 0x1F AND DUP3 ADD SWAP2 JUMPDEST POP POP POP POP POP DUP2 MSTORE POP SWAP4 POP POP POP POP SWAP2 SWAP1 POP JUMP JUMPDEST PUSH1 0x0 DUP2 MLOAD GT PUSH2 0x2583 JUMPI PUSH1 0x40 MLOAD PUSH3 0x461BCD PUSH1 0xE5 SHL DUP2 MSTORE PUSH1 0x4 ADD PUSH2 0x71E SWAP1 PUSH2 0x50A3 JUMP JUMPDEST PUSH1 0x0 DUP2 PUSH1 0x40 MLOAD DUP1 PUSH1 0x40 ADD PUSH1 0x40 MSTORE DUP1 PUSH1 0x3 DUP2 MSTORE PUSH1 0x20 ADD PUSH3 0xE282BF PUSH1 0xE8 SHL DUP2 MSTORE POP PUSH1 0x40 MLOAD PUSH1 0x20 ADD PUSH2 0x25B3 SWAP3 SWAP2 SWAP1 PUSH2 0x4DB8 JUMP JUMPDEST PUSH1 0x40 MLOAD PUSH1 0x20 DUP2 DUP4 SUB SUB DUP2 MSTORE SWAP1 PUSH1 0x40 MSTORE SWAP1 POP PUSH1 0x0 PUSH1 0xC DUP3 PUSH1 0x40 MLOAD PUSH2 0x25D6 SWAP2 SWAP1 PUSH2 0x4D9C JUMP JUMPDEST SWAP1 DUP2 MSTORE PUSH1 0x40 MLOAD SWAP1 DUP2 SWAP1 SUB PUSH1 0x20 ADD SWAP1 KECCAK256 DUP1 SLOAD SWAP1 SWAP2 POP PUSH2 0x2606 JUMPI PUSH1 0x40 MLOAD PUSH3 0x461BCD PUSH1 0xE5 SHL DUP2 MSTORE PUSH1 0x4 ADD PUSH2 0x71E SWAP1 PUSH2 0x50DA JUMP JUMPDEST PUSH1 0x2 DUP2 ADD SLOAD PUSH1 0x1 PUSH1 0x1 PUSH1 0xA0 SHL SUB AND CALLER EQ PUSH2 0x267D JUMPI PUSH1 0x40 MLOAD PUSH3 0x461BCD PUSH1 0xE5 SHL DUP2 MSTORE PUSH1 0x20 PUSH1 0x4 DUP3 ADD MSTORE PUSH1 0x32 PUSH1 0x24 DUP3 ADD MSTORE PUSH32 0x4F6E6C792074686520706172656E742068616E646C65206F776E65722063616E PUSH1 0x44 DUP3 ADD MSTORE PUSH18 0x103A37B3B3B632903832B936B4B9B9B4B7B7 PUSH1 0x71 SHL PUSH1 0x64 DUP3 ADD MSTORE PUSH1 0x84 ADD PUSH2 0x71E JUMP JUMPDEST CALLER PUSH1 0x0 SWAP1 DUP2 MSTORE PUSH1 0xE PUSH1 0x20 MSTORE PUSH1 0x40 DUP1 DUP3 KECCAK256 SWAP1 MLOAD PUSH2 0x269A SWAP1 DUP6 SWAP1 PUSH2 0x4D9C JUMP JUMPDEST SWAP1 DUP2 MSTORE PUSH1 0x40 MLOAD SWAP1 DUP2 SWAP1 SUB PUSH1 0x20 ADD SWAP1 KECCAK256 DUP1 SLOAD SWAP1 SWAP2 POP PUSH1 0xFF PUSH1 0x1 PUSH1 0xA0 SHL SWAP1 SWAP2 DIV AND PUSH2 0x2743 JUMPI CALLVALUE PUSH7 0xA4D88DDD94000 EQ PUSH2 0x2708 JUMPI PUSH1 0x40 MLOAD PUSH3 0x461BCD PUSH1 0xE5 SHL DUP2 MSTORE PUSH1 0x20 PUSH1 0x4 DUP3 ADD MSTORE PUSH1 0x12 PUSH1 0x24 DUP3 ADD MSTORE PUSH18 0x125B9D985B1A590819995948185B5BDD5B9D PUSH1 0x72 SHL PUSH1 0x44 DUP3 ADD MSTORE PUSH1 0x64 ADD PUSH2 0x71E JUMP JUMPDEST PUSH1 0x7 SLOAD PUSH1 0x40 MLOAD PUSH1 0x1 PUSH1 0x1 PUSH1 0xA0 SHL SUB SWAP1 SWAP2 AND SWAP1 CALLVALUE DUP1 ISZERO PUSH2 0x8FC MUL SWAP2 PUSH1 0x0 DUP2 DUP2 DUP2 DUP6 DUP9 DUP9 CALL SWAP4 POP POP POP POP ISZERO DUP1 ISZERO PUSH2 0x2741 JUMPI RETURNDATASIZE PUSH1 0x0 DUP1 RETURNDATACOPY RETURNDATASIZE PUSH1 0x0 REVERT JUMPDEST POP JUMPDEST DUP1 SLOAD PUSH1 0xFF PUSH1 0x1 PUSH1 0xA0 SHL DUP1 DUP4 DIV DUP3 AND ISZERO DUP2 MUL PUSH1 0xFF PUSH1 0xA0 SHL NOT SWAP1 SWAP4 AND SWAP3 SWAP1 SWAP3 OR DUP1 DUP5 SSTORE DUP5 SLOAD PUSH1 0x40 MLOAD SWAP1 SWAP4 DUP5 SWAP4 CALLER SWAP4 PUSH31 0xA26CDEC7E1B4C1E4C251CBDBE040BB32590F4CF5878456BD50E81EF88ABF38 SWAP4 PUSH2 0x27A1 SWAP4 DUP12 SWAP4 SWAP3 DIV SWAP1 SWAP2 AND SWAP1 PUSH2 0x5111 JUMP JUMPDEST PUSH1 0x40 MLOAD DUP1 SWAP2 SUB SWAP1 LOG3 POP POP POP POP POP JUMP JUMPDEST PUSH2 0x27BB CALLER DUP4 DUP4 PUSH2 0x3E0A JUMP JUMPDEST POP POP JUMP JUMPDEST PUSH1 0x0 DUP3 DUP2 MSTORE PUSH1 0x10 PUSH1 0x20 MSTORE PUSH1 0x40 DUP2 KECCAK256 SLOAD ISZERO PUSH2 0x27DB JUMPI POP PUSH1 0x1 PUSH2 0x27DF JUMP JUMPDEST POP PUSH1 0x0 JUMPDEST PUSH1 0x0 DUP2 PUSH1 0x1 DUP2 GT ISZERO PUSH2 0x27F3 JUMPI PUSH2 0x27F3 PUSH2 0x4C4D JUMP JUMPDEST EQ ISZERO PUSH2 0x28BB JUMPI PUSH1 0x0 DUP4 DUP2 MSTORE PUSH1 0xD PUSH1 0x20 MSTORE PUSH1 0x40 DUP1 DUP3 KECCAK256 SWAP1 MLOAD PUSH1 0xC SWAP2 PUSH2 0x2816 SWAP2 PUSH2 0x4C63 JUMP JUMPDEST SWAP1 DUP2 MSTORE PUSH1 0x40 MLOAD SWAP1 DUP2 SWAP1 SUB PUSH1 0x20 ADD SWAP1 KECCAK256 PUSH1 0x2 DUP2 ADD SLOAD SWAP1 SWAP2 POP PUSH1 0x1 PUSH1 0x1 PUSH1 0xA0 SHL SUB SWAP1 DUP2 AND SWAP1 DUP7 AND DUP2 EQ ISZERO PUSH2 0x285A JUMPI PUSH1 0x40 MLOAD PUSH3 0x461BCD PUSH1 0xE5 SHL DUP2 MSTORE PUSH1 0x4 ADD PUSH2 0x71E SWAP1 PUSH2 0x4CD5 JUMP JUMPDEST PUSH1 0x2 DUP3 ADD DUP1 SLOAD PUSH1 0x1 PUSH1 0x1 PUSH1 0xA0 SHL SUB NOT AND PUSH1 0x1 PUSH1 0x1 PUSH1 0xA0 SHL SUB DUP9 DUP2 AND SWAP2 DUP3 OR SWAP1 SWAP3 SSTORE PUSH1 0x0 DUP8 DUP2 MSTORE PUSH1 0xD PUSH1 0x20 MSTORE PUSH1 0x40 SWAP1 DUP2 SWAP1 KECCAK256 SWAP1 MLOAD DUP9 SWAP4 DUP12 AND SWAP2 PUSH1 0x0 DUP1 MLOAD PUSH1 0x20 PUSH2 0x54FC DUP4 CODECOPY DUP2 MLOAD SWAP2 MSTORE SWAP2 PUSH2 0x28AC SWAP2 SWAP1 PUSH2 0x4D17 JUMP JUMPDEST PUSH1 0x40 MLOAD DUP1 SWAP2 SUB SWAP1 LOG4 POP POP PUSH2 0x29EC JUMP JUMPDEST PUSH1 0x1 DUP2 PUSH1 0x1 DUP2 GT ISZERO PUSH2 0x28CF JUMPI PUSH2 0x28CF PUSH2 0x4C4D JUMP JUMPDEST EQ ISZERO PUSH2 0x29EC JUMPI PUSH1 0x0 DUP4 DUP2 MSTORE PUSH1 0x10 PUSH1 0x20 SWAP1 DUP2 MSTORE PUSH1 0x40 DUP1 DUP4 KECCAK256 SLOAD DUP4 MSTORE PUSH1 0xD SWAP1 SWAP2 MSTORE DUP1 DUP3 KECCAK256 SWAP1 MLOAD PUSH1 0xC SWAP2 PUSH2 0x28FF SWAP2 PUSH2 0x4C63 JUMP JUMPDEST SWAP1 DUP2 MSTORE PUSH1 0x20 ADD PUSH1 0x40 MLOAD DUP1 SWAP2 SUB SWAP1 KECCAK256 PUSH1 0x4 ADD PUSH2 0x2931 PUSH1 0xD PUSH1 0x0 DUP8 DUP2 MSTORE PUSH1 0x20 ADD SWAP1 DUP2 MSTORE PUSH1 0x20 ADD PUSH1 0x0 KECCAK256 DUP1 SLOAD PUSH2 0x936 SWAP1 PUSH2 0x4C12 JUMP JUMPDEST PUSH1 0x40 MLOAD PUSH2 0x293E SWAP2 SWAP1 PUSH2 0x4D9C JUMP JUMPDEST SWAP1 DUP2 MSTORE PUSH1 0x40 MLOAD SWAP1 DUP2 SWAP1 SUB PUSH1 0x20 ADD SWAP1 KECCAK256 PUSH1 0x1 DUP2 ADD SLOAD SWAP1 SWAP2 POP PUSH1 0x1 PUSH1 0x1 PUSH1 0xA0 SHL SUB SWAP1 DUP2 AND SWAP1 DUP7 AND DUP2 EQ ISZERO PUSH2 0x2982 JUMPI PUSH1 0x40 MLOAD PUSH3 0x461BCD PUSH1 0xE5 SHL DUP2 MSTORE PUSH1 0x4 ADD PUSH2 0x71E SWAP1 PUSH2 0x4CD5 JUMP JUMPDEST PUSH1 0x1 DUP3 ADD DUP1 SLOAD PUSH1 0x1 PUSH1 0x1 PUSH1 0xA0 SHL SUB NOT AND PUSH1 0x1 PUSH1 0x1 PUSH1 0xA0 SHL SUB DUP9 AND SWAP1 DUP2 OR SWAP1 SWAP2 SSTORE PUSH1 0x0 DUP7 DUP2 MSTORE PUSH1 0xD PUSH1 0x20 MSTORE PUSH1 0x40 SWAP1 KECCAK256 DUP1 SLOAD DUP8 SWAP3 SWAP2 DUP3 SWAP2 PUSH1 0x0 DUP1 MLOAD PUSH1 0x20 PUSH2 0x54FC DUP4 CODECOPY DUP2 MLOAD SWAP2 MSTORE SWAP2 PUSH2 0x29D4 SWAP2 PUSH2 0x936 SWAP1 PUSH2 0x4C12 JUMP JUMPDEST PUSH1 0x40 MLOAD PUSH2 0x29E1 SWAP2 SWAP1 PUSH2 0x480D JUMP JUMPDEST PUSH1 0x40 MLOAD DUP1 SWAP2 SUB SWAP1 LOG4 POP POP JUMPDEST PUSH2 0x29F8 DUP6 DUP6 DUP6 DUP6 PUSH2 0x3ED9 JUMP JUMPDEST POP POP POP POP POP JUMP JUMPDEST PUSH1 0x0 DUP3 PUSH1 0x40 MLOAD DUP1 PUSH1 0x40 ADD PUSH1 0x40 MSTORE DUP1 PUSH1 0x3 DUP2 MSTORE PUSH1 0x20 ADD PUSH3 0xE282BF PUSH1 0xE8 SHL DUP2 MSTORE POP PUSH1 0x40 MLOAD PUSH1 0x20 ADD PUSH2 0x2A2F SWAP3 SWAP2 SWAP1 PUSH2 0x4DB8 JUMP JUMPDEST PUSH1 0x40 DUP1 MLOAD PUSH1 0x1F NOT DUP2 DUP5 SUB ADD DUP2 MSTORE SWAP2 SWAP1 MSTORE DUP4 MLOAD SWAP1 SWAP2 POP PUSH1 0x0 PUSH2 0x2A50 DUP3 DUP6 PUSH2 0x2D7F JUMP JUMPDEST SWAP1 POP DUP1 CALLVALUE LT ISZERO PUSH2 0x2A95 JUMPI PUSH1 0x40 MLOAD PUSH3 0x461BCD PUSH1 0xE5 SHL DUP2 MSTORE PUSH1 0x20 PUSH1 0x4 DUP3 ADD MSTORE PUSH1 0x10 PUSH1 0x24 DUP3 ADD MSTORE PUSH16 0x496E73756666696369656E7420666565 PUSH1 0x80 SHL PUSH1 0x44 DUP3 ADD MSTORE PUSH1 0x64 ADD PUSH2 0x71E JUMP JUMPDEST PUSH1 0x0 PUSH1 0xC DUP5 PUSH1 0x40 MLOAD PUSH2 0x2AA7 SWAP2 SWAP1 PUSH2 0x4D9C JUMP JUMPDEST SWAP1 DUP2 MSTORE PUSH1 0x40 MLOAD SWAP1 DUP2 SWAP1 SUB PUSH1 0x20 ADD SWAP1 KECCAK256 DUP1 SLOAD SWAP1 SWAP2 POP PUSH2 0x2AD7 JUMPI PUSH1 0x40 MLOAD PUSH3 0x461BCD PUSH1 0xE5 SHL DUP2 MSTORE PUSH1 0x4 ADD PUSH2 0x71E SWAP1 PUSH2 0x5135 JUMP JUMPDEST TIMESTAMP DUP2 PUSH1 0x1 ADD SLOAD GT PUSH2 0x2B50 JUMPI PUSH1 0x40 MLOAD PUSH3 0x461BCD PUSH1 0xE5 SHL DUP2 MSTORE PUSH1 0x20 PUSH1 0x4 DUP3 ADD MSTORE PUSH1 0x3E PUSH1 0x24 DUP3 ADD MSTORE PUSH32 0x48616E646C652068617320657870697265642C20636C61696D20746869732068 PUSH1 0x44 DUP3 ADD MSTORE PUSH32 0x616E646C65207573696E6720746865206D696E742066756E6374696F6E2E0000 PUSH1 0x64 DUP3 ADD MSTORE PUSH1 0x84 ADD PUSH2 0x71E JUMP JUMPDEST PUSH2 0x2B7A PUSH32 0x0 DUP7 PUSH2 0x4FEE JUMP JUMPDEST DUP2 PUSH1 0x1 ADD PUSH1 0x0 DUP3 DUP3 SLOAD PUSH2 0x2B8D SWAP2 SWAP1 PUSH2 0x4FD6 JUMP JUMPDEST SWAP1 SWAP2 SSTORE POP POP PUSH1 0x7 SLOAD PUSH1 0x40 MLOAD PUSH1 0x1 PUSH1 0x1 PUSH1 0xA0 SHL SUB SWAP1 SWAP2 AND SWAP1 CALLVALUE DUP1 ISZERO PUSH2 0x8FC MUL SWAP2 PUSH1 0x0 DUP2 DUP2 DUP2 DUP6 DUP9 DUP9 CALL SWAP4 POP POP POP POP ISZERO DUP1 ISZERO PUSH2 0x2BCB JUMPI RETURNDATASIZE PUSH1 0x0 DUP1 RETURNDATACOPY RETURNDATASIZE PUSH1 0x0 REVERT JUMPDEST POP DUP1 SLOAD DUP1 PUSH2 0x2BD8 DUP2 PUSH2 0x1846 JUMP JUMPDEST PUSH1 0x1 PUSH1 0x1 PUSH1 0xA0 SHL SUB AND PUSH32 0x34833CE460F4600EB9E6F25063ABD3787BC1D36D60A3A5FD63F63B5EEBDA8C4 CALLER DUP9 DUP7 PUSH1 0x1 ADD SLOAD PUSH1 0x40 MLOAD PUSH2 0xD2E SWAP4 SWAP3 SWAP2 SWAP1 PUSH2 0x5164 JUMP JUMPDEST PUSH1 0x0 DUP1 DUP3 MLOAD GT PUSH2 0x2C3A JUMPI PUSH1 0x40 MLOAD PUSH3 0x461BCD PUSH1 0xE5 SHL DUP2 MSTORE PUSH1 0x4 ADD PUSH2 0x71E SWAP1 PUSH2 0x50A3 JUMP JUMPDEST PUSH1 0x0 DUP3 PUSH1 0x40 MLOAD DUP1 PUSH1 0x40 ADD PUSH1 0x40 MSTORE DUP1 PUSH1 0x3 DUP2 MSTORE PUSH1 0x20 ADD PUSH3 0xE282BF PUSH1 0xE8 SHL DUP2 MSTORE POP PUSH1 0x40 MLOAD PUSH1 0x20 ADD PUSH2 0x2C6A SWAP3 SWAP2 SWAP1 PUSH2 0x4DB8 JUMP JUMPDEST PUSH1 0x40 MLOAD PUSH1 0x20 DUP2 DUP4 SUB SUB DUP2 MSTORE SWAP1 PUSH1 0x40 MSTORE SWAP1 POP PUSH1 0x0 PUSH1 0xC DUP3 PUSH1 0x40 MLOAD PUSH2 0x2C8D SWAP2 SWAP1 PUSH2 0x4D9C JUMP JUMPDEST SWAP1 DUP2 MSTORE PUSH1 0x40 MLOAD SWAP1 DUP2 SWAP1 SUB PUSH1 0x20 ADD SWAP1 KECCAK256 DUP1 SLOAD SWAP1 SWAP2 POP PUSH2 0x2CBD JUMPI PUSH1 0x40 MLOAD PUSH3 0x461BCD PUSH1 0xE5 SHL DUP2 MSTORE PUSH1 0x4 ADD PUSH2 0x71E SWAP1 PUSH2 0x50DA JUMP JUMPDEST PUSH1 0x2 DUP2 ADD SLOAD PUSH1 0x1 PUSH1 0x1 PUSH1 0xA0 SHL SUB AND PUSH1 0x0 SWAP1 DUP2 MSTORE PUSH1 0xE PUSH1 0x20 MSTORE PUSH1 0x40 DUP1 DUP3 KECCAK256 SWAP1 MLOAD PUSH2 0x2CE7 SWAP1 DUP6 SWAP1 PUSH2 0x4D9C JUMP JUMPDEST SWAP1 DUP2 MSTORE PUSH1 0x40 MLOAD SWAP1 DUP2 SWAP1 SUB PUSH1 0x20 ADD SWAP1 KECCAK256 SLOAD PUSH1 0xFF PUSH1 0x1 PUSH1 0xA0 SHL SWAP1 SWAP2 DIV AND SWAP6 SWAP5 POP POP POP POP POP JUMP JUMPDEST PUSH1 0x60 PUSH2 0x2D16 DUP3 PUSH2 0x33AE JUMP JUMPDEST PUSH1 0x0 PUSH2 0x2D2D PUSH1 0x40 DUP1 MLOAD PUSH1 0x20 DUP2 ADD SWAP1 SWAP2 MSTORE PUSH1 0x0 DUP2 MSTORE SWAP1 JUMP JUMPDEST SWAP1 POP PUSH1 0x0 DUP2 MLOAD GT PUSH2 0x2D4D JUMPI PUSH1 0x40 MLOAD DUP1 PUSH1 0x20 ADD PUSH1 0x40 MSTORE DUP1 PUSH1 0x0 DUP2 MSTORE POP PUSH2 0x2D78 JUMP JUMPDEST DUP1 PUSH2 0x2D57 DUP5 PUSH2 0x3F0B JUMP JUMPDEST PUSH1 0x40 MLOAD PUSH1 0x20 ADD PUSH2 0x2D68 SWAP3 SWAP2 SWAP1 PUSH2 0x5198 JUMP JUMPDEST PUSH1 0x40 MLOAD PUSH1 0x20 DUP2 DUP4 SUB SUB DUP2 MSTORE SWAP1 PUSH1 0x40 MSTORE JUMPDEST SWAP4 SWAP3 POP POP POP JUMP JUMPDEST PUSH1 0x0 PUSH2 0x2D78 DUP4 DUP4 PUSH1 0x0 PUSH2 0x3FA0 JUMP JUMPDEST PUSH1 0x0 PUSH2 0x2D78 DUP4 DUP4 PUSH1 0x1 PUSH2 0x3FA0 JUMP JUMPDEST PUSH1 0x0 DUP2 GT PUSH2 0x2DE6 JUMPI PUSH1 0x40 MLOAD PUSH3 0x461BCD PUSH1 0xE5 SHL DUP2 MSTORE PUSH1 0x20 PUSH1 0x4 DUP3 ADD MSTORE PUSH1 0x18 PUSH1 0x24 DUP3 ADD MSTORE PUSH24 0x496E76616C6964206164646974696F6E616C207965617273 PUSH1 0x40 SHL PUSH1 0x44 DUP3 ADD MSTORE PUSH1 0x64 ADD PUSH2 0x71E JUMP JUMPDEST PUSH1 0x0 PUSH2 0x2DF1 DUP4 PUSH2 0x3441 JUMP JUMPDEST SWAP1 POP PUSH1 0x0 PUSH2 0x2DFE DUP5 PUSH2 0x3496 JUMP JUMPDEST PUSH1 0x40 MLOAD DUP1 PUSH1 0x40 ADD PUSH1 0x40 MSTORE DUP1 PUSH1 0x3 DUP2 MSTORE PUSH1 0x20 ADD PUSH3 0xE282BF PUSH1 0xE8 SHL DUP2 MSTORE POP PUSH1 0x40 MLOAD PUSH1 0x20 ADD PUSH2 0x2E2B SWAP3 SWAP2 SWAP1 PUSH2 0x4DB8 JUMP JUMPDEST PUSH1 0x40 MLOAD PUSH1 0x20 DUP2 DUP4 SUB SUB DUP2 MSTORE SWAP1 PUSH1 0x40 MSTORE SWAP1 POP PUSH1 0x0 DUP3 MLOAD GT DUP1 ISZERO PUSH2 0x2E4E JUMPI POP PUSH1 0x0 DUP2 MLOAD GT JUMPDEST PUSH2 0x2EA6 JUMPI PUSH1 0x40 MLOAD PUSH3 0x461BCD PUSH1 0xE5 SHL DUP2 MSTORE PUSH1 0x20 PUSH1 0x4 DUP3 ADD MSTORE PUSH1 0x23 PUSH1 0x24 DUP3 ADD MSTORE PUSH32 0x496E76616C69642073756268616E646C6520616E6420706172656E742068616E PUSH1 0x44 DUP3 ADD MSTORE PUSH3 0x646C65 PUSH1 0xE8 SHL PUSH1 0x64 DUP3 ADD MSTORE PUSH1 0x84 ADD PUSH2 0x71E JUMP JUMPDEST PUSH1 0xC DUP2 PUSH1 0x40 MLOAD PUSH2 0x2EB6 SWAP2 SWAP1 PUSH2 0x4D9C JUMP JUMPDEST SWAP1 DUP2 MSTORE PUSH1 0x40 MLOAD SWAP1 DUP2 SWAP1 SUB PUSH1 0x20 ADD SWAP1 KECCAK256 SLOAD PUSH2 0x2EE2 JUMPI PUSH1 0x40 MLOAD PUSH3 0x461BCD PUSH1 0xE5 SHL DUP2 MSTORE PUSH1 0x4 ADD PUSH2 0x71E SWAP1 PUSH2 0x50DA JUMP JUMPDEST PUSH1 0x0 PUSH1 0xC DUP3 PUSH1 0x40 MLOAD PUSH2 0x2EF4 SWAP2 SWAP1 PUSH2 0x4D9C JUMP JUMPDEST SWAP1 DUP2 MSTORE PUSH1 0x20 ADD PUSH1 0x40 MLOAD DUP1 SWAP2 SUB SWAP1 KECCAK256 PUSH1 0x4 ADD DUP4 PUSH1 0x40 MLOAD PUSH2 0x2F13 SWAP2 SWAP1 PUSH2 0x4D9C JUMP JUMPDEST SWAP1 DUP2 MSTORE PUSH1 0x40 MLOAD SWAP1 DUP2 SWAP1 SUB PUSH1 0x20 ADD SWAP1 KECCAK256 DUP1 SLOAD SWAP1 SWAP2 POP PUSH2 0x2F43 JUMPI PUSH1 0x40 MLOAD PUSH3 0x461BCD PUSH1 0xE5 SHL DUP2 MSTORE PUSH1 0x4 ADD PUSH2 0x71E SWAP1 PUSH2 0x51C7 JUMP JUMPDEST TIMESTAMP DUP2 PUSH1 0x2 ADD SLOAD GT PUSH2 0x2FC8 JUMPI PUSH1 0x40 MLOAD PUSH3 0x461BCD PUSH1 0xE5 SHL DUP2 MSTORE PUSH1 0x20 PUSH1 0x4 DUP3 ADD MSTORE PUSH1 0x43 PUSH1 0x24 DUP3 ADD MSTORE PUSH32 0x53756268616E646C652068617320657870697265642C20636C61696D20746869 PUSH1 0x44 DUP3 ADD MSTORE PUSH32 0x732073756268616E646C65207573696E6720746865206D696E742066756E6374 PUSH1 0x64 DUP3 ADD MSTORE PUSH3 0x34B7B7 PUSH1 0xE9 SHL PUSH1 0x84 DUP3 ADD MSTORE PUSH1 0xA4 ADD PUSH2 0x71E JUMP JUMPDEST DUP3 MLOAD PUSH1 0x0 PUSH2 0x2FD6 DUP3 DUP8 PUSH2 0x2D8D JUMP JUMPDEST SWAP1 POP PUSH1 0x0 PUSH1 0xC DUP6 PUSH1 0x40 MLOAD PUSH2 0x2FEA SWAP2 SWAP1 PUSH2 0x4D9C JUMP JUMPDEST SWAP1 DUP2 MSTORE PUSH1 0x40 MLOAD SWAP1 DUP2 SWAP1 SUB PUSH1 0x20 ADD SWAP1 KECCAK256 PUSH1 0x2 ADD SLOAD CALLER PUSH1 0x1 PUSH1 0x1 PUSH1 0xA0 SHL SUB SWAP1 SWAP2 AND EQ SWAP1 POP DUP1 PUSH2 0x30B8 JUMPI DUP2 CALLVALUE LT ISZERO PUSH2 0x305C JUMPI PUSH1 0x40 MLOAD PUSH3 0x461BCD PUSH1 0xE5 SHL DUP2 MSTORE PUSH1 0x20 PUSH1 0x4 DUP3 ADD MSTORE PUSH1 0x18 PUSH1 0x24 DUP3 ADD MSTORE PUSH24 0x496E73756666696369656E742072656E6577616C20666565 PUSH1 0x40 SHL PUSH1 0x44 DUP3 ADD MSTORE PUSH1 0x64 ADD PUSH2 0x71E JUMP JUMPDEST PUSH1 0x0 PUSH1 0xC DUP7 PUSH1 0x40 MLOAD PUSH2 0x306E SWAP2 SWAP1 PUSH2 0x4D9C JUMP JUMPDEST SWAP1 DUP2 MSTORE PUSH1 0x40 MLOAD SWAP1 DUP2 SWAP1 SUB PUSH1 0x20 ADD DUP2 KECCAK256 PUSH1 0x2 ADD SLOAD PUSH1 0x1 PUSH1 0x1 PUSH1 0xA0 SHL SUB AND SWAP2 POP DUP2 SWAP1 CALLVALUE DUP1 ISZERO PUSH2 0x8FC MUL SWAP2 PUSH1 0x0 DUP2 DUP2 DUP2 DUP6 DUP9 DUP9 CALL SWAP4 POP POP POP POP ISZERO DUP1 ISZERO PUSH2 0x30B5 JUMPI RETURNDATASIZE PUSH1 0x0 DUP1 RETURNDATACOPY RETURNDATASIZE PUSH1 0x0 REVERT JUMPDEST POP POP JUMPDEST DUP1 ISZERO DUP1 PUSH2 0x30C6 JUMPI POP PUSH1 0x1 DUP8 GT ISZERO JUMPDEST PUSH2 0x312D JUMPI PUSH1 0x40 MLOAD PUSH3 0x461BCD PUSH1 0xE5 SHL DUP2 MSTORE PUSH1 0x20 PUSH1 0x4 DUP3 ADD MSTORE PUSH1 0x32 PUSH1 0x24 DUP3 ADD MSTORE PUSH32 0x4D6178696D756D2072656E6577616C20796561727320666F7220706172656E74 PUSH1 0x44 DUP3 ADD MSTORE PUSH18 0x2068616E646C65206F776E65722069732031 PUSH1 0x70 SHL PUSH1 0x64 DUP3 ADD MSTORE PUSH1 0x84 ADD PUSH2 0x71E JUMP JUMPDEST PUSH2 0x3157 DUP8 PUSH32 0x0 PUSH2 0x4FEE JUMP JUMPDEST DUP5 PUSH1 0x2 ADD PUSH1 0x0 DUP3 DUP3 SLOAD PUSH2 0x316A SWAP2 SWAP1 PUSH2 0x4FD6 JUMP JUMPDEST SWAP1 SWAP2 SSTORE POP POP DUP4 SLOAD PUSH1 0x40 MLOAD PUSH1 0x0 SWAP1 PUSH2 0x3187 SWAP1 DUP10 SWAP1 DUP10 SWAP1 PUSH1 0x20 ADD PUSH2 0x4DB8 JUMP JUMPDEST PUSH1 0x40 DUP1 MLOAD PUSH1 0x1F NOT DUP2 DUP5 SUB ADD DUP2 MSTORE SWAP2 DUP2 MSTORE DUP8 SLOAD PUSH1 0x0 SWAP1 DUP2 MSTORE PUSH1 0xD PUSH1 0x20 SWAP1 DUP2 MSTORE SWAP2 SWAP1 KECCAK256 DUP3 MLOAD SWAP3 SWAP4 POP PUSH2 0x31BB SWAP3 SWAP1 SWAP2 DUP5 ADD SWAP1 PUSH2 0x46E9 JUMP JUMPDEST POP DUP6 SLOAD PUSH1 0x40 MLOAD PUSH1 0xF SWAP1 PUSH2 0x31CF SWAP1 DUP5 SWAP1 PUSH2 0x4D9C JUMP JUMPDEST SWAP1 DUP2 MSTORE PUSH1 0x20 ADD PUSH1 0x40 MLOAD DUP1 SWAP2 SUB SWAP1 KECCAK256 DUP2 SWAP1 SSTORE POP DUP2 PUSH1 0xF DUP3 PUSH1 0x40 MLOAD PUSH2 0x31F2 SWAP2 SWAP1 PUSH2 0x4D9C JUMP JUMPDEST SWAP1 DUP2 MSTORE PUSH1 0x20 ADD PUSH1 0x40 MLOAD DUP1 SWAP2 SUB SWAP1 KECCAK256 DUP2 SWAP1 SSTORE POP DUP2 PUSH1 0xC DUP9 PUSH1 0x40 MLOAD PUSH2 0x3215 SWAP2 SWAP1 PUSH2 0x4D9C JUMP JUMPDEST SWAP1 DUP2 MSTORE PUSH1 0x40 MLOAD SWAP1 DUP2 SWAP1 SUB PUSH1 0x20 ADD SWAP1 KECCAK256 PUSH1 0x2 ADD SLOAD DUP8 SLOAD PUSH1 0x1 PUSH1 0x1 PUSH1 0xA0 SHL SUB SWAP1 SWAP2 AND SWAP1 PUSH2 0x323F SWAP1 PUSH2 0x1846 JUMP JUMPDEST PUSH1 0x1 PUSH1 0x1 PUSH1 0xA0 SHL SUB AND PUSH32 0xDEF05357173B35F75440D0C7A9251945509C3B27E76B8540E86963C35BA07E2 CALLER DUP6 DUP13 DUP13 PUSH1 0x2 ADD SLOAD PUSH1 0x40 MLOAD PUSH2 0x3281 SWAP5 SWAP4 SWAP3 SWAP2 SWAP1 PUSH2 0x51F9 JUMP JUMPDEST PUSH1 0x40 MLOAD DUP1 SWAP2 SUB SWAP1 LOG4 POP POP POP POP POP POP POP POP POP POP JUMP JUMPDEST PUSH1 0x1 PUSH1 0x1 PUSH1 0xA0 SHL SUB SWAP2 DUP3 AND PUSH1 0x0 SWAP1 DUP2 MSTORE PUSH1 0x6 PUSH1 0x20 SWAP1 DUP2 MSTORE PUSH1 0x40 DUP1 DUP4 KECCAK256 SWAP4 SWAP1 SWAP5 AND DUP3 MSTORE SWAP2 SWAP1 SWAP2 MSTORE KECCAK256 SLOAD PUSH1 0xFF AND SWAP1 JUMP JUMPDEST PUSH2 0x32CB PUSH2 0x3A92 JUMP JUMPDEST PUSH1 0x1 PUSH1 0x1 PUSH1 0xA0 SHL SUB DUP2 AND PUSH2 0x3313 JUMPI PUSH1 0x40 MLOAD PUSH3 0x461BCD PUSH1 0xE5 SHL DUP2 MSTORE PUSH1 0x20 PUSH1 0x4 DUP3 ADD MSTORE PUSH1 0xF PUSH1 0x24 DUP3 ADD MSTORE PUSH15 0x496E76616C69642061646472657373 PUSH1 0x88 SHL PUSH1 0x44 DUP3 ADD MSTORE PUSH1 0x64 ADD PUSH2 0x71E JUMP JUMPDEST PUSH1 0x7 DUP1 SLOAD PUSH1 0x1 PUSH1 0x1 PUSH1 0xA0 SHL SUB NOT AND PUSH1 0x1 PUSH1 0x1 PUSH1 0xA0 SHL SUB SWAP3 SWAP1 SWAP3 AND SWAP2 SWAP1 SWAP2 OR SWAP1 SSTORE JUMP JUMPDEST PUSH2 0x333D PUSH2 0x3A92 JUMP JUMPDEST PUSH1 0x1 PUSH1 0x1 PUSH1 0xA0 SHL SUB DUP2 AND PUSH2 0x33A2 JUMPI PUSH1 0x40 MLOAD PUSH3 0x461BCD PUSH1 0xE5 SHL DUP2 MSTORE PUSH1 0x20 PUSH1 0x4 DUP3 ADD MSTORE PUSH1 0x26 PUSH1 0x24 DUP3 ADD MSTORE PUSH32 0x4F776E61626C653A206E6577206F776E657220697320746865207A65726F2061 PUSH1 0x44 DUP3 ADD MSTORE PUSH6 0x646472657373 PUSH1 0xD0 SHL PUSH1 0x64 DUP3 ADD MSTORE PUSH1 0x84 ADD PUSH2 0x71E JUMP JUMPDEST PUSH2 0x33AB DUP2 PUSH2 0x3AEC JUMP JUMPDEST POP JUMP JUMPDEST PUSH2 0x33B7 DUP2 PUSH2 0x40F7 JUMP JUMPDEST PUSH2 0x33AB JUMPI PUSH1 0x40 MLOAD PUSH3 0x461BCD PUSH1 0xE5 SHL DUP2 MSTORE PUSH1 0x4 ADD PUSH2 0x71E SWAP1 PUSH2 0x504F JUMP JUMPDEST PUSH1 0x0 DUP2 DUP2 MSTORE PUSH1 0x5 PUSH1 0x20 MSTORE PUSH1 0x40 SWAP1 KECCAK256 DUP1 SLOAD PUSH1 0x1 PUSH1 0x1 PUSH1 0xA0 SHL SUB NOT AND PUSH1 0x1 PUSH1 0x1 PUSH1 0xA0 SHL SUB DUP5 AND SWAP1 DUP2 OR SWAP1 SWAP2 SSTORE DUP2 SWAP1 PUSH2 0x3408 DUP3 PUSH2 0x1846 JUMP JUMPDEST PUSH1 0x1 PUSH1 0x1 PUSH1 0xA0 SHL SUB AND PUSH32 0x8C5BE1E5EBEC7D5BD14F71427D1E84F3DD0314C0F7B2291E5B200AC8C7C3B925 PUSH1 0x40 MLOAD PUSH1 0x40 MLOAD DUP1 SWAP2 SUB SWAP1 LOG4 POP POP JUMP JUMPDEST PUSH1 0x60 DUP2 PUSH1 0x0 PUSH2 0x344F DUP3 PUSH2 0x4114 JUMP JUMPDEST SWAP1 POP PUSH2 0x345D DUP5 PUSH1 0x0 DUP4 PUSH2 0x416D JUMP JUMPDEST SWAP5 SWAP4 POP POP POP POP JUMP JUMPDEST PUSH2 0x346F CALLER DUP3 PUSH2 0x4285 JUMP JUMPDEST PUSH2 0x348B JUMPI PUSH1 0x40 MLOAD PUSH3 0x461BCD PUSH1 0xE5 SHL DUP2 MSTORE PUSH1 0x4 ADD PUSH2 0x71E SWAP1 PUSH2 0x5241 JUMP JUMPDEST PUSH2 0x7BF DUP4 DUP4 DUP4 PUSH2 0x42E3 JUMP JUMPDEST PUSH1 0x60 DUP2 PUSH1 0x0 PUSH2 0x34A4 DUP3 PUSH2 0x4114 JUMP JUMPDEST SWAP1 POP PUSH2 0x345D DUP5 PUSH2 0x34B5 DUP4 PUSH1 0x1 PUSH2 0x4FD6 JUMP JUMPDEST PUSH1 0x1 DUP5 DUP7 MLOAD PUSH2 0x34C4 SWAP2 SWAP1 PUSH2 0x4EDA JUMP JUMPDEST PUSH2 0x34CE SWAP2 SWAP1 PUSH2 0x4EDA JUMP JUMPDEST PUSH2 0x416D JUMP JUMPDEST PUSH1 0x0 DUP2 DUP2 JUMPDEST PUSH1 0x1 DUP3 MLOAD PUSH2 0x34E6 SWAP2 SWAP1 PUSH2 0x4EDA JUMP JUMPDEST DUP2 LT ISZERO PUSH2 0x3570 JUMPI DUP2 DUP2 DUP2 MLOAD DUP2 LT PUSH2 0x34FF JUMPI PUSH2 0x34FF PUSH2 0x4EAE JUMP JUMPDEST PUSH1 0x20 SWAP2 ADD ADD MLOAD PUSH1 0x1 PUSH1 0x1 PUSH1 0xF8 SHL SUB NOT AND PUSH1 0x2D PUSH1 0xF8 SHL EQ DUP1 ISZERO PUSH2 0x354F JUMPI POP DUP2 PUSH2 0x3528 DUP3 PUSH1 0x1 PUSH2 0x4FD6 JUMP JUMPDEST DUP2 MLOAD DUP2 LT PUSH2 0x3538 JUMPI PUSH2 0x3538 PUSH2 0x4EAE JUMP JUMPDEST PUSH1 0x20 SWAP2 ADD ADD MLOAD PUSH1 0x1 PUSH1 0x1 PUSH1 0xF8 SHL SUB NOT AND PUSH1 0x17 PUSH1 0xF9 SHL EQ JUMPDEST ISZERO PUSH2 0x355E JUMPI POP PUSH1 0x1 SWAP4 SWAP3 POP POP POP JUMP JUMPDEST DUP1 PUSH2 0x3568 DUP2 PUSH2 0x4F37 JUMP JUMPDEST SWAP2 POP POP PUSH2 0x34D8 JUMP JUMPDEST POP PUSH1 0x0 SWAP4 SWAP3 POP POP POP JUMP JUMPDEST PUSH1 0x0 DUP2 DUP2 DUP1 JUMPDEST DUP3 MLOAD DUP2 LT ISZERO PUSH2 0x35DF JUMPI PUSH1 0x17 PUSH1 0xF9 SHL PUSH1 0x1 PUSH1 0x1 PUSH1 0xF8 SHL SUB NOT AND DUP4 DUP3 DUP2 MLOAD DUP2 LT PUSH2 0x35AA JUMPI PUSH2 0x35AA PUSH2 0x4EAE JUMP JUMPDEST ADD PUSH1 0x20 ADD MLOAD PUSH1 0x1 PUSH1 0x1 PUSH1 0xF8 SHL SUB NOT AND EQ ISZERO PUSH2 0x35CD JUMPI DUP2 PUSH2 0x35C9 DUP2 PUSH2 0x4F37 JUMP JUMPDEST SWAP3 POP POP JUMPDEST DUP1 PUSH2 0x35D7 DUP2 PUSH2 0x4F37 JUMP JUMPDEST SWAP2 POP POP PUSH2 0x3580 JUMP JUMPDEST POP SWAP4 SWAP3 POP POP POP JUMP JUMPDEST PUSH1 0x1 PUSH1 0x1 PUSH1 0xA0 SHL SUB DUP2 AND PUSH1 0x0 SWAP1 DUP2 MSTORE PUSH1 0xE PUSH1 0x20 MSTORE PUSH1 0x40 DUP1 DUP3 KECCAK256 SWAP1 MLOAD DUP3 SWAP2 SWAP1 PUSH2 0x3610 SWAP1 DUP7 SWAP1 PUSH2 0x4D9C JUMP JUMPDEST SWAP1 DUP2 MSTORE PUSH1 0x40 MLOAD SWAP1 DUP2 SWAP1 SUB PUSH1 0x20 ADD SWAP1 KECCAK256 SLOAD PUSH1 0xFF PUSH1 0x1 PUSH1 0xA0 SHL SWAP1 SWAP2 DIV AND SWAP2 POP POP SWAP3 SWAP2 POP POP JUMP JUMPDEST PUSH1 0x0 DUP1 PUSH2 0x3640 DUP4 PUSH2 0x3DBB JUMP JUMPDEST SWAP2 POP SWAP2 POP PUSH1 0x0 DUP2 PUSH1 0x40 MLOAD DUP1 PUSH1 0x40 ADD PUSH1 0x40 MSTORE DUP1 PUSH1 0x3 DUP2 MSTORE PUSH1 0x20 ADD PUSH3 0xE282BF PUSH1 0xE8 SHL DUP2 MSTORE POP PUSH1 0x40 MLOAD PUSH1 0x20 ADD PUSH2 0x3674 SWAP3 SWAP2 SWAP1 PUSH2 0x4DB8 JUMP JUMPDEST PUSH1 0x40 MLOAD PUSH1 0x20 DUP2 DUP4 SUB SUB DUP2 MSTORE SWAP1 PUSH1 0x40 MSTORE SWAP1 POP PUSH1 0x0 PUSH1 0xC DUP3 PUSH1 0x40 MLOAD PUSH2 0x3697 SWAP2 SWAP1 PUSH2 0x4D9C JUMP JUMPDEST SWAP1 DUP2 MSTORE PUSH1 0x20 ADD PUSH1 0x40 MLOAD DUP1 SWAP2 SUB SWAP1 KECCAK256 PUSH1 0x4 ADD DUP5 PUSH1 0x40 MLOAD PUSH2 0x36B6 SWAP2 SWAP1 PUSH2 0x4D9C JUMP JUMPDEST SWAP1 DUP2 MSTORE PUSH1 0x40 MLOAD SWAP1 DUP2 SWAP1 SUB PUSH1 0x20 ADD SWAP1 KECCAK256 DUP1 SLOAD SWAP1 SWAP2 POP PUSH2 0x36E6 JUMPI PUSH1 0x40 MLOAD PUSH3 0x461BCD PUSH1 0xE5 SHL DUP2 MSTORE PUSH1 0x4 ADD PUSH2 0x71E SWAP1 PUSH2 0x51C7 JUMP JUMPDEST TIMESTAMP DUP2 PUSH1 0x2 ADD SLOAD GT ISZERO PUSH2 0x3735 JUMPI PUSH1 0x40 MLOAD PUSH3 0x461BCD PUSH1 0xE5 SHL DUP2 MSTORE PUSH1 0x20 PUSH1 0x4 DUP3 ADD MSTORE PUSH1 0x18 PUSH1 0x24 DUP3 ADD MSTORE PUSH24 0x14DD589A185B991B19481A5CC81B9BDD08195E1C1A5C9959 PUSH1 0x42 SHL PUSH1 0x44 DUP3 ADD MSTORE PUSH1 0x64 ADD PUSH2 0x71E JUMP JUMPDEST PUSH1 0x0 PUSH2 0x3744 DUP3 PUSH1 0x0 ADD SLOAD PUSH2 0x1846 JUMP JUMPDEST PUSH1 0x1 DUP4 ADD SLOAD SWAP1 SWAP2 POP PUSH1 0x1 PUSH1 0x1 PUSH1 0xA0 SHL SUB DUP1 DUP4 AND SWAP2 AND EQ PUSH2 0x37BE JUMPI PUSH1 0x40 MLOAD PUSH3 0x461BCD PUSH1 0xE5 SHL DUP2 MSTORE PUSH1 0x20 PUSH1 0x4 DUP3 ADD MSTORE PUSH1 0x2F PUSH1 0x24 DUP3 ADD MSTORE PUSH32 0x4F6E6C792073756268616E646C65206F776E65722063616E206275726E206578 PUSH1 0x44 DUP3 ADD MSTORE PUSH15 0x70697265642073756268616E646C65 PUSH1 0x88 SHL PUSH1 0x64 DUP3 ADD MSTORE PUSH1 0x84 ADD PUSH2 0x71E JUMP JUMPDEST DUP2 SLOAD PUSH2 0x37C9 SWAP1 PUSH2 0x4447 JUMP JUMPDEST PUSH1 0x0 DUP6 DUP5 PUSH1 0x40 MLOAD PUSH1 0x20 ADD PUSH2 0x37DE SWAP3 SWAP2 SWAP1 PUSH2 0x4DB8 JUMP JUMPDEST PUSH1 0x40 MLOAD PUSH1 0x20 DUP2 DUP4 SUB SUB DUP2 MSTORE SWAP1 PUSH1 0x40 MSTORE SWAP1 POP DUP3 PUSH1 0x0 ADD SLOAD DUP3 PUSH1 0x1 PUSH1 0x1 PUSH1 0xA0 SHL SUB AND PUSH32 0x8E9D688BE86003E3F556295657FDC70723184B1994F7358037D9F86A6625406D DUP4 PUSH1 0x40 MLOAD PUSH2 0xD2E SWAP2 SWAP1 PUSH2 0x480D JUMP JUMPDEST PUSH1 0x0 DUP2 PUSH1 0x2D PUSH1 0xF8 SHL PUSH1 0x1 JUMPDEST DUP3 MLOAD DUP2 LT ISZERO PUSH2 0x38CF JUMPI DUP2 PUSH1 0x1 PUSH1 0x1 PUSH1 0xF8 SHL SUB NOT AND DUP4 DUP3 DUP2 MLOAD DUP2 LT PUSH2 0x385E JUMPI PUSH2 0x385E PUSH2 0x4EAE JUMP JUMPDEST ADD PUSH1 0x20 ADD MLOAD PUSH1 0x1 PUSH1 0x1 PUSH1 0xF8 SHL SUB NOT AND EQ DUP1 ISZERO PUSH2 0x38AD JUMPI POP PUSH1 0x1 PUSH1 0x1 PUSH1 0xF8 SHL SUB NOT DUP3 AND DUP4 PUSH2 0x388C PUSH1 0x1 DUP5 PUSH2 0x4EDA JUMP JUMPDEST DUP2 MLOAD DUP2 LT PUSH2 0x389C JUMPI PUSH2 0x389C PUSH2 0x4EAE JUMP JUMPDEST ADD PUSH1 0x20 ADD MLOAD PUSH1 0x1 PUSH1 0x1 PUSH1 0xF8 SHL SUB NOT AND EQ JUMPDEST ISZERO PUSH2 0x38BD JUMPI POP PUSH1 0x1 SWAP5 SWAP4 POP POP POP POP JUMP JUMPDEST DUP1 PUSH2 0x38C7 DUP2 PUSH2 0x4F37 JUMP JUMPDEST SWAP2 POP POP PUSH2 0x3838 JUMP JUMPDEST POP PUSH1 0x0 SWAP5 SWAP4 POP POP POP POP JUMP JUMPDEST PUSH1 0x40 DUP1 MLOAD DUP1 DUP3 ADD SWAP1 SWAP2 MSTORE PUSH1 0x4 DUP1 DUP3 MSTORE PUSH4 0x786E2D2D PUSH1 0xE0 SHL PUSH1 0x20 DUP4 ADD MSTORE DUP3 MLOAD PUSH1 0x0 SWAP3 DUP5 SWAP3 SWAP1 SWAP2 LT PUSH2 0x3570 JUMPI PUSH1 0x0 JUMPDEST DUP2 MLOAD DUP2 LT ISZERO PUSH2 0x397A JUMPI DUP2 DUP2 DUP2 MLOAD DUP2 LT PUSH2 0x3922 JUMPI PUSH2 0x3922 PUSH2 0x4EAE JUMP JUMPDEST PUSH1 0x20 ADD ADD MLOAD PUSH1 0xF8 SHR PUSH1 0xF8 SHL PUSH1 0x1 PUSH1 0x1 PUSH1 0xF8 SHL SUB NOT AND DUP4 DUP3 DUP2 MLOAD DUP2 LT PUSH2 0x3949 JUMPI PUSH2 0x3949 PUSH2 0x4EAE JUMP JUMPDEST ADD PUSH1 0x20 ADD MLOAD PUSH1 0x1 PUSH1 0x1 PUSH1 0xF8 SHL SUB NOT AND EQ PUSH2 0x3968 JUMPI POP PUSH1 0x0 SWAP5 SWAP4 POP POP POP POP JUMP JUMPDEST DUP1 PUSH2 0x3972 DUP2 PUSH2 0x4F37 JUMP JUMPDEST SWAP2 POP POP PUSH2 0x3907 JUMP JUMPDEST POP PUSH1 0x1 SWAP5 SWAP4 POP POP POP POP JUMP JUMPDEST PUSH1 0x1 PUSH1 0x1 PUSH1 0xA0 SHL SUB DUP3 AND PUSH2 0x39DB JUMPI PUSH1 0x40 MLOAD PUSH3 0x461BCD PUSH1 0xE5 SHL DUP2 MSTORE PUSH1 0x20 PUSH1 0x4 DUP3 ADD DUP2 SWAP1 MSTORE PUSH1 0x24 DUP3 ADD MSTORE PUSH32 0x4552433732313A206D696E7420746F20746865207A65726F2061646472657373 PUSH1 0x44 DUP3 ADD MSTORE PUSH1 0x64 ADD PUSH2 0x71E JUMP JUMPDEST PUSH2 0x39E4 DUP2 PUSH2 0x40F7 JUMP JUMPDEST ISZERO PUSH2 0x3A01 JUMPI PUSH1 0x40 MLOAD PUSH3 0x461BCD PUSH1 0xE5 SHL DUP2 MSTORE PUSH1 0x4 ADD PUSH2 0x71E SWAP1 PUSH2 0x528E JUMP JUMPDEST PUSH2 0x3A0A DUP2 PUSH2 0x40F7 JUMP JUMPDEST ISZERO PUSH2 0x3A27 JUMPI PUSH1 0x40 MLOAD PUSH3 0x461BCD PUSH1 0xE5 SHL DUP2 MSTORE PUSH1 0x4 ADD PUSH2 0x71E SWAP1 PUSH2 0x528E JUMP JUMPDEST PUSH1 0x1 PUSH1 0x1 PUSH1 0xA0 SHL SUB DUP3 AND PUSH1 0x0 DUP2 DUP2 MSTORE PUSH1 0x4 PUSH1 0x20 SWAP1 DUP2 MSTORE PUSH1 0x40 DUP1 DUP4 KECCAK256 DUP1 SLOAD PUSH1 0x1 ADD SWAP1 SSTORE DUP5 DUP4 MSTORE PUSH1 0x3 SWAP1 SWAP2 MSTORE DUP1 DUP3 KECCAK256 DUP1 SLOAD PUSH1 0x1 PUSH1 0x1 PUSH1 0xA0 SHL SUB NOT AND DUP5 OR SWAP1 SSTORE MLOAD DUP4 SWAP3 SWAP2 SWAP1 PUSH32 0xDDF252AD1BE2C89B69C2B068FC378DAA952BA7F163C4A11628F55A4DF523B3EF SWAP1 DUP3 SWAP1 LOG4 POP POP JUMP JUMPDEST PUSH1 0x0 SLOAD PUSH1 0x1 PUSH1 0x1 PUSH1 0xA0 SHL SUB AND CALLER EQ PUSH2 0x19BC JUMPI PUSH1 0x40 MLOAD PUSH3 0x461BCD PUSH1 0xE5 SHL DUP2 MSTORE PUSH1 0x20 PUSH1 0x4 DUP3 ADD DUP2 SWAP1 MSTORE PUSH1 0x24 DUP3 ADD MSTORE PUSH32 0x4F776E61626C653A2063616C6C6572206973206E6F7420746865206F776E6572 PUSH1 0x44 DUP3 ADD MSTORE PUSH1 0x64 ADD PUSH2 0x71E JUMP JUMPDEST PUSH1 0x0 DUP1 SLOAD PUSH1 0x1 PUSH1 0x1 PUSH1 0xA0 SHL SUB DUP4 DUP2 AND PUSH1 0x1 PUSH1 0x1 PUSH1 0xA0 SHL SUB NOT DUP4 AND DUP2 OR DUP5 SSTORE PUSH1 0x40 MLOAD SWAP2 SWAP1 SWAP3 AND SWAP3 DUP4 SWAP2 PUSH32 0x8BE0079C531659141344CD1FD0A4F28419497F9722A3DAAFE3B4186F6B6457E0 SWAP2 SWAP1 LOG3 POP POP JUMP JUMPDEST PUSH1 0x0 DUP3 DUP3 DUP3 JUMPDEST DUP3 MLOAD DUP2 LT ISZERO PUSH2 0x3BB8 JUMPI DUP2 PUSH1 0x0 DUP2 MLOAD DUP2 LT PUSH2 0x3B5E JUMPI PUSH2 0x3B5E PUSH2 0x4EAE JUMP JUMPDEST PUSH1 0x20 ADD ADD MLOAD PUSH1 0xF8 SHR PUSH1 0xF8 SHL PUSH1 0x1 PUSH1 0x1 PUSH1 0xF8 SHL SUB NOT AND DUP4 DUP3 DUP2 MLOAD DUP2 LT PUSH2 0x3B85 JUMPI PUSH2 0x3B85 PUSH2 0x4EAE JUMP JUMPDEST ADD PUSH1 0x20 ADD MLOAD PUSH1 0x1 PUSH1 0x1 PUSH1 0xF8 SHL SUB NOT AND EQ ISZERO PUSH2 0x3BA6 JUMPI PUSH1 0x1 SWAP4 POP POP POP POP PUSH2 0x5EA JUMP JUMPDEST DUP1 PUSH2 0x3BB0 DUP2 PUSH2 0x4F37 JUMP JUMPDEST SWAP2 POP POP PUSH2 0x3B42 JUMP JUMPDEST POP PUSH1 0x0 SWAP6 SWAP5 POP POP POP POP POP JUMP JUMPDEST PUSH1 0x0 DUP2 DUP2 MSTORE PUSH1 0xD PUSH1 0x20 MSTORE PUSH1 0x40 DUP2 KECCAK256 DUP1 SLOAD PUSH2 0x3BDD SWAP1 PUSH2 0x4C12 JUMP JUMPDEST DUP1 PUSH1 0x1F ADD PUSH1 0x20 DUP1 SWAP2 DIV MUL PUSH1 0x20 ADD PUSH1 0x40 MLOAD SWAP1 DUP2 ADD PUSH1 0x40 MSTORE DUP1 SWAP3 SWAP2 SWAP1 DUP2 DUP2 MSTORE PUSH1 0x20 ADD DUP3 DUP1 SLOAD PUSH2 0x3C09 SWAP1 PUSH2 0x4C12 JUMP JUMPDEST DUP1 ISZERO PUSH2 0x3C56 JUMPI DUP1 PUSH1 0x1F LT PUSH2 0x3C2B JUMPI PUSH2 0x100 DUP1 DUP4 SLOAD DIV MUL DUP4 MSTORE SWAP2 PUSH1 0x20 ADD SWAP2 PUSH2 0x3C56 JUMP JUMPDEST DUP3 ADD SWAP2 SWAP1 PUSH1 0x0 MSTORE PUSH1 0x20 PUSH1 0x0 KECCAK256 SWAP1 JUMPDEST DUP2 SLOAD DUP2 MSTORE SWAP1 PUSH1 0x1 ADD SWAP1 PUSH1 0x20 ADD DUP1 DUP4 GT PUSH2 0x3C39 JUMPI DUP3 SWAP1 SUB PUSH1 0x1F AND DUP3 ADD SWAP2 JUMPDEST POP POP POP POP POP SWAP1 POP PUSH1 0x0 PUSH1 0xC DUP3 PUSH1 0x40 MLOAD PUSH2 0x3C6F SWAP2 SWAP1 PUSH2 0x4D9C JUMP JUMPDEST SWAP1 DUP2 MSTORE PUSH1 0x40 MLOAD SWAP1 DUP2 SWAP1 SUB PUSH1 0x20 ADD SWAP1 KECCAK256 DUP1 SLOAD SWAP1 SWAP2 POP PUSH2 0x3C9F JUMPI PUSH1 0x40 MLOAD PUSH3 0x461BCD PUSH1 0xE5 SHL DUP2 MSTORE PUSH1 0x4 ADD PUSH2 0x71E SWAP1 PUSH2 0x5135 JUMP JUMPDEST TIMESTAMP DUP2 PUSH1 0x1 ADD SLOAD GT ISZERO PUSH2 0x3CEB JUMPI PUSH1 0x40 MLOAD PUSH3 0x461BCD PUSH1 0xE5 SHL DUP2 MSTORE PUSH1 0x20 PUSH1 0x4 DUP3 ADD MSTORE PUSH1 0x15 PUSH1 0x24 DUP3 ADD MSTORE PUSH21 0x12185B991B19481A5CC81B9BDD08195E1C1A5C9959 PUSH1 0x5A SHL PUSH1 0x44 DUP3 ADD MSTORE PUSH1 0x64 ADD PUSH2 0x71E JUMP JUMPDEST PUSH1 0x0 PUSH2 0x3CF6 DUP5 PUSH2 0x1846 JUMP JUMPDEST PUSH1 0x2 DUP4 ADD SLOAD SWAP1 SWAP2 POP PUSH1 0x1 PUSH1 0x1 PUSH1 0xA0 SHL SUB DUP1 DUP4 AND SWAP2 AND EQ PUSH2 0x3D6A JUMPI PUSH1 0x40 MLOAD PUSH3 0x461BCD PUSH1 0xE5 SHL DUP2 MSTORE PUSH1 0x20 PUSH1 0x4 DUP3 ADD MSTORE PUSH1 0x29 PUSH1 0x24 DUP3 ADD MSTORE PUSH32 0x4F6E6C7920706172656E74206F776E65722063616E206275726E206578706972 PUSH1 0x44 DUP3 ADD MSTORE PUSH9 0x65642068616E646C65 PUSH1 0xB8 SHL PUSH1 0x64 DUP3 ADD MSTORE PUSH1 0x84 ADD PUSH2 0x71E JUMP JUMPDEST PUSH2 0x3D73 DUP5 PUSH2 0x4447 JUMP JUMPDEST DUP4 DUP2 PUSH1 0x1 PUSH1 0x1 PUSH1 0xA0 SHL SUB AND PUSH32 0x5C1F7B3601E4CD4A1078139C2F4B0099777ADE51B09F3F9EA8F0AD4AF6D601BF DUP6 PUSH1 0x40 MLOAD PUSH2 0x3DAD SWAP2 SWAP1 PUSH2 0x480D JUMP JUMPDEST PUSH1 0x40 MLOAD DUP1 SWAP2 SUB SWAP1 LOG3 POP POP POP POP JUMP JUMPDEST PUSH1 0x60 DUP1 DUP3 PUSH1 0x0 PUSH2 0x3DCA DUP3 PUSH2 0x4114 JUMP JUMPDEST SWAP1 POP PUSH1 0x0 PUSH2 0x3DDA DUP7 PUSH1 0x0 DUP5 PUSH2 0x416D JUMP JUMPDEST SWAP1 POP PUSH1 0x0 PUSH2 0x3DFC DUP8 PUSH2 0x3DED DUP6 PUSH1 0x1 PUSH2 0x4FD6 JUMP JUMPDEST PUSH1 0x1 DUP7 DUP9 MLOAD PUSH2 0x34C4 SWAP2 SWAP1 PUSH2 0x4EDA JUMP JUMPDEST SWAP2 SWAP8 SWAP2 SWAP7 POP SWAP1 SWAP5 POP POP POP POP POP JUMP JUMPDEST DUP2 PUSH1 0x1 PUSH1 0x1 PUSH1 0xA0 SHL SUB AND DUP4 PUSH1 0x1 PUSH1 0x1 PUSH1 0xA0 SHL SUB AND EQ ISZERO PUSH2 0x3E6C JUMPI PUSH1 0x40 MLOAD PUSH3 0x461BCD PUSH1 0xE5 SHL DUP2 MSTORE PUSH1 0x20 PUSH1 0x4 DUP3 ADD MSTORE PUSH1 0x19 PUSH1 0x24 DUP3 ADD MSTORE PUSH32 0x4552433732313A20617070726F766520746F2063616C6C657200000000000000 PUSH1 0x44 DUP3 ADD MSTORE PUSH1 0x64 ADD PUSH2 0x71E JUMP JUMPDEST PUSH1 0x1 PUSH1 0x1 PUSH1 0xA0 SHL SUB DUP4 DUP2 AND PUSH1 0x0 DUP2 DUP2 MSTORE PUSH1 0x6 PUSH1 0x20 SWAP1 DUP2 MSTORE PUSH1 0x40 DUP1 DUP4 KECCAK256 SWAP5 DUP8 AND DUP1 DUP5 MSTORE SWAP5 DUP3 MSTORE SWAP2 DUP3 SWAP1 KECCAK256 DUP1 SLOAD PUSH1 0xFF NOT AND DUP7 ISZERO ISZERO SWAP1 DUP2 OR SWAP1 SWAP2 SSTORE SWAP2 MLOAD SWAP2 DUP3 MSTORE PUSH32 0x17307EAB39AB6107E8899845AD3D59BD9653F200F220920489CA2B5937696C31 SWAP2 ADD PUSH1 0x40 MLOAD DUP1 SWAP2 SUB SWAP1 LOG3 POP POP POP JUMP JUMPDEST PUSH2 0x3EE3 CALLER DUP4 PUSH2 0x4285 JUMP JUMPDEST PUSH2 0x3EFF JUMPI PUSH1 0x40 MLOAD PUSH3 0x461BCD PUSH1 0xE5 SHL DUP2 MSTORE PUSH1 0x4 ADD PUSH2 0x71E SWAP1 PUSH2 0x5241 JUMP JUMPDEST PUSH2 0xA7F DUP5 DUP5 DUP5 DUP5 PUSH2 0x44DC JUMP JUMPDEST PUSH1 0x60 PUSH1 0x0 PUSH2 0x3F18 DUP4 PUSH2 0x450F JUMP JUMPDEST PUSH1 0x1 ADD SWAP1 POP PUSH1 0x0 DUP2 PUSH8 0xFFFFFFFFFFFFFFFF DUP2 GT ISZERO PUSH2 0x3F38 JUMPI PUSH2 0x3F38 PUSH2 0x48BB JUMP JUMPDEST PUSH1 0x40 MLOAD SWAP1 DUP1 DUP3 MSTORE DUP1 PUSH1 0x1F ADD PUSH1 0x1F NOT AND PUSH1 0x20 ADD DUP3 ADD PUSH1 0x40 MSTORE DUP1 ISZERO PUSH2 0x3F62 JUMPI PUSH1 0x20 DUP3 ADD DUP2 DUP1 CALLDATASIZE DUP4 CALLDATACOPY ADD SWAP1 POP JUMPDEST POP SWAP1 POP DUP2 DUP2 ADD PUSH1 0x20 ADD JUMPDEST PUSH1 0x0 NOT ADD PUSH16 0x181899199A1A9B1B9C1CB0B131B232B3 PUSH1 0x81 SHL PUSH1 0xA DUP7 MOD BYTE DUP2 MSTORE8 PUSH1 0xA DUP6 DIV SWAP5 POP DUP5 PUSH2 0x3F9B JUMPI PUSH2 0x35DF JUMP JUMPDEST PUSH2 0x3F6C JUMP JUMPDEST PUSH1 0x0 PUSH32 0x0 DUP5 LT ISZERO DUP1 ISZERO PUSH2 0x3FF2 JUMPI POP PUSH32 0x0 DUP5 GT ISZERO JUMPDEST PUSH2 0x4038 JUMPI PUSH1 0x40 MLOAD PUSH3 0x461BCD PUSH1 0xE5 SHL DUP2 MSTORE PUSH1 0x20 PUSH1 0x4 DUP3 ADD MSTORE PUSH1 0x17 PUSH1 0x24 DUP3 ADD MSTORE PUSH23 0x125B9D985B1A590818DA185C9858DD195C8818DBDD5B9D PUSH1 0x4A SHL PUSH1 0x44 DUP3 ADD MSTORE PUSH1 0x64 ADD PUSH2 0x71E JUMP JUMPDEST PUSH1 0x0 PUSH1 0xB SLOAD TIMESTAMP PUSH2 0x4048 SWAP2 SWAP1 PUSH2 0x4EDA JUMP JUMPDEST SWAP1 POP PUSH1 0x0 PUSH2 0x4076 PUSH32 0x0 DUP4 PUSH2 0x52DB JUMP JUMPDEST SWAP1 POP PUSH1 0x0 PUSH2 0x4085 PUSH1 0x9 DUP4 PUSH2 0x52EF JUMP JUMPDEST PUSH2 0x4090 SWAP1 PUSH1 0x1 PUSH2 0x4FD6 JUMP JUMPDEST SWAP1 POP PUSH1 0x0 DUP6 PUSH2 0x40AD JUMPI PUSH1 0x0 DUP9 DUP2 MSTORE PUSH1 0x16 PUSH1 0x20 MSTORE PUSH1 0x40 SWAP1 KECCAK256 SLOAD PUSH2 0x40BD JUMP JUMPDEST PUSH1 0x0 DUP9 DUP2 MSTORE PUSH1 0x17 PUSH1 0x20 MSTORE PUSH1 0x40 SWAP1 KECCAK256 SLOAD JUMPDEST SWAP1 POP PUSH2 0x40C9 DUP8 DUP3 PUSH2 0x4FEE JUMP JUMPDEST SWAP1 POP PUSH2 0x40D6 PUSH1 0x1 DUP4 PUSH2 0x4EDA JUMP JUMPDEST PUSH2 0x40E1 SWAP1 PUSH1 0x2 PUSH2 0x53E7 JUMP JUMPDEST PUSH2 0x40EB SWAP1 DUP3 PUSH2 0x52DB JUMP JUMPDEST SWAP9 SWAP8 POP POP POP POP POP POP POP POP JUMP JUMPDEST PUSH1 0x0 SWAP1 DUP2 MSTORE PUSH1 0x3 PUSH1 0x20 MSTORE PUSH1 0x40 SWAP1 KECCAK256 SLOAD PUSH1 0x1 PUSH1 0x1 PUSH1 0xA0 SHL SUB AND ISZERO ISZERO SWAP1 JUMP JUMPDEST PUSH1 0x0 DUP1 PUSH1 0x1 DUP4 MLOAD PUSH2 0x4125 SWAP2 SWAP1 PUSH2 0x4EDA JUMP JUMPDEST SWAP1 POP JUMPDEST DUP3 DUP2 DUP2 MLOAD DUP2 LT PUSH2 0x413A JUMPI PUSH2 0x413A PUSH2 0x4EAE JUMP JUMPDEST PUSH1 0x20 SWAP2 ADD ADD MLOAD PUSH1 0x1 PUSH1 0x1 PUSH1 0xF8 SHL SUB NOT AND PUSH1 0x17 PUSH1 0xF9 SHL EQ ISZERO PUSH2 0x415B JUMPI SWAP3 SWAP2 POP POP JUMP JUMPDEST DUP1 PUSH2 0x4165 DUP2 PUSH2 0x53F3 JUMP JUMPDEST SWAP2 POP POP PUSH2 0x4128 JUMP JUMPDEST DUP3 MLOAD PUSH1 0x60 SWAP1 DUP5 SWAP1 PUSH2 0x417E DUP5 DUP7 PUSH2 0x4FD6 JUMP JUMPDEST GT ISZERO PUSH2 0x41C7 JUMPI PUSH1 0x40 MLOAD PUSH3 0x461BCD PUSH1 0xE5 SHL DUP2 MSTORE PUSH1 0x20 PUSH1 0x4 DUP3 ADD MSTORE PUSH1 0x18 PUSH1 0x24 DUP3 ADD MSTORE PUSH24 0x92DCECC2D8D2C840E6EAC4E6E8E4D2DCCE40D8CADCCEE8D PUSH1 0x43 SHL PUSH1 0x44 DUP3 ADD MSTORE PUSH1 0x64 ADD PUSH2 0x71E JUMP JUMPDEST PUSH1 0x0 DUP4 PUSH8 0xFFFFFFFFFFFFFFFF DUP2 GT ISZERO PUSH2 0x41E2 JUMPI PUSH2 0x41E2 PUSH2 0x48BB JUMP JUMPDEST PUSH1 0x40 MLOAD SWAP1 DUP1 DUP3 MSTORE DUP1 PUSH1 0x1F ADD PUSH1 0x1F NOT AND PUSH1 0x20 ADD DUP3 ADD PUSH1 0x40 MSTORE DUP1 ISZERO PUSH2 0x420C JUMPI PUSH1 0x20 DUP3 ADD DUP2 DUP1 CALLDATASIZE DUP4 CALLDATACOPY ADD SWAP1 POP JUMPDEST POP SWAP1 POP PUSH1 0x0 JUMPDEST DUP5 DUP2 LT ISZERO PUSH2 0x427B JUMPI DUP3 PUSH2 0x4225 DUP3 DUP9 PUSH2 0x4FD6 JUMP JUMPDEST DUP2 MLOAD DUP2 LT PUSH2 0x4235 JUMPI PUSH2 0x4235 PUSH2 0x4EAE JUMP JUMPDEST PUSH1 0x20 ADD ADD MLOAD PUSH1 0xF8 SHR PUSH1 0xF8 SHL DUP3 DUP3 DUP2 MLOAD DUP2 LT PUSH2 0x4252 JUMPI PUSH2 0x4252 PUSH2 0x4EAE JUMP JUMPDEST PUSH1 0x20 ADD ADD SWAP1 PUSH1 0x1 PUSH1 0x1 PUSH1 0xF8 SHL SUB NOT AND SWAP1 DUP2 PUSH1 0x0 BYTE SWAP1 MSTORE8 POP DUP1 PUSH2 0x4273 DUP2 PUSH2 0x4F37 JUMP JUMPDEST SWAP2 POP POP PUSH2 0x4212 JUMP JUMPDEST POP SWAP6 SWAP5 POP POP POP POP POP JUMP JUMPDEST PUSH1 0x0 DUP1 PUSH2 0x4291 DUP4 PUSH2 0x1846 JUMP JUMPDEST SWAP1 POP DUP1 PUSH1 0x1 PUSH1 0x1 PUSH1 0xA0 SHL SUB AND DUP5 PUSH1 0x1 PUSH1 0x1 PUSH1 0xA0 SHL SUB AND EQ DUP1 PUSH2 0x42B8 JUMPI POP PUSH2 0x42B8 DUP2 DUP6 PUSH2 0x3295 JUMP JUMPDEST DUP1 PUSH2 0x345D JUMPI POP DUP4 PUSH1 0x1 PUSH1 0x1 PUSH1 0xA0 SHL SUB AND PUSH2 0x42D1 DUP5 PUSH2 0x682 JUMP JUMPDEST PUSH1 0x1 PUSH1 0x1 PUSH1 0xA0 SHL SUB AND EQ SWAP5 SWAP4 POP POP POP POP JUMP JUMPDEST DUP3 PUSH1 0x1 PUSH1 0x1 PUSH1 0xA0 SHL SUB AND PUSH2 0x42F6 DUP3 PUSH2 0x1846 JUMP JUMPDEST PUSH1 0x1 PUSH1 0x1 PUSH1 0xA0 SHL SUB AND EQ PUSH2 0x431C JUMPI PUSH1 0x40 MLOAD PUSH3 0x461BCD PUSH1 0xE5 SHL DUP2 MSTORE PUSH1 0x4 ADD PUSH2 0x71E SWAP1 PUSH2 0x540A JUMP JUMPDEST PUSH1 0x1 PUSH1 0x1 PUSH1 0xA0 SHL SUB DUP3 AND PUSH2 0x437E JUMPI PUSH1 0x40 MLOAD PUSH3 0x461BCD PUSH1 0xE5 SHL DUP2 MSTORE PUSH1 0x20 PUSH1 0x4 DUP3 ADD MSTORE PUSH1 0x24 DUP1 DUP3 ADD MSTORE PUSH32 0x4552433732313A207472616E7366657220746F20746865207A65726F20616464 PUSH1 0x44 DUP3 ADD MSTORE PUSH4 0x72657373 PUSH1 0xE0 SHL PUSH1 0x64 DUP3 ADD MSTORE PUSH1 0x84 ADD PUSH2 0x71E JUMP JUMPDEST DUP3 PUSH1 0x1 PUSH1 0x1 PUSH1 0xA0 SHL SUB AND PUSH2 0x4391 DUP3 PUSH2 0x1846 JUMP JUMPDEST PUSH1 0x1 PUSH1 0x1 PUSH1 0xA0 SHL SUB AND EQ PUSH2 0x43B7 JUMPI PUSH1 0x40 MLOAD PUSH3 0x461BCD PUSH1 0xE5 SHL DUP2 MSTORE PUSH1 0x4 ADD PUSH2 0x71E SWAP1 PUSH2 0x540A JUMP JUMPDEST PUSH1 0x0 DUP2 DUP2 MSTORE PUSH1 0x5 PUSH1 0x20 SWAP1 DUP2 MSTORE PUSH1 0x40 DUP1 DUP4 KECCAK256 DUP1 SLOAD PUSH1 0x1 PUSH1 0x1 PUSH1 0xA0 SHL SUB NOT SWAP1 DUP2 AND SWAP1 SWAP2 SSTORE PUSH1 0x1 PUSH1 0x1 PUSH1 0xA0 SHL SUB DUP8 DUP2 AND DUP1 DUP7 MSTORE PUSH1 0x4 DUP6 MSTORE DUP4 DUP7 KECCAK256 DUP1 SLOAD PUSH1 0x0 NOT ADD SWAP1 SSTORE SWAP1 DUP8 AND DUP1 DUP7 MSTORE DUP4 DUP7 KECCAK256 DUP1 SLOAD PUSH1 0x1 ADD SWAP1 SSTORE DUP7 DUP7 MSTORE PUSH1 0x3 SWAP1 SWAP5 MSTORE DUP3 DUP6 KECCAK256 DUP1 SLOAD SWAP1 SWAP3 AND DUP5 OR SWAP1 SWAP2 SSTORE SWAP1 MLOAD DUP5 SWAP4 PUSH32 0xDDF252AD1BE2C89B69C2B068FC378DAA952BA7F163C4A11628F55A4DF523B3EF SWAP2 LOG4 POP POP POP JUMP JUMPDEST PUSH1 0x0 PUSH2 0x4452 DUP3 PUSH2 0x1846 JUMP JUMPDEST SWAP1 POP PUSH2 0x445D DUP3 PUSH2 0x1846 JUMP JUMPDEST PUSH1 0x0 DUP4 DUP2 MSTORE PUSH1 0x5 PUSH1 0x20 SWAP1 DUP2 MSTORE PUSH1 0x40 DUP1 DUP4 KECCAK256 DUP1 SLOAD PUSH1 0x1 PUSH1 0x1 PUSH1 0xA0 SHL SUB NOT SWAP1 DUP2 AND SWAP1 SWAP2 SSTORE PUSH1 0x1 PUSH1 0x1 PUSH1 0xA0 SHL SUB DUP6 AND DUP1 DUP6 MSTORE PUSH1 0x4 DUP5 MSTORE DUP3 DUP6 KECCAK256 DUP1 SLOAD PUSH1 0x0 NOT ADD SWAP1 SSTORE DUP8 DUP6 MSTORE PUSH1 0x3 SWAP1 SWAP4 MSTORE DUP2 DUP5 KECCAK256 DUP1 SLOAD SWAP1 SWAP2 AND SWAP1 SSTORE MLOAD SWAP3 SWAP4 POP DUP5 SWAP3 PUSH32 0xDDF252AD1BE2C89B69C2B068FC378DAA952BA7F163C4A11628F55A4DF523B3EF SWAP1 DUP4 SWAP1 LOG4 POP POP JUMP JUMPDEST PUSH2 0x44E7 DUP5 DUP5 DUP5 PUSH2 0x42E3 JUMP JUMPDEST PUSH2 0x44F3 DUP5 DUP5 DUP5 DUP5 PUSH2 0x45E7 JUMP JUMPDEST PUSH2 0xA7F JUMPI PUSH1 0x40 MLOAD PUSH3 0x461BCD PUSH1 0xE5 SHL DUP2 MSTORE PUSH1 0x4 ADD PUSH2 0x71E SWAP1 PUSH2 0x544F JUMP JUMPDEST PUSH1 0x0 DUP1 PUSH19 0x184F03E93FF9F4DAA797ED6E38ED64BF6A1F01 PUSH1 0x40 SHL DUP4 LT PUSH2 0x454E JUMPI PUSH19 0x184F03E93FF9F4DAA797ED6E38ED64BF6A1F01 PUSH1 0x40 SHL DUP4 DIV SWAP3 POP PUSH1 0x40 ADD JUMPDEST PUSH14 0x4EE2D6D415B85ACEF8100000000 DUP4 LT PUSH2 0x457A JUMPI PUSH14 0x4EE2D6D415B85ACEF8100000000 DUP4 DIV SWAP3 POP PUSH1 0x20 ADD JUMPDEST PUSH7 0x2386F26FC10000 DUP4 LT PUSH2 0x4598 JUMPI PUSH7 0x2386F26FC10000 DUP4 DIV SWAP3 POP PUSH1 0x10 ADD JUMPDEST PUSH4 0x5F5E100 DUP4 LT PUSH2 0x45B0 JUMPI PUSH4 0x5F5E100 DUP4 DIV SWAP3 POP PUSH1 0x8 ADD JUMPDEST PUSH2 0x2710 DUP4 LT PUSH2 0x45C4 JUMPI PUSH2 0x2710 DUP4 DIV SWAP3 POP PUSH1 0x4 ADD JUMPDEST PUSH1 0x64 DUP4 LT PUSH2 0x45D6 JUMPI PUSH1 0x64 DUP4 DIV SWAP3 POP PUSH1 0x2 ADD JUMPDEST PUSH1 0xA DUP4 LT PUSH2 0x5EA JUMPI PUSH1 0x1 ADD SWAP3 SWAP2 POP POP JUMP JUMPDEST PUSH1 0x0 PUSH1 0x1 PUSH1 0x1 PUSH1 0xA0 SHL SUB DUP5 AND EXTCODESIZE ISZERO PUSH2 0x397A JUMPI PUSH1 0x40 MLOAD PUSH4 0xA85BD01 PUSH1 0xE1 SHL DUP2 MSTORE PUSH1 0x1 PUSH1 0x1 PUSH1 0xA0 SHL SUB DUP6 AND SWAP1 PUSH4 0x150B7A02 SWAP1 PUSH2 0x462B SWAP1 CALLER SWAP1 DUP10 SWAP1 DUP9 SWAP1 DUP9 SWAP1 PUSH1 0x4 ADD PUSH2 0x54A1 JUMP JUMPDEST PUSH1 0x20 PUSH1 0x40 MLOAD DUP1 DUP4 SUB DUP2 PUSH1 0x0 DUP8 DUP1 EXTCODESIZE ISZERO DUP1 ISZERO PUSH2 0x4645 JUMPI PUSH1 0x0 DUP1 REVERT JUMPDEST POP GAS CALL SWAP3 POP POP POP DUP1 ISZERO PUSH2 0x4675 JUMPI POP PUSH1 0x40 DUP1 MLOAD PUSH1 0x1F RETURNDATASIZE SWAP1 DUP2 ADD PUSH1 0x1F NOT AND DUP3 ADD SWAP1 SWAP3 MSTORE PUSH2 0x4672 SWAP2 DUP2 ADD SWAP1 PUSH2 0x54DE JUMP JUMPDEST PUSH1 0x1 JUMPDEST PUSH2 0x46CF JUMPI RETURNDATASIZE DUP1 DUP1 ISZERO PUSH2 0x46A3 JUMPI PUSH1 0x40 MLOAD SWAP2 POP PUSH1 0x1F NOT PUSH1 0x3F RETURNDATASIZE ADD AND DUP3 ADD PUSH1 0x40 MSTORE RETURNDATASIZE DUP3 MSTORE RETURNDATASIZE PUSH1 0x0 PUSH1 0x20 DUP5 ADD RETURNDATACOPY PUSH2 0x46A8 JUMP JUMPDEST PUSH1 0x60 SWAP2 POP JUMPDEST POP DUP1 MLOAD PUSH2 0x46C7 JUMPI PUSH1 0x40 MLOAD PUSH3 0x461BCD PUSH1 0xE5 SHL DUP2 MSTORE PUSH1 0x4 ADD PUSH2 0x71E SWAP1 PUSH2 0x544F JUMP JUMPDEST DUP1 MLOAD DUP2 PUSH1 0x20 ADD REVERT JUMPDEST PUSH1 0x1 PUSH1 0x1 PUSH1 0xE0 SHL SUB NOT AND PUSH4 0xA85BD01 PUSH1 0xE1 SHL EQ SWAP1 POP PUSH2 0x345D JUMP JUMPDEST DUP3 DUP1 SLOAD PUSH2 0x46F5 SWAP1 PUSH2 0x4C12 JUMP JUMPDEST SWAP1 PUSH1 0x0 MSTORE PUSH1 0x20 PUSH1 0x0 KECCAK256 SWAP1 PUSH1 0x1F ADD PUSH1 0x20 SWAP1 DIV DUP2 ADD SWAP3 DUP3 PUSH2 0x4717 JUMPI PUSH1 0x0 DUP6 SSTORE PUSH2 0x475D JUMP JUMPDEST DUP3 PUSH1 0x1F LT PUSH2 0x4730 JUMPI DUP1 MLOAD PUSH1 0xFF NOT AND DUP4 DUP1 ADD OR DUP6 SSTORE PUSH2 0x475D JUMP JUMPDEST DUP3 DUP1 ADD PUSH1 0x1 ADD DUP6 SSTORE DUP3 ISZERO PUSH2 0x475D JUMPI SWAP2 DUP3 ADD JUMPDEST DUP3 DUP2 GT ISZERO PUSH2 0x475D JUMPI DUP3 MLOAD DUP3 SSTORE SWAP2 PUSH1 0x20 ADD SWAP2 SWAP1 PUSH1 0x1 ADD SWAP1 PUSH2 0x4742 JUMP JUMPDEST POP PUSH2 0x4769 SWAP3 SWAP2 POP PUSH2 0x476D JUMP JUMPDEST POP SWAP1 JUMP JUMPDEST JUMPDEST DUP1 DUP3 GT ISZERO PUSH2 0x4769 JUMPI PUSH1 0x0 DUP2 SSTORE PUSH1 0x1 ADD PUSH2 0x476E JUMP JUMPDEST PUSH1 0x1 PUSH1 0x1 PUSH1 0xE0 SHL SUB NOT DUP2 AND DUP2 EQ PUSH2 0x33AB JUMPI PUSH1 0x0 DUP1 REVERT JUMPDEST PUSH1 0x0 PUSH1 0x20 DUP3 DUP5 SUB SLT ISZERO PUSH2 0x47AA JUMPI PUSH1 0x0 DUP1 REVERT JUMPDEST DUP2 CALLDATALOAD PUSH2 0x2D78 DUP2 PUSH2 0x4782 JUMP JUMPDEST PUSH1 0x0 JUMPDEST DUP4 DUP2 LT ISZERO PUSH2 0x47D0 JUMPI DUP2 DUP2 ADD MLOAD DUP4 DUP3 ADD MSTORE PUSH1 0x20 ADD PUSH2 0x47B8 JUMP JUMPDEST DUP4 DUP2 GT ISZERO PUSH2 0xA7F JUMPI POP POP PUSH1 0x0 SWAP2 ADD MSTORE JUMP JUMPDEST PUSH1 0x0 DUP2 MLOAD DUP1 DUP5 MSTORE PUSH2 0x47F9 DUP2 PUSH1 0x20 DUP7 ADD PUSH1 0x20 DUP7 ADD PUSH2 0x47B5 JUMP JUMPDEST PUSH1 0x1F ADD PUSH1 0x1F NOT AND SWAP3 SWAP1 SWAP3 ADD PUSH1 0x20 ADD SWAP3 SWAP2 POP POP JUMP JUMPDEST PUSH1 0x20 DUP2 MSTORE PUSH1 0x0 PUSH2 0x2D78 PUSH1 0x20 DUP4 ADD DUP5 PUSH2 0x47E1 JUMP JUMPDEST PUSH1 0x0 PUSH1 0x20 DUP3 DUP5 SUB SLT ISZERO PUSH2 0x4832 JUMPI PUSH1 0x0 DUP1 REVERT JUMPDEST POP CALLDATALOAD SWAP2 SWAP1 POP JUMP JUMPDEST DUP1 CALLDATALOAD PUSH1 0x1 PUSH1 0x1 PUSH1 0xA0 SHL SUB DUP2 AND DUP2 EQ PUSH2 0x4850 JUMPI PUSH1 0x0 DUP1 REVERT JUMPDEST SWAP2 SWAP1 POP JUMP JUMPDEST PUSH1 0x0 DUP1 PUSH1 0x40 DUP4 DUP6 SUB SLT ISZERO PUSH2 0x4868 JUMPI PUSH1 0x0 DUP1 REVERT JUMPDEST PUSH2 0x4871 DUP4 PUSH2 0x4839 JUMP JUMPDEST SWAP5 PUSH1 0x20 SWAP4 SWAP1 SWAP4 ADD CALLDATALOAD SWAP4 POP POP POP JUMP JUMPDEST PUSH1 0x0 DUP1 PUSH1 0x0 PUSH1 0x60 DUP5 DUP7 SUB SLT ISZERO PUSH2 0x4894 JUMPI PUSH1 0x0 DUP1 REVERT JUMPDEST PUSH2 0x489D DUP5 PUSH2 0x4839 JUMP JUMPDEST SWAP3 POP PUSH2 0x48AB PUSH1 0x20 DUP6 ADD PUSH2 0x4839 JUMP JUMPDEST SWAP2 POP PUSH1 0x40 DUP5 ADD CALLDATALOAD SWAP1 POP SWAP3 POP SWAP3 POP SWAP3 JUMP JUMPDEST PUSH4 0x4E487B71 PUSH1 0xE0 SHL PUSH1 0x0 MSTORE PUSH1 0x41 PUSH1 0x4 MSTORE PUSH1 0x24 PUSH1 0x0 REVERT JUMPDEST PUSH1 0x0 PUSH8 0xFFFFFFFFFFFFFFFF DUP1 DUP5 GT ISZERO PUSH2 0x48EC JUMPI PUSH2 0x48EC PUSH2 0x48BB JUMP JUMPDEST PUSH1 0x40 MLOAD PUSH1 0x1F DUP6 ADD PUSH1 0x1F NOT SWAP1 DUP2 AND PUSH1 0x3F ADD AND DUP2 ADD SWAP1 DUP3 DUP3 GT DUP2 DUP4 LT OR ISZERO PUSH2 0x4914 JUMPI PUSH2 0x4914 PUSH2 0x48BB JUMP JUMPDEST DUP2 PUSH1 0x40 MSTORE DUP1 SWAP4 POP DUP6 DUP2 MSTORE DUP7 DUP7 DUP7 ADD GT ISZERO PUSH2 0x492D JUMPI PUSH1 0x0 DUP1 REVERT JUMPDEST DUP6 DUP6 PUSH1 0x20 DUP4 ADD CALLDATACOPY PUSH1 0x0 PUSH1 0x20 DUP8 DUP4 ADD ADD MSTORE POP POP POP SWAP4 SWAP3 POP POP POP JUMP JUMPDEST PUSH1 0x0 DUP3 PUSH1 0x1F DUP4 ADD SLT PUSH2 0x4958 JUMPI PUSH1 0x0 DUP1 REVERT JUMPDEST PUSH2 0x2D78 DUP4 DUP4 CALLDATALOAD PUSH1 0x20 DUP6 ADD PUSH2 0x48D1 JUMP JUMPDEST PUSH1 0x0 DUP1 PUSH1 0x40 DUP4 DUP6 SUB SLT ISZERO PUSH2 0x497A JUMPI PUSH1 0x0 DUP1 REVERT JUMPDEST DUP3 CALLDATALOAD PUSH8 0xFFFFFFFFFFFFFFFF DUP1 DUP3 GT ISZERO PUSH2 0x4992 JUMPI PUSH1 0x0 DUP1 REVERT JUMPDEST PUSH2 0x499E DUP7 DUP4 DUP8 ADD PUSH2 0x4947 JUMP JUMPDEST SWAP4 POP PUSH1 0x20 DUP6 ADD CALLDATALOAD SWAP2 POP DUP1 DUP3 GT ISZERO PUSH2 0x49B4 JUMPI PUSH1 0x0 DUP1 REVERT JUMPDEST POP PUSH2 0x49C1 DUP6 DUP3 DUP7 ADD PUSH2 0x4947 JUMP JUMPDEST SWAP2 POP POP SWAP3 POP SWAP3 SWAP1 POP JUMP JUMPDEST PUSH1 0x0 PUSH1 0x20 DUP3 DUP5 SUB SLT ISZERO PUSH2 0x49DD JUMPI PUSH1 0x0 DUP1 REVERT JUMPDEST PUSH2 0x2D78 DUP3 PUSH2 0x4839 JUMP JUMPDEST PUSH1 0x0 DUP1 PUSH1 0x40 DUP4 DUP6 SUB SLT ISZERO PUSH2 0x49F9 JUMPI PUSH1 0x0 DUP1 REVERT JUMPDEST DUP3 CALLDATALOAD PUSH8 0xFFFFFFFFFFFFFFFF DUP2 GT ISZERO PUSH2 0x4A10 JUMPI PUSH1 0x0 DUP1 REVERT JUMPDEST PUSH2 0x4A1C DUP6 DUP3 DUP7 ADD PUSH2 0x4947 JUMP JUMPDEST SWAP6 PUSH1 0x20 SWAP5 SWAP1 SWAP5 ADD CALLDATALOAD SWAP5 POP POP POP POP JUMP JUMPDEST PUSH1 0x0 PUSH1 0x20 DUP3 DUP5 SUB SLT ISZERO PUSH2 0x4A3D JUMPI PUSH1 0x0 DUP1 REVERT JUMPDEST DUP2 CALLDATALOAD PUSH8 0xFFFFFFFFFFFFFFFF DUP2 GT ISZERO PUSH2 0x4A54 JUMPI PUSH1 0x0 DUP1 REVERT JUMPDEST PUSH2 0x345D DUP5 DUP3 DUP6 ADD PUSH2 0x4947 JUMP JUMPDEST PUSH1 0x20 DUP2 MSTORE DUP2 MLOAD PUSH1 0x20 DUP3 ADD MSTORE PUSH1 0x0 PUSH1 0x20 DUP4 ADD MLOAD PUSH1 0x1 DUP1 PUSH1 0xA0 SHL SUB DUP1 DUP3 AND PUSH1 0x40 DUP6 ADD MSTORE PUSH1 0x40 DUP6 ADD MLOAD PUSH1 0x60 DUP6 ADD MSTORE DUP1 PUSH1 0x60 DUP7 ADD MLOAD AND PUSH1 0x80 DUP6 ADD MSTORE POP POP PUSH1 0x80 DUP4 ADD MLOAD PUSH1 0xA0 DUP1 DUP5 ADD MSTORE PUSH2 0x345D PUSH1 0xC0 DUP5 ADD DUP3 PUSH2 0x47E1 JUMP JUMPDEST PUSH1 0x20 DUP2 MSTORE DUP2 MLOAD PUSH1 0x20 DUP3 ADD MSTORE PUSH1 0x1 DUP1 PUSH1 0xA0 SHL SUB PUSH1 0x20 DUP4 ADD MLOAD AND PUSH1 0x40 DUP3 ADD MSTORE PUSH1 0x40 DUP3 ADD MLOAD PUSH1 0x60 DUP3 ADD MSTORE PUSH1 0x60 DUP3 ADD MLOAD PUSH1 0x80 DUP3 ADD MSTORE PUSH1 0x0 PUSH1 0x80 DUP4 ADD MLOAD PUSH1 0xA0 DUP1 DUP5 ADD MSTORE PUSH2 0x345D PUSH1 0xC0 DUP5 ADD DUP3 PUSH2 0x47E1 JUMP JUMPDEST DUP1 ISZERO ISZERO DUP2 EQ PUSH2 0x33AB JUMPI PUSH1 0x0 DUP1 REVERT JUMPDEST PUSH1 0x0 DUP1 PUSH1 0x40 DUP4 DUP6 SUB SLT ISZERO PUSH2 0x4B1D JUMPI PUSH1 0x0 DUP1 REVERT JUMPDEST PUSH2 0x4B26 DUP4 PUSH2 0x4839 JUMP JUMPDEST SWAP2 POP PUSH1 0x20 DUP4 ADD CALLDATALOAD PUSH2 0x4B36 DUP2 PUSH2 0x4AFC JUMP JUMPDEST DUP1 SWAP2 POP POP SWAP3 POP SWAP3 SWAP1 POP JUMP JUMPDEST PUSH1 0x0 DUP1 PUSH1 0x0 DUP1 PUSH1 0x80 DUP6 DUP8 SUB SLT ISZERO PUSH2 0x4B57 JUMPI PUSH1 0x0 DUP1 REVERT JUMPDEST PUSH2 0x4B60 DUP6 PUSH2 0x4839 JUMP JUMPDEST SWAP4 POP PUSH2 0x4B6E PUSH1 0x20 DUP7 ADD PUSH2 0x4839 JUMP JUMPDEST SWAP3 POP PUSH1 0x40 DUP6 ADD CALLDATALOAD SWAP2 POP PUSH1 0x60 DUP6 ADD CALLDATALOAD PUSH8 0xFFFFFFFFFFFFFFFF DUP2 GT ISZERO PUSH2 0x4B91 JUMPI PUSH1 0x0 DUP1 REVERT JUMPDEST DUP6 ADD PUSH1 0x1F DUP2 ADD DUP8 SGT PUSH2 0x4BA2 JUMPI PUSH1 0x0 DUP1 REVERT JUMPDEST PUSH2 0x4BB1 DUP8 DUP3 CALLDATALOAD PUSH1 0x20 DUP5 ADD PUSH2 0x48D1 JUMP JUMPDEST SWAP2 POP POP SWAP3 SWAP6 SWAP2 SWAP5 POP SWAP3 POP JUMP JUMPDEST PUSH1 0x0 DUP1 PUSH1 0x40 DUP4 DUP6 SUB SLT ISZERO PUSH2 0x4BD0 JUMPI PUSH1 0x0 DUP1 REVERT JUMPDEST POP POP DUP1 CALLDATALOAD SWAP3 PUSH1 0x20 SWAP1 SWAP2 ADD CALLDATALOAD SWAP2 POP JUMP JUMPDEST PUSH1 0x0 DUP1 PUSH1 0x40 DUP4 DUP6 SUB SLT ISZERO PUSH2 0x4BF2 JUMPI PUSH1 0x0 DUP1 REVERT JUMPDEST PUSH2 0x4BFB DUP4 PUSH2 0x4839 JUMP JUMPDEST SWAP2 POP PUSH2 0x4C09 PUSH1 0x20 DUP5 ADD PUSH2 0x4839 JUMP JUMPDEST SWAP1 POP SWAP3 POP SWAP3 SWAP1 POP JUMP JUMPDEST PUSH1 0x1 DUP2 DUP2 SHR SWAP1 DUP3 AND DUP1 PUSH2 0x4C26 JUMPI PUSH1 0x7F DUP3 AND SWAP2 POP JUMPDEST PUSH1 0x20 DUP3 LT DUP2 EQ ISZERO PUSH2 0x4C47 JUMPI PUSH4 0x4E487B71 PUSH1 0xE0 SHL PUSH1 0x0 MSTORE PUSH1 0x22 PUSH1 0x4 MSTORE PUSH1 0x24 PUSH1 0x0 REVERT JUMPDEST POP SWAP2 SWAP1 POP JUMP JUMPDEST PUSH4 0x4E487B71 PUSH1 0xE0 SHL PUSH1 0x0 MSTORE PUSH1 0x21 PUSH1 0x4 MSTORE PUSH1 0x24 PUSH1 0x0 REVERT JUMPDEST PUSH1 0x0 DUP1 DUP4 SLOAD PUSH2 0x4C71 DUP2 PUSH2 0x4C12 JUMP JUMPDEST PUSH1 0x1 DUP3 DUP2 AND DUP1 ISZERO PUSH2 0x4C89 JUMPI PUSH1 0x1 DUP2 EQ PUSH2 0x4C9A JUMPI PUSH2 0x4CC9 JUMP JUMPDEST PUSH1 0xFF NOT DUP5 AND DUP8 MSTORE DUP3 DUP8 ADD SWAP5 POP PUSH2 0x4CC9 JUMP JUMPDEST DUP8 PUSH1 0x0 MSTORE PUSH1 0x20 DUP1 PUSH1 0x0 KECCAK256 PUSH1 0x0 JUMPDEST DUP6 DUP2 LT ISZERO PUSH2 0x4CC0 JUMPI DUP2 SLOAD DUP11 DUP3 ADD MSTORE SWAP1 DUP5 ADD SWAP1 DUP3 ADD PUSH2 0x4CA7 JUMP JUMPDEST POP POP POP DUP3 DUP8 ADD SWAP5 POP JUMPDEST POP SWAP3 SWAP7 SWAP6 POP POP POP POP POP POP JUMP JUMPDEST PUSH1 0x20 DUP1 DUP3 MSTORE PUSH1 0x22 SWAP1 DUP3 ADD MSTORE PUSH32 0x4E6577206F776E65722069732073616D652061732063757272656E74206F776E PUSH1 0x40 DUP3 ADD MSTORE PUSH2 0x32B9 PUSH1 0xF1 SHL PUSH1 0x60 DUP3 ADD MSTORE PUSH1 0x80 ADD SWAP1 JUMP JUMPDEST PUSH1 0x0 PUSH1 0x20 DUP1 DUP4 MSTORE PUSH1 0x0 DUP5 SLOAD PUSH2 0x4D2B DUP2 PUSH2 0x4C12 JUMP JUMPDEST DUP1 DUP5 DUP8 ADD MSTORE PUSH1 0x40 PUSH1 0x1 DUP1 DUP5 AND PUSH1 0x0 DUP2 EQ PUSH2 0x4D4C JUMPI PUSH1 0x1 DUP2 EQ PUSH2 0x4D60 JUMPI PUSH2 0x4D8E JUMP JUMPDEST PUSH1 0xFF NOT DUP6 AND DUP10 DUP5 ADD MSTORE PUSH1 0x60 DUP10 ADD SWAP6 POP PUSH2 0x4D8E JUMP JUMPDEST DUP10 PUSH1 0x0 MSTORE DUP7 PUSH1 0x0 KECCAK256 PUSH1 0x0 JUMPDEST DUP6 DUP2 LT ISZERO PUSH2 0x4D86 JUMPI DUP2 SLOAD DUP12 DUP3 ADD DUP7 ADD MSTORE SWAP1 DUP4 ADD SWAP1 DUP9 ADD PUSH2 0x4D6B JUMP JUMPDEST DUP11 ADD DUP5 ADD SWAP7 POP POP JUMPDEST POP SWAP4 SWAP9 SWAP8 POP POP POP POP POP POP POP POP JUMP JUMPDEST PUSH1 0x0 DUP3 MLOAD PUSH2 0x4DAE DUP2 DUP5 PUSH1 0x20 DUP8 ADD PUSH2 0x47B5 JUMP JUMPDEST SWAP2 SWAP1 SWAP2 ADD SWAP3 SWAP2 POP POP JUMP JUMPDEST PUSH1 0x0 DUP4 MLOAD PUSH2 0x4DCA DUP2 DUP5 PUSH1 0x20 DUP9 ADD PUSH2 0x47B5 JUMP JUMPDEST PUSH1 0x17 PUSH1 0xF9 SHL SWAP1 DUP4 ADD SWAP1 DUP2 MSTORE DUP4 MLOAD PUSH2 0x4DE8 DUP2 PUSH1 0x1 DUP5 ADD PUSH1 0x20 DUP9 ADD PUSH2 0x47B5 JUMP JUMPDEST ADD PUSH1 0x1 ADD SWAP5 SWAP4 POP POP POP POP JUMP JUMPDEST PUSH1 0x40 DUP2 MSTORE PUSH1 0x0 PUSH2 0x4E07 PUSH1 0x40 DUP4 ADD DUP6 PUSH2 0x47E1 JUMP JUMPDEST DUP3 DUP2 SUB PUSH1 0x20 DUP5 ADD MSTORE PUSH2 0x4E19 DUP2 DUP6 PUSH2 0x47E1 JUMP JUMPDEST SWAP6 SWAP5 POP POP POP POP POP JUMP JUMPDEST PUSH1 0x0 PUSH1 0x20 DUP3 DUP5 SUB SLT ISZERO PUSH2 0x4E34 JUMPI PUSH1 0x0 DUP1 REVERT JUMPDEST DUP2 MLOAD PUSH2 0x2D78 DUP2 PUSH2 0x4AFC JUMP JUMPDEST PUSH32 0x303132333435363738396162636465666768696A6B6C6D6E6F70717273747576 DUP2 MSTORE PUSH6 0x3BBC3CBD1697 PUSH1 0xD1 SHL PUSH1 0x20 DUP3 ADD MSTORE PUSH1 0x26 ADD SWAP1 JUMP JUMPDEST PUSH1 0x20 DUP1 DUP3 MSTORE PUSH1 0x1D SWAP1 DUP3 ADD MSTORE PUSH32 0x48616E646C65206E616D65206D757374206E6F7420626520656D707479000000 PUSH1 0x40 DUP3 ADD MSTORE PUSH1 0x60 ADD SWAP1 JUMP JUMPDEST PUSH4 0x4E487B71 PUSH1 0xE0 SHL PUSH1 0x0 MSTORE PUSH1 0x32 PUSH1 0x4 MSTORE PUSH1 0x24 PUSH1 0x0 REVERT JUMPDEST PUSH4 0x4E487B71 PUSH1 0xE0 SHL PUSH1 0x0 MSTORE PUSH1 0x11 PUSH1 0x4 MSTORE PUSH1 0x24 PUSH1 0x0 REVERT JUMPDEST PUSH1 0x0 DUP3 DUP3 LT ISZERO PUSH2 0x4EEC JUMPI PUSH2 0x4EEC PUSH2 0x4EC4 JUMP JUMPDEST POP SUB SWAP1 JUMP JUMPDEST PUSH1 0x20 DUP1 DUP3 MSTORE PUSH1 0x26 SWAP1 DUP3 ADD MSTORE PUSH32 0x48616E646C652063616E6E6F7420636F6E7461696E20636F6E73656375746976 PUSH1 0x40 DUP3 ADD MSTORE PUSH6 0x6520646F7473 PUSH1 0xD0 SHL PUSH1 0x60 DUP3 ADD MSTORE PUSH1 0x80 ADD SWAP1 JUMP JUMPDEST PUSH1 0x0 PUSH1 0x0 NOT DUP3 EQ ISZERO PUSH2 0x4F4B JUMPI PUSH2 0x4F4B PUSH2 0x4EC4 JUMP JUMPDEST POP PUSH1 0x1 ADD SWAP1 JUMP JUMPDEST PUSH1 0x20 DUP1 DUP3 MSTORE DUP2 DUP2 ADD MSTORE PUSH32 0x496E76616C69642063686172616374657220696E2068616E646C65206E616D65 PUSH1 0x40 DUP3 ADD MSTORE PUSH1 0x60 ADD SWAP1 JUMP JUMPDEST PUSH1 0x20 DUP1 DUP3 MSTORE PUSH1 0x2F SWAP1 DUP3 ADD MSTORE PUSH32 0x48616E646C652063616E6E6F74207374617274206F7220656E64207769746820 PUSH1 0x40 DUP3 ADD MSTORE PUSH15 0x18481A1E5C1A195B881BDC88191BDD PUSH1 0x8A SHL PUSH1 0x60 DUP3 ADD MSTORE PUSH1 0x80 ADD SWAP1 JUMP JUMPDEST PUSH1 0x0 DUP3 NOT DUP3 GT ISZERO PUSH2 0x4FE9 JUMPI PUSH2 0x4FE9 PUSH2 0x4EC4 JUMP JUMPDEST POP ADD SWAP1 JUMP JUMPDEST PUSH1 0x0 DUP2 PUSH1 0x0 NOT DIV DUP4 GT DUP3 ISZERO ISZERO AND ISZERO PUSH2 0x5008 JUMPI PUSH2 0x5008 PUSH2 0x4EC4 JUMP JUMPDEST POP MUL SWAP1 JUMP JUMPDEST PUSH1 0x80 DUP2 MSTORE PUSH1 0x0 PUSH2 0x5020 PUSH1 0x80 DUP4 ADD DUP8 PUSH2 0x47E1 JUMP JUMPDEST DUP3 DUP2 SUB PUSH1 0x20 DUP5 ADD MSTORE PUSH2 0x5032 DUP2 DUP8 PUSH2 0x47E1 JUMP JUMPDEST PUSH1 0x1 PUSH1 0x1 PUSH1 0xA0 SHL SUB SWAP6 SWAP1 SWAP6 AND PUSH1 0x40 DUP5 ADD MSTORE POP POP PUSH1 0x60 ADD MSTORE SWAP3 SWAP2 POP POP JUMP JUMPDEST PUSH1 0x20 DUP1 DUP3 MSTORE PUSH1 0x18 SWAP1 DUP3 ADD MSTORE PUSH24 0x115490CDCC8C4E881A5B9D985B1A59081D1BDAD95B881251 PUSH1 0x42 SHL PUSH1 0x40 DUP3 ADD MSTORE PUSH1 0x60 ADD SWAP1 JUMP JUMPDEST PUSH1 0x40 DUP2 MSTORE PUSH1 0x0 PUSH2 0x5094 PUSH1 0x40 DUP4 ADD DUP6 PUSH2 0x47E1 JUMP JUMPDEST SWAP1 POP DUP3 PUSH1 0x20 DUP4 ADD MSTORE SWAP4 SWAP3 POP POP POP JUMP JUMPDEST PUSH1 0x20 DUP1 DUP3 MSTORE PUSH1 0x1A SWAP1 DUP3 ADD MSTORE PUSH32 0x496E76616C696420706172656E742068616E646C65206E616D65000000000000 PUSH1 0x40 DUP3 ADD MSTORE PUSH1 0x60 ADD SWAP1 JUMP JUMPDEST PUSH1 0x20 DUP1 DUP3 MSTORE PUSH1 0x1C SWAP1 DUP3 ADD MSTORE PUSH32 0x506172656E742068616E646C65206E6F74207265676973746572656400000000 PUSH1 0x40 DUP3 ADD MSTORE PUSH1 0x60 ADD SWAP1 JUMP JUMPDEST PUSH1 0x40 DUP2 MSTORE PUSH1 0x0 PUSH2 0x5124 PUSH1 0x40 DUP4 ADD DUP6 PUSH2 0x47E1 JUMP JUMPDEST SWAP1 POP DUP3 ISZERO ISZERO PUSH1 0x20 DUP4 ADD MSTORE SWAP4 SWAP3 POP POP POP JUMP JUMPDEST PUSH1 0x20 DUP1 DUP3 MSTORE PUSH1 0x15 SWAP1 DUP3 ADD MSTORE PUSH21 0x12185B991B19481B9BDD081C9959DA5CDD195C9959 PUSH1 0x5A SHL PUSH1 0x40 DUP3 ADD MSTORE PUSH1 0x60 ADD SWAP1 JUMP JUMPDEST PUSH1 0x1 PUSH1 0x1 PUSH1 0xA0 SHL SUB DUP5 AND DUP2 MSTORE PUSH1 0x60 PUSH1 0x20 DUP3 ADD DUP2 SWAP1 MSTORE PUSH1 0x0 SWAP1 PUSH2 0x5188 SWAP1 DUP4 ADD DUP6 PUSH2 0x47E1 JUMP JUMPDEST SWAP1 POP DUP3 PUSH1 0x40 DUP4 ADD MSTORE SWAP5 SWAP4 POP POP POP POP JUMP JUMPDEST PUSH1 0x0 DUP4 MLOAD PUSH2 0x51AA DUP2 DUP5 PUSH1 0x20 DUP9 ADD PUSH2 0x47B5 JUMP JUMPDEST DUP4 MLOAD SWAP1 DUP4 ADD SWAP1 PUSH2 0x51BE DUP2 DUP4 PUSH1 0x20 DUP9 ADD PUSH2 0x47B5 JUMP JUMPDEST ADD SWAP5 SWAP4 POP POP POP POP JUMP JUMPDEST PUSH1 0x20 DUP1 DUP3 MSTORE PUSH1 0x18 SWAP1 DUP3 ADD MSTORE PUSH24 0x14DD589A185B991B19481B9BDD081C9959DA5CDD195C9959 PUSH1 0x42 SHL PUSH1 0x40 DUP3 ADD MSTORE PUSH1 0x60 ADD SWAP1 JUMP JUMPDEST PUSH1 0x1 PUSH1 0x1 PUSH1 0xA0 SHL SUB DUP6 AND DUP2 MSTORE PUSH1 0x80 PUSH1 0x20 DUP3 ADD DUP2 SWAP1 MSTORE PUSH1 0x0 SWAP1 PUSH2 0x521D SWAP1 DUP4 ADD DUP7 PUSH2 0x47E1 JUMP JUMPDEST DUP3 DUP2 SUB PUSH1 0x40 DUP5 ADD MSTORE PUSH2 0x522F DUP2 DUP7 PUSH2 0x47E1 JUMP JUMPDEST SWAP2 POP POP DUP3 PUSH1 0x60 DUP4 ADD MSTORE SWAP6 SWAP5 POP POP POP POP POP JUMP JUMPDEST PUSH1 0x20 DUP1 DUP3 MSTORE PUSH1 0x2D SWAP1 DUP3 ADD MSTORE PUSH32 0x4552433732313A2063616C6C6572206973206E6F7420746F6B656E206F776E65 PUSH1 0x40 DUP3 ADD MSTORE PUSH13 0x1C881BDC88185C1C1C9BDD9959 PUSH1 0x9A SHL PUSH1 0x60 DUP3 ADD MSTORE PUSH1 0x80 ADD SWAP1 JUMP JUMPDEST PUSH1 0x20 DUP1 DUP3 MSTORE PUSH1 0x1C SWAP1 DUP3 ADD MSTORE PUSH32 0x4552433732313A20746F6B656E20616C7265616479206D696E74656400000000 PUSH1 0x40 DUP3 ADD MSTORE PUSH1 0x60 ADD SWAP1 JUMP JUMPDEST PUSH4 0x4E487B71 PUSH1 0xE0 SHL PUSH1 0x0 MSTORE PUSH1 0x12 PUSH1 0x4 MSTORE PUSH1 0x24 PUSH1 0x0 REVERT JUMPDEST PUSH1 0x0 DUP3 PUSH2 0x52EA JUMPI PUSH2 0x52EA PUSH2 0x52C5 JUMP JUMPDEST POP DIV SWAP1 JUMP JUMPDEST PUSH1 0x0 DUP3 PUSH2 0x52FE JUMPI PUSH2 0x52FE PUSH2 0x52C5 JUMP JUMPDEST POP MOD SWAP1 JUMP JUMPDEST PUSH1 0x1 DUP2 DUP2 JUMPDEST DUP1 DUP6 GT ISZERO PUSH2 0x533E JUMPI DUP2 PUSH1 0x0 NOT DIV DUP3 GT ISZERO PUSH2 0x5324 JUMPI PUSH2 0x5324 PUSH2 0x4EC4 JUMP JUMPDEST DUP1 DUP6 AND ISZERO PUSH2 0x5331 JUMPI SWAP2 DUP2 MUL SWAP2 JUMPDEST SWAP4 DUP5 SHR SWAP4 SWAP1 DUP1 MUL SWAP1 PUSH2 0x5308 JUMP JUMPDEST POP SWAP3 POP SWAP3 SWAP1 POP JUMP JUMPDEST PUSH1 0x0 DUP3 PUSH2 0x5355 JUMPI POP PUSH1 0x1 PUSH2 0x5EA JUMP JUMPDEST DUP2 PUSH2 0x5362 JUMPI POP PUSH1 0x0 PUSH2 0x5EA JUMP JUMPDEST DUP2 PUSH1 0x1 DUP2 EQ PUSH2 0x5378 JUMPI PUSH1 0x2 DUP2 EQ PUSH2 0x5382 JUMPI PUSH2 0x539E JUMP JUMPDEST PUSH1 0x1 SWAP2 POP POP PUSH2 0x5EA JUMP JUMPDEST PUSH1 0xFF DUP5 GT ISZERO PUSH2 0x5393 JUMPI PUSH2 0x5393 PUSH2 0x4EC4 JUMP JUMPDEST POP POP PUSH1 0x1 DUP3 SHL PUSH2 0x5EA JUMP JUMPDEST POP PUSH1 0x20 DUP4 LT PUSH2 0x133 DUP4 LT AND PUSH1 0x4E DUP5 LT PUSH1 0xB DUP5 LT AND OR ISZERO PUSH2 0x53C1 JUMPI POP DUP2 DUP2 EXP PUSH2 0x5EA JUMP JUMPDEST PUSH2 0x53CB DUP4 DUP4 PUSH2 0x5303 JUMP JUMPDEST DUP1 PUSH1 0x0 NOT DIV DUP3 GT ISZERO PUSH2 0x53DF JUMPI PUSH2 0x53DF PUSH2 0x4EC4 JUMP JUMPDEST MUL SWAP4 SWAP3 POP POP POP JUMP JUMPDEST PUSH1 0x0 PUSH2 0x2D78 DUP4 DUP4 PUSH2 0x5346 JUMP JUMPDEST PUSH1 0x0 DUP2 PUSH2 0x5402 JUMPI PUSH2 0x5402 PUSH2 0x4EC4 JUMP JUMPDEST POP PUSH1 0x0 NOT ADD SWAP1 JUMP JUMPDEST PUSH1 0x20 DUP1 DUP3 MSTORE PUSH1 0x25 SWAP1 DUP3 ADD MSTORE PUSH32 0x4552433732313A207472616E736665722066726F6D20696E636F727265637420 PUSH1 0x40 DUP3 ADD MSTORE PUSH5 0x37BBB732B9 PUSH1 0xD9 SHL PUSH1 0x60 DUP3 ADD MSTORE PUSH1 0x80 ADD SWAP1 JUMP JUMPDEST PUSH1 0x20 DUP1 DUP3 MSTORE PUSH1 0x32 SWAP1 DUP3 ADD MSTORE PUSH32 0x4552433732313A207472616E7366657220746F206E6F6E204552433732315265 PUSH1 0x40 DUP3 ADD MSTORE PUSH18 0x31B2B4BB32B91034B6B83632B6B2B73A32B9 PUSH1 0x71 SHL PUSH1 0x60 DUP3 ADD MSTORE PUSH1 0x80 ADD SWAP1 JUMP JUMPDEST PUSH1 0x1 PUSH1 0x1 PUSH1 0xA0 SHL SUB DUP6 DUP2 AND DUP3 MSTORE DUP5 AND PUSH1 0x20 DUP3 ADD MSTORE PUSH1 0x40 DUP2 ADD DUP4 SWAP1 MSTORE PUSH1 0x80 PUSH1 0x60 DUP3 ADD DUP2 SWAP1 MSTORE PUSH1 0x0 SWAP1 PUSH2 0x54D4 SWAP1 DUP4 ADD DUP5 PUSH2 0x47E1 JUMP JUMPDEST SWAP7 SWAP6 POP POP POP POP POP POP JUMP JUMPDEST PUSH1 0x0 PUSH1 0x20 DUP3 DUP5 SUB SLT ISZERO PUSH2 0x54F0 JUMPI PUSH1 0x0 DUP1 REVERT JUMPDEST DUP2 MLOAD PUSH2 0x2D78 DUP2 PUSH2 0x4782 JUMP INVALID DUP1 0xB3 0xE3 PUSH31 0x8EFB0068684D1C039390494C47111FBE3C5498A148F5E6F03389FD91A26469 PUSH17 0x66735822122080CFBFA6168CEF027BAFE7 LOG1 GT 0xD9 0xC9 REVERT 0xAD PUSH29 0xC98A823ABACD01A5A00FAAF2A8C664736F6C6343000809003300000000 "
		},
		"gasEstimates": {
			"creation": {
				"codeDepositCost": "4368200",
				"executionCost": "infinite",
				"totalCost": "infinite"
			},
			"external": {
				"approve(address,uint256)": "infinite",
				"balanceOf(address)": "2722",
				"calculateHandleFee(uint256,uint256)": "infinite",
				"calculateSubhandleFee(uint256,uint256)": "infinite",
				"contractDeploymentTime()": "2340",
				"getApproved(uint256)": "4828",
				"getHandleInfo(string)": "infinite",
				"getSubhandleInfo(string)": "infinite",
				"isApprovedForAll(address,address)": "infinite",
				"isSubhandlePermissionEnabled(string)": "infinite",
				"isWhitelisted(address)": "infinite",
				"mintHandle(string,uint256)": "infinite",
				"mintSubhandle(string,uint256)": "infinite",
				"name()": "infinite",
				"owner()": "2508",
				"ownerOf(uint256)": "2648",
				"renewHandle(string,uint256)": "infinite",
				"renewSubhandle(string,uint256)": "infinite",
				"renounceOwnership()": "infinite",
				"safeTransferFrom(address,address,uint256)": "infinite",
				"safeTransferFrom(address,address,uint256,bytes)": "infinite",
				"setApprovalForAll(address,bool)": "26848",
				"setBitcoinAddressForHandle(string,string)": "infinite",
				"setBitcoinAddressForSubhandle(string,string)": "infinite",
				"supportsInterface(bytes4)": "534",
				"symbol()": "infinite",
				"toggleSubhandlePermission(string)": "infinite",
				"tokenURI(uint256)": "infinite",
				"transferFrom(address,address,uint256)": "infinite",
				"transferOwnership(address)": "28509",
				"updateFeeRecipient(address)": "26924",
				"withdrawHandleFees(uint256)": "infinite"
			},
			"internal": {
				"burnHandle(uint256)": "infinite",
				"burnSubhandle(string memory)": "infinite",
				"calculateFee(uint256,uint256,bool)": "infinite",
				"isPermissionEnabled(string memory,address)": "infinite"
			}
		},
		"methodIdentifiers": {
			"approve(address,uint256)": "095ea7b3",
			"balanceOf(address)": "70a08231",
			"calculateHandleFee(uint256,uint256)": "cd43d1f3",
			"calculateSubhandleFee(uint256,uint256)": "d382be68",
			"contractDeploymentTime()": "5049485d",
			"getApproved(uint256)": "081812fc",
			"getHandleInfo(string)": "9be40ed6",
			"getSubhandleInfo(string)": "93d7e73b",
			"isApprovedForAll(address,address)": "e985e9c5",
			"isSubhandlePermissionEnabled(string)": "c4a93d27",
			"isWhitelisted(address)": "3af32abf",
			"mintHandle(string,uint256)": "926b13cf",
			"mintSubhandle(string,uint256)": "610c4257",
			"name()": "06fdde03",
			"owner()": "8da5cb5b",
			"ownerOf(uint256)": "6352211e",
			"renewHandle(string,uint256)": "c29e9e26",
			"renewSubhandle(string,uint256)": "e8cb3146",
			"renounceOwnership()": "715018a6",
			"safeTransferFrom(address,address,uint256)": "42842e0e",
			"safeTransferFrom(address,address,uint256,bytes)": "b88d4fde",
			"setApprovalForAll(address,bool)": "a22cb465",
			"setBitcoinAddressForHandle(string,string)": "3feecd9c",
			"setBitcoinAddressForSubhandle(string,string)": "2ca0f70d",
			"supportsInterface(bytes4)": "01ffc9a7",
			"symbol()": "95d89b41",
			"toggleSubhandlePermission(string)": "9ca005bd",
			"tokenURI(uint256)": "c87b56dd",
			"transferFrom(address,address,uint256)": "23b872dd",
			"transferOwnership(address)": "f2fde38b",
			"updateFeeRecipient(address)": "f160d369",
			"withdrawHandleFees(uint256)": "6e482670"
		}
	},
	"abi": [
		{
			"inputs": [
				{
					"internalType": "address",
					"name": "_feeRecipient",
					"type": "address"
				},
				{
					"internalType": "address",
					"name": "_whitelistAddress",
					"type": "address"
				}
			],
			"stateMutability": "nonpayable",
			"type": "constructor"
		},
		{
			"anonymous": false,
			"inputs": [
				{
					"indexed": true,
					"internalType": "address",
					"name": "owner",
					"type": "address"
				},
				{
					"indexed": true,
					"internalType": "address",
					"name": "approved",
					"type": "address"
				},
				{
					"indexed": true,
					"internalType": "uint256",
					"name": "tokenId",
					"type": "uint256"
				}
			],
			"name": "Approval",
			"type": "event"
		},
		{
			"anonymous": false,
			"inputs": [
				{
					"indexed": true,
					"internalType": "address",
					"name": "owner",
					"type": "address"
				},
				{
					"indexed": true,
					"internalType": "address",
					"name": "operator",
					"type": "address"
				},
				{
					"indexed": false,
					"internalType": "bool",
					"name": "approved",
					"type": "bool"
				}
			],
			"name": "ApprovalForAll",
			"type": "event"
		},
		{
			"anonymous": false,
			"inputs": [
				{
					"indexed": true,
					"internalType": "address",
					"name": "setter",
					"type": "address"
				},
				{
					"indexed": false,
					"internalType": "string",
					"name": "handleName",
					"type": "string"
				},
				{
					"indexed": false,
					"internalType": "string",
					"name": "bitcoinAddress",
					"type": "string"
				},
				{
					"indexed": true,
					"internalType": "uint256",
					"name": "tokenId",
					"type": "uint256"
				}
			],
			"name": "BtcAddressHandleSet",
			"type": "event"
		},
		{
			"anonymous": false,
			"inputs": [
				{
					"indexed": true,
					"internalType": "address",
					"name": "setter",
					"type": "address"
				},
				{
					"indexed": false,
					"internalType": "string",
					"name": "subhandleName",
					"type": "string"
				},
				{
					"indexed": false,
					"internalType": "string",
					"name": "bitcoinAddress",
					"type": "string"
				},
				{
					"indexed": true,
					"internalType": "uint256",
					"name": "tokenId",
					"type": "uint256"
				}
			],
			"name": "BtcAddressSubhandleSet",
			"type": "event"
		},
		{
			"anonymous": false,
			"inputs": [
				{
					"indexed": true,
					"internalType": "address",
					"name": "owner",
					"type": "address"
				},
				{
					"indexed": false,
					"internalType": "string",
					"name": "handleName",
					"type": "string"
				},
				{
					"indexed": true,
					"internalType": "uint256",
					"name": "tokenId",
					"type": "uint256"
				}
			],
			"name": "HandleBurned",
			"type": "event"
		},
		{
			"anonymous": false,
			"inputs": [
				{
					"indexed": true,
					"internalType": "address",
					"name": "owner",
					"type": "address"
				},
				{
					"indexed": false,
					"internalType": "string",
					"name": "handleName",
					"type": "string"
				},
				{
					"indexed": false,
					"internalType": "uint256",
					"name": "expirationTimestamp",
					"type": "uint256"
				},
				{
					"indexed": true,
					"internalType": "uint256",
					"name": "tokenId",
					"type": "uint256"
				}
			],
			"name": "HandleRegistered",
			"type": "event"
		},
		{
			"anonymous": false,
			"inputs": [
				{
					"indexed": false,
					"internalType": "address",
					"name": "renewedBy",
					"type": "address"
				},
				{
					"indexed": true,
					"internalType": "address",
					"name": "owner",
					"type": "address"
				},
				{
					"indexed": false,
					"internalType": "string",
					"name": "handleName",
					"type": "string"
				},
				{
					"indexed": false,
					"internalType": "uint256",
					"name": "newExpirationTimestamp",
					"type": "uint256"
				},
				{
					"indexed": true,
					"internalType": "uint256",
					"name": "tokenId",
					"type": "uint256"
				}
			],
			"name": "HandleRenewed",
			"type": "event"
		},
		{
			"anonymous": false,
			"inputs": [
				{
					"indexed": true,
					"internalType": "address",
					"name": "previousOwner",
					"type": "address"
				},
				{
					"indexed": false,
					"internalType": "string",
					"name": "handleOrSubhandleName",
					"type": "string"
				},
				{
					"indexed": true,
					"internalType": "address",
					"name": "newOwner",
					"type": "address"
				},
				{
					"indexed": true,
					"internalType": "uint256",
					"name": "tokenId",
					"type": "uint256"
				}
			],
			"name": "HandleTransferred",
			"type": "event"
		},
		{
			"anonymous": false,
			"inputs": [
				{
					"indexed": true,
					"internalType": "address",
					"name": "previousOwner",
					"type": "address"
				},
				{
					"indexed": true,
					"internalType": "address",
					"name": "newOwner",
					"type": "address"
				}
			],
			"name": "OwnershipTransferred",
			"type": "event"
		},
		{
			"anonymous": false,
			"inputs": [
				{
					"indexed": true,
					"internalType": "address",
					"name": "owner",
					"type": "address"
				},
				{
					"indexed": false,
					"internalType": "string",
					"name": "subhandleName",
					"type": "string"
				},
				{
					"indexed": true,
					"internalType": "uint256",
					"name": "tokenId",
					"type": "uint256"
				}
			],
			"name": "SubhandleBurned",
			"type": "event"
		},
		{
			"anonymous": false,
			"inputs": [
				{
					"indexed": true,
					"internalType": "address",
					"name": "owner",
					"type": "address"
				},
				{
					"indexed": false,
					"internalType": "string",
					"name": "parentHandleName",
					"type": "string"
				},
				{
					"indexed": false,
					"internalType": "bool",
					"name": "permissionEnabled",
					"type": "bool"
				},
				{
					"indexed": true,
					"internalType": "uint256",
					"name": "tokenId",
					"type": "uint256"
				}
			],
			"name": "SubhandlePermissionToggled",
			"type": "event"
		},
		{
			"anonymous": false,
			"inputs": [
				{
					"indexed": true,
					"internalType": "address",
					"name": "owner",
					"type": "address"
				},
				{
					"indexed": false,
					"internalType": "string",
					"name": "subhandleName",
					"type": "string"
				},
				{
					"indexed": false,
					"internalType": "string",
					"name": "parentHandleName",
					"type": "string"
				},
				{
					"indexed": false,
					"internalType": "address",
					"name": "parentOwner",
					"type": "address"
				},
				{
					"indexed": false,
					"internalType": "uint256",
					"name": "expirationTimestamp",
					"type": "uint256"
				},
				{
					"indexed": true,
					"internalType": "uint256",
					"name": "tokenId",
					"type": "uint256"
				}
			],
			"name": "SubhandleRegistered",
			"type": "event"
		},
		{
			"anonymous": false,
			"inputs": [
				{
					"indexed": false,
					"internalType": "address",
					"name": "renewedBy",
					"type": "address"
				},
				{
					"indexed": true,
					"internalType": "address",
					"name": "owner",
					"type": "address"
				},
				{
					"indexed": false,
					"internalType": "string",
					"name": "subhandleName",
					"type": "string"
				},
				{
					"indexed": false,
					"internalType": "string",
					"name": "parentHandleName",
					"type": "string"
				},
				{
					"indexed": true,
					"internalType": "address",
					"name": "parentOwner",
					"type": "address"
				},
				{
					"indexed": false,
					"internalType": "uint256",
					"name": "newExpirationTimestamp",
					"type": "uint256"
				},
				{
					"indexed": true,
					"internalType": "uint256",
					"name": "tokenId",
					"type": "uint256"
				}
			],
			"name": "SubhandleRenewed",
			"type": "event"
		},
		{
			"anonymous": false,
			"inputs": [
				{
					"indexed": true,
					"internalType": "address",
					"name": "from",
					"type": "address"
				},
				{
					"indexed": true,
					"internalType": "address",
					"name": "to",
					"type": "address"
				},
				{
					"indexed": true,
					"internalType": "uint256",
					"name": "tokenId",
					"type": "uint256"
				}
			],
			"name": "Transfer",
			"type": "event"
		},
		{
			"inputs": [
				{
					"internalType": "address",
					"name": "to",
					"type": "address"
				},
				{
					"internalType": "uint256",
					"name": "tokenId",
					"type": "uint256"
				}
			],
			"name": "approve",
			"outputs": [],
			"stateMutability": "nonpayable",
			"type": "function"
		},
		{
			"inputs": [
				{
					"internalType": "address",
					"name": "owner",
					"type": "address"
				}
			],
			"name": "balanceOf",
			"outputs": [
				{
					"internalType": "uint256",
					"name": "",
					"type": "uint256"
				}
			],
			"stateMutability": "view",
			"type": "function"
		},
		{
			"inputs": [
				{
					"internalType": "uint256",
					"name": "characterCount",
					"type": "uint256"
				},
				{
					"internalType": "uint256",
					"name": "registrationYears",
					"type": "uint256"
				}
			],
			"name": "calculateHandleFee",
			"outputs": [
				{
					"internalType": "uint256",
					"name": "",
					"type": "uint256"
				}
			],
			"stateMutability": "view",
			"type": "function"
		},
		{
			"inputs": [
				{
					"internalType": "uint256",
					"name": "characterCount",
					"type": "uint256"
				},
				{
					"internalType": "uint256",
					"name": "registrationYears",
					"type": "uint256"
				}
			],
			"name": "calculateSubhandleFee",
			"outputs": [
				{
					"internalType": "uint256",
					"name": "",
					"type": "uint256"
				}
			],
			"stateMutability": "view",
			"type": "function"
		},
		{
			"inputs": [],
			"name": "contractDeploymentTime",
			"outputs": [
				{
					"internalType": "uint256",
					"name": "",
					"type": "uint256"
				}
			],
			"stateMutability": "view",
			"type": "function"
		},
		{
			"inputs": [
				{
					"internalType": "uint256",
					"name": "tokenId",
					"type": "uint256"
				}
			],
			"name": "getApproved",
			"outputs": [
				{
					"internalType": "address",
					"name": "",
					"type": "address"
				}
			],
			"stateMutability": "view",
			"type": "function"
		},
		{
			"inputs": [
				{
					"internalType": "string",
					"name": "handleName",
					"type": "string"
				}
			],
			"name": "getHandleInfo",
			"outputs": [
				{
					"components": [
						{
							"internalType": "uint256",
							"name": "tokenId",
							"type": "uint256"
						},
						{
							"internalType": "address",
							"name": "owner",
							"type": "address"
						},
						{
							"internalType": "uint256",
							"name": "expirationTimestamp",
							"type": "uint256"
						},
						{
							"internalType": "uint256",
							"name": "subhandleCount",
							"type": "uint256"
						},
						{
							"internalType": "string",
							"name": "bitcoinAddress",
							"type": "string"
						}
					],
					"internalType": "struct HNDL.HandleInfo",
					"name": "",
					"type": "tuple"
				}
			],
			"stateMutability": "view",
			"type": "function"
		},
		{
			"inputs": [
				{
					"internalType": "string",
					"name": "subhandleAndParent",
					"type": "string"
				}
			],
			"name": "getSubhandleInfo",
			"outputs": [
				{
					"components": [
						{
							"internalType": "uint256",
							"name": "tokenId",
							"type": "uint256"
						},
						{
							"internalType": "address",
							"name": "owner",
							"type": "address"
						},
						{
							"internalType": "uint256",
							"name": "expirationTimestamp",
							"type": "uint256"
						},
						{
							"internalType": "address",
							"name": "parentHandleOwner",
							"type": "address"
						},
						{
							"internalType": "string",
							"name": "bitcoinAddress",
							"type": "string"
						}
					],
					"internalType": "struct HNDL.SubhandleInfo",
					"name": "",
					"type": "tuple"
				}
			],
			"stateMutability": "view",
			"type": "function"
		},
		{
			"inputs": [
				{
					"internalType": "address",
					"name": "owner",
					"type": "address"
				},
				{
					"internalType": "address",
					"name": "operator",
					"type": "address"
				}
			],
			"name": "isApprovedForAll",
			"outputs": [
				{
					"internalType": "bool",
					"name": "",
					"type": "bool"
				}
			],
			"stateMutability": "view",
			"type": "function"
		},
		{
			"inputs": [
				{
					"internalType": "string",
					"name": "parentHandleName",
					"type": "string"
				}
			],
			"name": "isSubhandlePermissionEnabled",
			"outputs": [
				{
					"internalType": "bool",
					"name": "",
					"type": "bool"
				}
			],
			"stateMutability": "view",
			"type": "function"
		},
		{
			"inputs": [
				{
					"internalType": "address",
					"name": "account",
					"type": "address"
				}
			],
			"name": "isWhitelisted",
			"outputs": [
				{
					"internalType": "bool",
					"name": "",
					"type": "bool"
				}
			],
			"stateMutability": "view",
			"type": "function"
		},
		{
			"inputs": [
				{
					"internalType": "string",
					"name": "handleName",
					"type": "string"
				},
				{
					"internalType": "uint256",
					"name": "registrationYears",
					"type": "uint256"
				}
			],
			"name": "mintHandle",
			"outputs": [],
			"stateMutability": "payable",
			"type": "function"
		},
		{
			"inputs": [
				{
					"internalType": "string",
					"name": "subhandleAndParent",
					"type": "string"
				},
				{
					"internalType": "uint256",
					"name": "registrationYears",
					"type": "uint256"
				}
			],
			"name": "mintSubhandle",
			"outputs": [],
			"stateMutability": "payable",
			"type": "function"
		},
		{
			"inputs": [],
			"name": "name",
			"outputs": [
				{
					"internalType": "string",
					"name": "",
					"type": "string"
				}
			],
			"stateMutability": "view",
			"type": "function"
		},
		{
			"inputs": [],
			"name": "owner",
			"outputs": [
				{
					"internalType": "address",
					"name": "",
					"type": "address"
				}
			],
			"stateMutability": "view",
			"type": "function"
		},
		{
			"inputs": [
				{
					"internalType": "uint256",
					"name": "tokenId",
					"type": "uint256"
				}
			],
			"name": "ownerOf",
			"outputs": [
				{
					"internalType": "address",
					"name": "",
					"type": "address"
				}
			],
			"stateMutability": "view",
			"type": "function"
		},
		{
			"inputs": [
				{
					"internalType": "string",
					"name": "handleName",
					"type": "string"
				},
				{
					"internalType": "uint256",
					"name": "additionalYears",
					"type": "uint256"
				}
			],
			"name": "renewHandle",
			"outputs": [],
			"stateMutability": "payable",
			"type": "function"
		},
		{
			"inputs": [
				{
					"internalType": "string",
					"name": "subhandleAndParent",
					"type": "string"
				},
				{
					"internalType": "uint256",
					"name": "additionalYears",
					"type": "uint256"
				}
			],
			"name": "renewSubhandle",
			"outputs": [],
			"stateMutability": "payable",
			"type": "function"
		},
		{
			"inputs": [],
			"name": "renounceOwnership",
			"outputs": [],
			"stateMutability": "nonpayable",
			"type": "function"
		},
		{
			"inputs": [
				{
					"internalType": "address",
					"name": "from",
					"type": "address"
				},
				{
					"internalType": "address",
					"name": "to",
					"type": "address"
				},
				{
					"internalType": "uint256",
					"name": "tokenId",
					"type": "uint256"
				}
			],
			"name": "safeTransferFrom",
			"outputs": [],
			"stateMutability": "nonpayable",
			"type": "function"
		},
		{
			"inputs": [
				{
					"internalType": "address",
					"name": "from",
					"type": "address"
				},
				{
					"internalType": "address",
					"name": "to",
					"type": "address"
				},
				{
					"internalType": "uint256",
					"name": "tokenId",
					"type": "uint256"
				},
				{
					"internalType": "bytes",
					"name": "_data",
					"type": "bytes"
				}
			],
			"name": "safeTransferFrom",
			"outputs": [],
			"stateMutability": "nonpayable",
			"type": "function"
		},
		{
			"inputs": [
				{
					"internalType": "address",
					"name": "operator",
					"type": "address"
				},
				{
					"internalType": "bool",
					"name": "approved",
					"type": "bool"
				}
			],
			"name": "setApprovalForAll",
			"outputs": [],
			"stateMutability": "nonpayable",
			"type": "function"
		},
		{
			"inputs": [
				{
					"internalType": "string",
					"name": "handleName",
					"type": "string"
				},
				{
					"internalType": "string",
					"name": "bitcoinAddress",
					"type": "string"
				}
			],
			"name": "setBitcoinAddressForHandle",
			"outputs": [],
			"stateMutability": "nonpayable",
			"type": "function"
		},
		{
			"inputs": [
				{
					"internalType": "string",
					"name": "subhandleAndParent",
					"type": "string"
				},
				{
					"internalType": "string",
					"name": "bitcoinAddress",
					"type": "string"
				}
			],
			"name": "setBitcoinAddressForSubhandle",
			"outputs": [],
			"stateMutability": "nonpayable",
			"type": "function"
		},
		{
			"inputs": [
				{
					"internalType": "bytes4",
					"name": "interfaceId",
					"type": "bytes4"
				}
			],
			"name": "supportsInterface",
			"outputs": [
				{
					"internalType": "bool",
					"name": "",
					"type": "bool"
				}
			],
			"stateMutability": "view",
			"type": "function"
		},
		{
			"inputs": [],
			"name": "symbol",
			"outputs": [
				{
					"internalType": "string",
					"name": "",
					"type": "string"
				}
			],
			"stateMutability": "view",
			"type": "function"
		},
		{
			"inputs": [
				{
					"internalType": "string",
					"name": "parentHandleName",
					"type": "string"
				}
			],
			"name": "toggleSubhandlePermission",
			"outputs": [],
			"stateMutability": "payable",
			"type": "function"
		},
		{
			"inputs": [
				{
					"internalType": "uint256",
					"name": "tokenId",
					"type": "uint256"
				}
			],
			"name": "tokenURI",
			"outputs": [
				{
					"internalType": "string",
					"name": "",
					"type": "string"
				}
			],
			"stateMutability": "view",
			"type": "function"
		},
		{
			"inputs": [
				{
					"internalType": "address",
					"name": "from",
					"type": "address"
				},
				{
					"internalType": "address",
					"name": "to",
					"type": "address"
				},
				{
					"internalType": "uint256",
					"name": "tokenId",
					"type": "uint256"
				}
			],
			"name": "transferFrom",
			"outputs": [],
			"stateMutability": "nonpayable",
			"type": "function"
		},
		{
			"inputs": [
				{
					"internalType": "address",
					"name": "newOwner",
					"type": "address"
				}
			],
			"name": "transferOwnership",
			"outputs": [],
			"stateMutability": "nonpayable",
			"type": "function"
		},
		{
			"inputs": [
				{
					"internalType": "address",
					"name": "newFeeRecipient",
					"type": "address"
				}
			],
			"name": "updateFeeRecipient",
			"outputs": [],
			"stateMutability": "nonpayable",
			"type": "function"
		},
		{
			"inputs": [
				{
					"internalType": "uint256",
					"name": "tokenId",
					"type": "uint256"
				}
			],
			"name": "withdrawHandleFees",
			"outputs": [],
			"stateMutability": "nonpayable",
			"type": "function"
		}
	]
}