{
	"data": {
		"bytecode": {
			"linkReferences": {},
			"object": "608060405234801561001057600080fd5b5061001a3361001f565b61006f565b600080546001600160a01b038381166001600160a01b0319831681178455604051919092169283917f8be0079c531659141344cd1fd0a4f28419497f9722a3daafe3b4186f6b6457e09190a35050565b6104d28061007e6000396000f3fe608060405234801561001057600080fd5b50600436106100785760003560e01c80633af32abf1461007d578063715018a6146100be5780638ab1d681146100c85780638da5cb5b146100db5780639b19251a146100f6578063e43252d714610119578063f2fde38b1461012c578063f3e81af71461013f575b600080fd5b6100a961008b3660046103c0565b6001600160a01b031660009081526001602052604090205460ff1690565b60405190151581526020015b60405180910390f35b6100c6610152565b005b6100c66100d63660046103c0565b610166565b6000546040516001600160a01b0390911681526020016100b5565b6100a96101043660046103c0565b60016020526000908152604090205460ff1681565b6100c66101273660046103c0565b6101b7565b6100c661013a3660046103c0565b61020e565b6100c661014d3660046103e2565b61028c565b61015a6102fa565b6101646000610354565b565b61016e6102fa565b6001600160a01b038116600081815260016020526040808220805460ff19169055517f535611fb62fa2a833988f283b779e417e996813e44046f521d76c17b5943b08c9190a250565b6101bf6102fa565b6001600160a01b0381166000818152600160208190526040808320805460ff1916909217909155517f534d18c8ff24ba5980906d732f3075704749427353734fbbf05d50485643b1249190a250565b6102166102fa565b6001600160a01b0381166102805760405162461bcd60e51b815260206004820152602660248201527f4f776e61626c653a206e6577206f776e657220697320746865207a65726f206160448201526564647265737360d01b60648201526084015b60405180910390fd5b61028981610354565b50565b6102946102fa565b61029d8a6101b7565b6102a6896101b7565b6102af886101b7565b6102b8876101b7565b6102c1866101b7565b6102ca856101b7565b6102d3846101b7565b6102dc836101b7565b6102e5826101b7565b6102ee816101b7565b50505050505050505050565b6000546001600160a01b031633146101645760405162461bcd60e51b815260206004820181905260248201527f4f776e61626c653a2063616c6c6572206973206e6f7420746865206f776e65726044820152606401610277565b600080546001600160a01b038381166001600160a01b0319831681178455604051919092169283917f8be0079c531659141344cd1fd0a4f28419497f9722a3daafe3b4186f6b6457e09190a35050565b80356001600160a01b03811681146103bb57600080fd5b919050565b6000602082840312156103d257600080fd5b6103db826103a4565b9392505050565b6000806000806000806000806000806101408b8d03121561040257600080fd5b61040b8b6103a4565b995061041960208c016103a4565b985061042760408c016103a4565b975061043560608c016103a4565b965061044360808c016103a4565b955061045160a08c016103a4565b945061045f60c08c016103a4565b935061046d60e08c016103a4565b925061047c6101008c016103a4565b915061048b6101208c016103a4565b90509295989b9194979a509295985056fea26469706673582212203825781d0f6cf38875c8c3ac254eac4e42d7a5da34d7f2ee0dbd835efeb79b1b64736f6c63430008090033",
			"opcodes": "PUSH1 0x80 PUSH1 0x40 MSTORE CALLVALUE DUP1 ISZERO PUSH2 0x10 JUMPI PUSH1 0x0 DUP1 REVERT JUMPDEST POP PUSH2 0x1A CALLER PUSH2 0x1F JUMP JUMPDEST PUSH2 0x6F JUMP JUMPDEST PUSH1 0x0 DUP1 SLOAD PUSH1 0x1 PUSH1 0x1 PUSH1 0xA0 SHL SUB DUP4 DUP2 AND PUSH1 0x1 PUSH1 0x1 PUSH1 0xA0 SHL SUB NOT DUP4 AND DUP2 OR DUP5 SSTORE PUSH1 0x40 MLOAD SWAP2 SWAP1 SWAP3 AND SWAP3 DUP4 SWAP2 PUSH32 0x8BE0079C531659141344CD1FD0A4F28419497F9722A3DAAFE3B4186F6B6457E0 SWAP2 SWAP1 LOG3 POP POP JUMP JUMPDEST PUSH2 0x4D2 DUP1 PUSH2 0x7E PUSH1 0x0 CODECOPY PUSH1 0x0 RETURN INVALID PUSH1 0x80 PUSH1 0x40 MSTORE CALLVALUE DUP1 ISZERO PUSH2 0x10 JUMPI PUSH1 0x0 DUP1 REVERT JUMPDEST POP PUSH1 0x4 CALLDATASIZE LT PUSH2 0x78 JUMPI PUSH1 0x0 CALLDATALOAD PUSH1 0xE0 SHR DUP1 PUSH4 0x3AF32ABF EQ PUSH2 0x7D JUMPI DUP1 PUSH4 0x715018A6 EQ PUSH2 0xBE JUMPI DUP1 PUSH4 0x8AB1D681 EQ PUSH2 0xC8 JUMPI DUP1 PUSH4 0x8DA5CB5B EQ PUSH2 0xDB JUMPI DUP1 PUSH4 0x9B19251A EQ PUSH2 0xF6 JUMPI DUP1 PUSH4 0xE43252D7 EQ PUSH2 0x119 JUMPI DUP1 PUSH4 0xF2FDE38B EQ PUSH2 0x12C JUMPI DUP1 PUSH4 0xF3E81AF7 EQ PUSH2 0x13F JUMPI JUMPDEST PUSH1 0x0 DUP1 REVERT JUMPDEST PUSH2 0xA9 PUSH2 0x8B CALLDATASIZE PUSH1 0x4 PUSH2 0x3C0 JUMP JUMPDEST PUSH1 0x1 PUSH1 0x1 PUSH1 0xA0 SHL SUB AND PUSH1 0x0 SWAP1 DUP2 MSTORE PUSH1 0x1 PUSH1 0x20 MSTORE PUSH1 0x40 SWAP1 KECCAK256 SLOAD PUSH1 0xFF AND SWAP1 JUMP JUMPDEST PUSH1 0x40 MLOAD SWAP1 ISZERO ISZERO DUP2 MSTORE PUSH1 0x20 ADD JUMPDEST PUSH1 0x40 MLOAD DUP1 SWAP2 SUB SWAP1 RETURN JUMPDEST PUSH2 0xC6 PUSH2 0x152 JUMP JUMPDEST STOP JUMPDEST PUSH2 0xC6 PUSH2 0xD6 CALLDATASIZE PUSH1 0x4 PUSH2 0x3C0 JUMP JUMPDEST PUSH2 0x166 JUMP JUMPDEST PUSH1 0x0 SLOAD PUSH1 0x40 MLOAD PUSH1 0x1 PUSH1 0x1 PUSH1 0xA0 SHL SUB SWAP1 SWAP2 AND DUP2 MSTORE PUSH1 0x20 ADD PUSH2 0xB5 JUMP JUMPDEST PUSH2 0xA9 PUSH2 0x104 CALLDATASIZE PUSH1 0x4 PUSH2 0x3C0 JUMP JUMPDEST PUSH1 0x1 PUSH1 0x20 MSTORE PUSH1 0x0 SWAP1 DUP2 MSTORE PUSH1 0x40 SWAP1 KECCAK256 SLOAD PUSH1 0xFF AND DUP2 JUMP JUMPDEST PUSH2 0xC6 PUSH2 0x127 CALLDATASIZE PUSH1 0x4 PUSH2 0x3C0 JUMP JUMPDEST PUSH2 0x1B7 JUMP JUMPDEST PUSH2 0xC6 PUSH2 0x13A CALLDATASIZE PUSH1 0x4 PUSH2 0x3C0 JUMP JUMPDEST PUSH2 0x20E JUMP JUMPDEST PUSH2 0xC6 PUSH2 0x14D CALLDATASIZE PUSH1 0x4 PUSH2 0x3E2 JUMP JUMPDEST PUSH2 0x28C JUMP JUMPDEST PUSH2 0x15A PUSH2 0x2FA JUMP JUMPDEST PUSH2 0x164 PUSH1 0x0 PUSH2 0x354 JUMP JUMPDEST JUMP JUMPDEST PUSH2 0x16E PUSH2 0x2FA JUMP JUMPDEST PUSH1 0x1 PUSH1 0x1 PUSH1 0xA0 SHL SUB DUP2 AND PUSH1 0x0 DUP2 DUP2 MSTORE PUSH1 0x1 PUSH1 0x20 MSTORE PUSH1 0x40 DUP1 DUP3 KECCAK256 DUP1 SLOAD PUSH1 0xFF NOT AND SWAP1 SSTORE MLOAD PUSH32 0x535611FB62FA2A833988F283B779E417E996813E44046F521D76C17B5943B08C SWAP2 SWAP1 LOG2 POP JUMP JUMPDEST PUSH2 0x1BF PUSH2 0x2FA JUMP JUMPDEST PUSH1 0x1 PUSH1 0x1 PUSH1 0xA0 SHL SUB DUP2 AND PUSH1 0x0 DUP2 DUP2 MSTORE PUSH1 0x1 PUSH1 0x20 DUP2 SWAP1 MSTORE PUSH1 0x40 DUP1 DUP4 KECCAK256 DUP1 SLOAD PUSH1 0xFF NOT AND SWAP1 SWAP3 OR SWAP1 SWAP2 SSTORE MLOAD PUSH32 0x534D18C8FF24BA5980906D732F3075704749427353734FBBF05D50485643B124 SWAP2 SWAP1 LOG2 POP JUMP JUMPDEST PUSH2 0x216 PUSH2 0x2FA JUMP JUMPDEST PUSH1 0x1 PUSH1 0x1 PUSH1 0xA0 SHL SUB DUP2 AND PUSH2 0x280 JUMPI PUSH1 0x40 MLOAD PUSH3 0x461BCD PUSH1 0xE5 SHL DUP2 MSTORE PUSH1 0x20 PUSH1 0x4 DUP3 ADD MSTORE PUSH1 0x26 PUSH1 0x24 DUP3 ADD MSTORE PUSH32 0x4F776E61626C653A206E6577206F776E657220697320746865207A65726F2061 PUSH1 0x44 DUP3 ADD MSTORE PUSH6 0x646472657373 PUSH1 0xD0 SHL PUSH1 0x64 DUP3 ADD MSTORE PUSH1 0x84 ADD JUMPDEST PUSH1 0x40 MLOAD DUP1 SWAP2 SUB SWAP1 REVERT JUMPDEST PUSH2 0x289 DUP2 PUSH2 0x354 JUMP JUMPDEST POP JUMP JUMPDEST PUSH2 0x294 PUSH2 0x2FA JUMP JUMPDEST PUSH2 0x29D DUP11 PUSH2 0x1B7 JUMP JUMPDEST PUSH2 0x2A6 DUP10 PUSH2 0x1B7 JUMP JUMPDEST PUSH2 0x2AF DUP9 PUSH2 0x1B7 JUMP JUMPDEST PUSH2 0x2B8 DUP8 PUSH2 0x1B7 JUMP JUMPDEST PUSH2 0x2C1 DUP7 PUSH2 0x1B7 JUMP JUMPDEST PUSH2 0x2CA DUP6 PUSH2 0x1B7 JUMP JUMPDEST PUSH2 0x2D3 DUP5 PUSH2 0x1B7 JUMP JUMPDEST PUSH2 0x2DC DUP4 PUSH2 0x1B7 JUMP JUMPDEST PUSH2 0x2E5 DUP3 PUSH2 0x1B7 JUMP JUMPDEST PUSH2 0x2EE DUP2 PUSH2 0x1B7 JUMP JUMPDEST POP POP POP POP POP POP POP POP POP POP JUMP JUMPDEST PUSH1 0x0 SLOAD PUSH1 0x1 PUSH1 0x1 PUSH1 0xA0 SHL SUB AND CALLER EQ PUSH2 0x164 JUMPI PUSH1 0x40 MLOAD PUSH3 0x461BCD PUSH1 0xE5 SHL DUP2 MSTORE PUSH1 0x20 PUSH1 0x4 DUP3 ADD DUP2 SWAP1 MSTORE PUSH1 0x24 DUP3 ADD MSTORE PUSH32 0x4F776E61626C653A2063616C6C6572206973206E6F7420746865206F776E6572 PUSH1 0x44 DUP3 ADD MSTORE PUSH1 0x64 ADD PUSH2 0x277 JUMP JUMPDEST PUSH1 0x0 DUP1 SLOAD PUSH1 0x1 PUSH1 0x1 PUSH1 0xA0 SHL SUB DUP4 DUP2 AND PUSH1 0x1 PUSH1 0x1 PUSH1 0xA0 SHL SUB NOT DUP4 AND DUP2 OR DUP5 SSTORE PUSH1 0x40 MLOAD SWAP2 SWAP1 SWAP3 AND SWAP3 DUP4 SWAP2 PUSH32 0x8BE0079C531659141344CD1FD0A4F28419497F9722A3DAAFE3B4186F6B6457E0 SWAP2 SWAP1 LOG3 POP POP JUMP JUMPDEST DUP1 CALLDATALOAD PUSH1 0x1 PUSH1 0x1 PUSH1 0xA0 SHL SUB DUP2 AND DUP2 EQ PUSH2 0x3BB JUMPI PUSH1 0x0 DUP1 REVERT JUMPDEST SWAP2 SWAP1 POP JUMP JUMPDEST PUSH1 0x0 PUSH1 0x20 DUP3 DUP5 SUB SLT ISZERO PUSH2 0x3D2 JUMPI PUSH1 0x0 DUP1 REVERT JUMPDEST PUSH2 0x3DB DUP3 PUSH2 0x3A4 JUMP JUMPDEST SWAP4 SWAP3 POP POP POP JUMP JUMPDEST PUSH1 0x0 DUP1 PUSH1 0x0 DUP1 PUSH1 0x0 DUP1 PUSH1 0x0 DUP1 PUSH1 0x0 DUP1 PUSH2 0x140 DUP12 DUP14 SUB SLT ISZERO PUSH2 0x402 JUMPI PUSH1 0x0 DUP1 REVERT JUMPDEST PUSH2 0x40B DUP12 PUSH2 0x3A4 JUMP JUMPDEST SWAP10 POP PUSH2 0x419 PUSH1 0x20 DUP13 ADD PUSH2 0x3A4 JUMP JUMPDEST SWAP9 POP PUSH2 0x427 PUSH1 0x40 DUP13 ADD PUSH2 0x3A4 JUMP JUMPDEST SWAP8 POP PUSH2 0x435 PUSH1 0x60 DUP13 ADD PUSH2 0x3A4 JUMP JUMPDEST SWAP7 POP PUSH2 0x443 PUSH1 0x80 DUP13 ADD PUSH2 0x3A4 JUMP JUMPDEST SWAP6 POP PUSH2 0x451 PUSH1 0xA0 DUP13 ADD PUSH2 0x3A4 JUMP JUMPDEST SWAP5 POP PUSH2 0x45F PUSH1 0xC0 DUP13 ADD PUSH2 0x3A4 JUMP JUMPDEST SWAP4 POP PUSH2 0x46D PUSH1 0xE0 DUP13 ADD PUSH2 0x3A4 JUMP JUMPDEST SWAP3 POP PUSH2 0x47C PUSH2 0x100 DUP13 ADD PUSH2 0x3A4 JUMP JUMPDEST SWAP2 POP PUSH2 0x48B PUSH2 0x120 DUP13 ADD PUSH2 0x3A4 JUMP JUMPDEST SWAP1 POP SWAP3 SWAP6 SWAP9 SWAP12 SWAP2 SWAP5 SWAP8 SWAP11 POP SWAP3 SWAP6 SWAP9 POP JUMP INVALID LOG2 PUSH5 0x6970667358 0x22 SLT KECCAK256 CODESIZE 0x25 PUSH25 0x1D0F6CF38875C8C3AC254EAC4E42D7A5DA34D7F2EE0DBD835E INVALID 0xB7 SWAP12 SHL PUSH5 0x736F6C6343 STOP ADDMOD MULMOD STOP CALLER "
		},
		"gasEstimates": {
			"creation": {
				"codeDepositCost": "246800",
				"executionCost": "26128",
				"totalCost": "272928"
			},
			"external": {
				"addAddressesToWhitelist(address,address,address,address,address,address,address,address,address,address)": "infinite",
				"addToWhitelist(address)": "28019",
				"isWhitelisted(address)": "2516",
				"owner()": "2345",
				"removeFromWhitelist(address)": "27935",
				"renounceOwnership()": "infinite",
				"transferOwnership(address)": "28443",
				"whitelist(address)": "2586"
			}
		},
		"methodIdentifiers": {
			"addAddressesToWhitelist(address,address,address,address,address,address,address,address,address,address)": "f3e81af7",
			"addToWhitelist(address)": "e43252d7",
			"isWhitelisted(address)": "3af32abf",
			"owner()": "8da5cb5b",
			"removeFromWhitelist(address)": "8ab1d681",
			"renounceOwnership()": "715018a6",
			"transferOwnership(address)": "f2fde38b",
			"whitelist(address)": "9b19251a"
		}
	},
	"abi": [
		{
			"anonymous": false,
			"inputs": [
				{
					"indexed": true,
					"internalType": "address",
					"name": "account",
					"type": "address"
				}
			],
			"name": "AddressAddedToWhitelist",
			"type": "event"
		},
		{
			"anonymous": false,
			"inputs": [
				{
					"indexed": true,
					"internalType": "address",
					"name": "account",
					"type": "address"
				}
			],
			"name": "AddressRemovedFromWhitelist",
			"type": "event"
		},
		{
			"anonymous": false,
			"inputs": [
				{
					"indexed": true,
					"internalType": "address",
					"name": "previousOwner",
					"type": "address"
				},
				{
					"indexed": true,
					"internalType": "address",
					"name": "newOwner",
					"type": "address"
				}
			],
			"name": "OwnershipTransferred",
			"type": "event"
		},
		{
			"inputs": [
				{
					"internalType": "address",
					"name": "account1",
					"type": "address"
				},
				{
					"internalType": "address",
					"name": "account2",
					"type": "address"
				},
				{
					"internalType": "address",
					"name": "account3",
					"type": "address"
				},
				{
					"internalType": "address",
					"name": "account4",
					"type": "address"
				},
				{
					"internalType": "address",
					"name": "account5",
					"type": "address"
				},
				{
					"internalType": "address",
					"name": "account6",
					"type": "address"
				},
				{
					"internalType": "address",
					"name": "account7",
					"type": "address"
				},
				{
					"internalType": "address",
					"name": "account8",
					"type": "address"
				},
				{
					"internalType": "address",
					"name": "account9",
					"type": "address"
				},
				{
					"internalType": "address",
					"name": "account10",
					"type": "address"
				}
			],
			"name": "addAddressesToWhitelist",
			"outputs": [],
			"stateMutability": "nonpayable",
			"type": "function"
		},
		{
			"inputs": [
				{
					"internalType": "address",
					"name": "account",
					"type": "address"
				}
			],
			"name": "addToWhitelist",
			"outputs": [],
			"stateMutability": "nonpayable",
			"type": "function"
		},
		{
			"inputs": [
				{
					"internalType": "address",
					"name": "account",
					"type": "address"
				}
			],
			"name": "isWhitelisted",
			"outputs": [
				{
					"internalType": "bool",
					"name": "",
					"type": "bool"
				}
			],
			"stateMutability": "view",
			"type": "function"
		},
		{
			"inputs": [],
			"name": "owner",
			"outputs": [
				{
					"internalType": "address",
					"name": "",
					"type": "address"
				}
			],
			"stateMutability": "view",
			"type": "function"
		},
		{
			"inputs": [
				{
					"internalType": "address",
					"name": "account",
					"type": "address"
				}
			],
			"name": "removeFromWhitelist",
			"outputs": [],
			"stateMutability": "nonpayable",
			"type": "function"
		},
		{
			"inputs": [],
			"name": "renounceOwnership",
			"outputs": [],
			"stateMutability": "nonpayable",
			"type": "function"
		},
		{
			"inputs": [
				{
					"internalType": "address",
					"name": "newOwner",
					"type": "address"
				}
			],
			"name": "transferOwnership",
			"outputs": [],
			"stateMutability": "nonpayable",
			"type": "function"
		},
		{
			"inputs": [
				{
					"internalType": "address",
					"name": "",
					"type": "address"
				}
			],
			"name": "whitelist",
			"outputs": [
				{
					"internalType": "bool",
					"name": "",
					"type": "bool"
				}
			],
			"stateMutability": "view",
			"type": "function"
		}
	]
}